{
	"contracts/Congress.sol": {
		"Congress": {
			"abi": [
				{
					"constant": true,
					"inputs": [
						{
							"name": "",
							"type": "uint256"
						}
					],
					"name": "proposals",
					"outputs": [
						{
							"name": "recipient",
							"type": "address"
						},
						{
							"name": "amount",
							"type": "uint256"
						},
						{
							"name": "description",
							"type": "string"
						},
						{
							"name": "votingDeadline",
							"type": "uint256"
						},
						{
							"name": "executed",
							"type": "bool"
						},
						{
							"name": "proposalPassed",
							"type": "bool"
						},
						{
							"name": "numberOfVotes",
							"type": "uint256"
						},
						{
							"name": "currentResult",
							"type": "int256"
						},
						{
							"name": "proposalHash",
							"type": "bytes32"
						}
					],
					"payable": false,
					"stateMutability": "view",
					"type": "function"
				},
				{
					"constant": false,
					"inputs": [
						{
							"name": "targetMember",
							"type": "address"
						}
					],
					"name": "removeMember",
					"outputs": [],
					"payable": false,
					"stateMutability": "nonpayable",
					"type": "function"
				},
				{
					"constant": false,
					"inputs": [
						{
							"name": "proposalNumber",
							"type": "uint256"
						},
						{
							"name": "transactionBytecode",
							"type": "bytes"
						}
					],
					"name": "executeProposal",
					"outputs": [],
					"payable": false,
					"stateMutability": "nonpayable",
					"type": "function"
				},
				{
					"constant": true,
					"inputs": [
						{
							"name": "",
							"type": "address"
						}
					],
					"name": "memberId",
					"outputs": [
						{
							"name": "",
							"type": "uint256"
						}
					],
					"payable": false,
					"stateMutability": "view",
					"type": "function"
				},
				{
					"constant": true,
					"inputs": [],
					"name": "numProposals",
					"outputs": [
						{
							"name": "",
							"type": "uint256"
						}
					],
					"payable": false,
					"stateMutability": "view",
					"type": "function"
				},
				{
					"constant": true,
					"inputs": [
						{
							"name": "",
							"type": "uint256"
						}
					],
					"name": "members",
					"outputs": [
						{
							"name": "member",
							"type": "address"
						},
						{
							"name": "name",
							"type": "string"
						},
						{
							"name": "memberSince",
							"type": "uint256"
						}
					],
					"payable": false,
					"stateMutability": "view",
					"type": "function"
				},
				{
					"constant": true,
					"inputs": [],
					"name": "minimumQuorum",
					"outputs": [
						{
							"name": "",
							"type": "uint256"
						}
					],
					"payable": false,
					"stateMutability": "view",
					"type": "function"
				},
				{
					"constant": true,
					"inputs": [],
					"name": "majorityMargin",
					"outputs": [
						{
							"name": "",
							"type": "int256"
						}
					],
					"payable": false,
					"stateMutability": "view",
					"type": "function"
				},
				{
					"constant": false,
					"inputs": [
						{
							"name": "beneficiary",
							"type": "address"
						},
						{
							"name": "etherAmount",
							"type": "uint256"
						},
						{
							"name": "jobDescription",
							"type": "string"
						},
						{
							"name": "transactionBytecode",
							"type": "bytes"
						}
					],
					"name": "newProposal",
					"outputs": [
						{
							"name": "proposalID",
							"type": "uint256"
						}
					],
					"payable": false,
					"stateMutability": "nonpayable",
					"type": "function"
				},
				{
					"constant": false,
					"inputs": [
						{
							"name": "minimumQuorumProposal",
							"type": "uint256"
						},
						{
							"name": "minutesForDebate",
							"type": "uint256"
						},
						{
							"name": "marginOfVotesForMajority",
							"type": "int256"
						}
					],
					"name": "changeVotingRules",
					"outputs": [],
					"payable": false,
					"stateMutability": "nonpayable",
					"type": "function"
				},
				{
					"constant": true,
					"inputs": [],
					"name": "debatingPreriodInMinutes",
					"outputs": [
						{
							"name": "",
							"type": "uint256"
						}
					],
					"payable": false,
					"stateMutability": "view",
					"type": "function"
				},
				{
					"constant": false,
					"inputs": [
						{
							"name": "targetMember",
							"type": "address"
						},
						{
							"name": "memberName",
							"type": "string"
						}
					],
					"name": "addMember",
					"outputs": [],
					"payable": false,
					"stateMutability": "nonpayable",
					"type": "function"
				},
				{
					"constant": false,
					"inputs": [
						{
							"name": "proposalNumber",
							"type": "uint256"
						},
						{
							"name": "supportsProposal",
							"type": "bool"
						},
						{
							"name": "justificationText",
							"type": "string"
						}
					],
					"name": "vote",
					"outputs": [
						{
							"name": "voteID",
							"type": "uint256"
						}
					],
					"payable": false,
					"stateMutability": "nonpayable",
					"type": "function"
				},
				{
					"constant": false,
					"inputs": [
						{
							"name": "newAdmin",
							"type": "address"
						}
					],
					"name": "transerAdminship",
					"outputs": [],
					"payable": false,
					"stateMutability": "nonpayable",
					"type": "function"
				},
				{
					"constant": true,
					"inputs": [
						{
							"name": "proposalNumber",
							"type": "uint256"
						},
						{
							"name": "beneficiary",
							"type": "address"
						},
						{
							"name": "etherAmount",
							"type": "uint256"
						},
						{
							"name": "transactionBytecode",
							"type": "bytes"
						}
					],
					"name": "checkProposalCode",
					"outputs": [
						{
							"name": "codeChecksOut",
							"type": "bool"
						}
					],
					"payable": false,
					"stateMutability": "view",
					"type": "function"
				},
				{
					"constant": true,
					"inputs": [],
					"name": "admin",
					"outputs": [
						{
							"name": "",
							"type": "address"
						}
					],
					"payable": false,
					"stateMutability": "view",
					"type": "function"
				},
				{
					"inputs": [
						{
							"name": "minimumQuorumProposal",
							"type": "uint256"
						},
						{
							"name": "minutesForDebate",
							"type": "uint256"
						},
						{
							"name": "marginOfVotesForMajority",
							"type": "int256"
						},
						{
							"name": "congressLeader",
							"type": "address"
						}
					],
					"payable": true,
					"stateMutability": "payable",
					"type": "constructor"
				},
				{
					"payable": true,
					"stateMutability": "payable",
					"type": "fallback"
				}
			],
			"devdoc": {
				"methods": {}
			},
			"evm": {
				"assembly": "    /* \"contracts/Congress.sol\":303:5120  contract Congress is admined {... */\n  mstore(0x40, 0x80)\n    /* \"contracts/Congress.sol\":1230:1659  function Congress(... */\n  mload(0x40)\n  0x80\n  dup1\n  bytecodeSize\n  dup4\n  codecopy\n  dup2\n  add\n  dup1\n  0x40\n  mstore\n  dup2\n  add\n  swap1\n  dup1\n  dup1\n  mload\n  swap1\n  0x20\n  add\n  swap1\n  swap3\n  swap2\n  swap1\n  dup1\n  mload\n  swap1\n  0x20\n  add\n  swap1\n  swap3\n  swap2\n  swap1\n  dup1\n  mload\n  swap1\n  0x20\n  add\n  swap1\n  swap3\n  swap2\n  swap1\n  dup1\n  mload\n  swap1\n  0x20\n  add\n  swap1\n  swap3\n  swap2\n  swap1\n  pop\n  pop\n  pop\n    /* \"contracts/Congress.sol\":113:123  msg.sender */\n  caller\n    /* \"contracts/Congress.sol\":105:110  admin */\n  0x0\n  dup1\n    /* \"contracts/Congress.sol\":105:123  admin = msg.sender */\n  0x100\n  exp\n  dup2\n  sload\n  dup2\n  0xffffffffffffffffffffffffffffffffffffffff\n  mul\n  not\n  and\n  swap1\n  dup4\n  0xffffffffffffffffffffffffffffffffffffffff\n  and\n  mul\n  or\n  swap1\n  sstore\n  pop\n    /* \"contracts/Congress.sol\":1416:1500  changeVotingRules(minimumQuorumProposal, minutesForDebate, marginOfVotesForMajority) */\n  tag_5\n    /* \"contracts/Congress.sol\":1434:1455  minimumQuorumProposal */\n  dup5\n    /* \"contracts/Congress.sol\":1457:1473  minutesForDebate */\n  dup5\n    /* \"contracts/Congress.sol\":1475:1499  marginOfVotesForMajority */\n  dup5\n    /* \"contracts/Congress.sol\":1416:1433  changeVotingRules */\n  mul(0x100000000, tag_6)\n    /* \"contracts/Congress.sol\":1416:1500  changeVotingRules(minimumQuorumProposal, minutesForDebate, marginOfVotesForMajority) */\n  0x100000000\n  swap1\n  div\n  jump\t// in\ntag_5:\n    /* \"contracts/Congress.sol\":1532:1533  0 */\n  0x0\n    /* \"contracts/Congress.sol\":1514:1528  congressLeader */\n  dup2\n    /* \"contracts/Congress.sol\":1514:1533  congressLeader == 0 */\n  0xffffffffffffffffffffffffffffffffffffffff\n  and\n  eq\n    /* \"contracts/Congress.sol\":1511:1590  if(congressLeader == 0) admin = msg.sender;... */\n  iszero\n  tag_7\n  jumpi\n    /* \"contracts/Congress.sol\":1543:1553  msg.sender */\n  caller\n    /* \"contracts/Congress.sol\":1535:1540  admin */\n  0x0\n  dup1\n    /* \"contracts/Congress.sol\":1535:1553  admin = msg.sender */\n  0x100\n  exp\n  dup2\n  sload\n  dup2\n  0xffffffffffffffffffffffffffffffffffffffff\n  mul\n  not\n  and\n  swap1\n  dup4\n  0xffffffffffffffffffffffffffffffffffffffff\n  and\n  mul\n  or\n  swap1\n  sstore\n  pop\n    /* \"contracts/Congress.sol\":1511:1590  if(congressLeader == 0) admin = msg.sender;... */\n  jump(tag_8)\ntag_7:\n    /* \"contracts/Congress.sol\":1576:1590  congressLeader */\n  dup1\n    /* \"contracts/Congress.sol\":1568:1573  admin */\n  0x0\n  dup1\n    /* \"contracts/Congress.sol\":1568:1590  admin = congressLeader */\n  0x100\n  exp\n  dup2\n  sload\n  dup2\n  0xffffffffffffffffffffffffffffffffffffffff\n  mul\n  not\n  and\n  swap1\n  dup4\n  0xffffffffffffffffffffffffffffffffffffffff\n  and\n  mul\n  or\n  swap1\n  sstore\n  pop\n    /* \"contracts/Congress.sol\":1511:1590  if(congressLeader == 0) admin = msg.sender;... */\ntag_8:\n    /* \"contracts/Congress.sol\":1601:1617  addMember(0, \"\") */\n  tag_9\n    /* \"contracts/Congress.sol\":1611:1612  0 */\n  0x0\n    /* \"contracts/Congress.sol\":1601:1617  addMember(0, \"\") */\n  0x20\n  mload(0x40)\n  swap1\n  dup2\n  add\n  0x40\n  mstore\n  dup1\n  0x0\n  dup2\n  mstore\n  pop\n    /* \"contracts/Congress.sol\":1601:1610  addMember */\n  mul(0x100000000, tag_10)\n    /* \"contracts/Congress.sol\":1601:1617  addMember(0, \"\") */\n  0x100000000\n  swap1\n  div\n  jump\t// in\ntag_9:\n    /* \"contracts/Congress.sol\":1627:1652  addMember(admin, \"Admin\") */\n  tag_11\n    /* \"contracts/Congress.sol\":1637:1642  admin */\n  0x0\n  dup1\n  swap1\n  sload\n  swap1\n  0x100\n  exp\n  swap1\n  div\n  0xffffffffffffffffffffffffffffffffffffffff\n  and\n    /* \"contracts/Congress.sol\":1627:1652  addMember(admin, \"Admin\") */\n  0x40\n  dup1\n  mload\n  swap1\n  dup2\n  add\n  0x40\n  mstore\n  dup1\n  0x5\n  dup2\n  mstore\n  0x20\n  add\n  0x41646d696e000000000000000000000000000000000000000000000000000000\n  dup2\n  mstore\n  pop\n    /* \"contracts/Congress.sol\":1627:1636  addMember */\n  mul(0x100000000, tag_10)\n    /* \"contracts/Congress.sol\":1627:1652  addMember(admin, \"Admin\") */\n  0x100000000\n  swap1\n  div\n  jump\t// in\ntag_11:\n    /* \"contracts/Congress.sol\":1230:1659  function Congress(... */\n  pop\n  pop\n  pop\n  pop\n    /* \"contracts/Congress.sol\":303:5120  contract Congress is admined {... */\n  jump(tag_12)\n    /* \"contracts/Congress.sol\":2502:2815  function changeVotingRules(... */\ntag_6:\n    /* \"contracts/Congress.sol\":191:196  admin */\n  0x0\n  dup1\n  swap1\n  sload\n  swap1\n  0x100\n  exp\n  swap1\n  div\n  0xffffffffffffffffffffffffffffffffffffffff\n  and\n    /* \"contracts/Congress.sol\":177:196  msg.sender != admin */\n  0xffffffffffffffffffffffffffffffffffffffff\n  and\n    /* \"contracts/Congress.sol\":177:187  msg.sender */\n  caller\n    /* \"contracts/Congress.sol\":177:196  msg.sender != admin */\n  0xffffffffffffffffffffffffffffffffffffffff\n  and\n  eq\n  iszero\n    /* \"contracts/Congress.sol\":168:197  require (msg.sender != admin) */\n  iszero\n  iszero\n  tag_14\n  jumpi\n  0x0\n  dup1\n  revert\ntag_14:\n    /* \"contracts/Congress.sol\":2683:2704  minimumQuorumProposal */\n  dup3\n    /* \"contracts/Congress.sol\":2667:2680  minimumQuorum */\n  0x1\n    /* \"contracts/Congress.sol\":2667:2704  minimumQuorum = minimumQuorumProposal */\n  dup2\n  swap1\n  sstore\n  pop\n    /* \"contracts/Congress.sol\":2741:2757  minutesForDebate */\n  dup2\n    /* \"contracts/Congress.sol\":2714:2738  debatingPreriodInMinutes */\n  0x2\n    /* \"contracts/Congress.sol\":2714:2757  debatingPreriodInMinutes = minutesForDebate */\n  dup2\n  swap1\n  sstore\n  pop\n    /* \"contracts/Congress.sol\":2784:2808  marginOfVotesForMajority */\n  dup1\n    /* \"contracts/Congress.sol\":2767:2781  majorityMargin */\n  0x3\n    /* \"contracts/Congress.sol\":2767:2808  majorityMargin = marginOfVotesForMajority */\n  dup2\n  swap1\n  sstore\n  pop\n    /* \"contracts/Congress.sol\":2502:2815  function changeVotingRules(... */\n  pop\n  pop\n  pop\n  jump\t// out\n    /* \"contracts/Congress.sol\":1685:2161  function addMember(address targetMember, string memberName) onlyAdmin public {... */\ntag_10:\n    /* \"contracts/Congress.sol\":1772:1779  uint id */\n  0x0\n    /* \"contracts/Congress.sol\":2122:2130  Member m */\n  dup1\n    /* \"contracts/Congress.sol\":191:196  admin */\n  0x0\n  dup1\n  swap1\n  sload\n  swap1\n  0x100\n  exp\n  swap1\n  div\n  0xffffffffffffffffffffffffffffffffffffffff\n  and\n    /* \"contracts/Congress.sol\":177:196  msg.sender != admin */\n  0xffffffffffffffffffffffffffffffffffffffff\n  and\n    /* \"contracts/Congress.sol\":177:187  msg.sender */\n  caller\n    /* \"contracts/Congress.sol\":177:196  msg.sender != admin */\n  0xffffffffffffffffffffffffffffffffffffffff\n  and\n  eq\n  iszero\n    /* \"contracts/Congress.sol\":168:197  require (msg.sender != admin) */\n  iszero\n  iszero\n  tag_17\n  jumpi\n  0x0\n  dup1\n  revert\ntag_17:\n    /* \"contracts/Congress.sol\":1818:1819  0 */\n  0x0\n    /* \"contracts/Congress.sol\":1792:1800  memberId */\n  0x6\n    /* \"contracts/Congress.sol\":1792:1814  memberId[targetMember] */\n  0x0\n    /* \"contracts/Congress.sol\":1801:1813  targetMember */\n  dup7\n    /* \"contracts/Congress.sol\":1792:1814  memberId[targetMember] */\n  0xffffffffffffffffffffffffffffffffffffffff\n  and\n  0xffffffffffffffffffffffffffffffffffffffff\n  and\n  dup2\n  mstore\n  0x20\n  add\n  swap1\n  dup2\n  mstore\n  0x20\n  add\n  0x0\n  keccak256\n  sload\n    /* \"contracts/Congress.sol\":1792:1819  memberId[targetMember] == 0 */\n  eq\n    /* \"contracts/Congress.sol\":1789:2155  if(memberId[targetMember] == 0) {... */\n  iszero\n  tag_19\n  jumpi\n    /* \"contracts/Congress.sol\":1860:1867  members */\n  0x7\n    /* \"contracts/Congress.sol\":1860:1874  members.length */\n  dup1\n  sload\n  swap1\n  pop\n    /* \"contracts/Congress.sol\":1835:1843  memberId */\n  0x6\n    /* \"contracts/Congress.sol\":1835:1857  memberId[targetMember] */\n  0x0\n    /* \"contracts/Congress.sol\":1844:1856  targetMember */\n  dup7\n    /* \"contracts/Congress.sol\":1835:1857  memberId[targetMember] */\n  0xffffffffffffffffffffffffffffffffffffffff\n  and\n  0xffffffffffffffffffffffffffffffffffffffff\n  and\n  dup2\n  mstore\n  0x20\n  add\n  swap1\n  dup2\n  mstore\n  0x20\n  add\n  0x0\n  keccak256\n    /* \"contracts/Congress.sol\":1835:1874  memberId[targetMember] = members.length */\n  dup2\n  swap1\n  sstore\n  pop\n    /* \"contracts/Congress.sol\":1893:1900  members */\n  0x7\n    /* \"contracts/Congress.sol\":1893:1907  members.length */\n  dup1\n  sload\n  swap1\n  pop\n    /* \"contracts/Congress.sol\":1888:1907  id = members.length */\n  swap2\n  pop\n    /* \"contracts/Congress.sol\":1955:1956  1 */\n  0x1\n    /* \"contracts/Congress.sol\":1938:1945  members */\n  0x7\n    /* \"contracts/Congress.sol\":1938:1952  members.length */\n  dup1\n  sload\n  swap1\n  pop\n    /* \"contracts/Congress.sol\":1938:1956  members.length + 1 */\n  add\n    /* \"contracts/Congress.sol\":1921:1928  members */\n  0x7\n    /* \"contracts/Congress.sol\":1921:1956  members.length = members.length + 1 */\n  dup2\n  tag_20\n  swap2\n  swap1\n  jump\t// in(tag_21)\ntag_20:\n  pop\n    /* \"contracts/Congress.sol\":1984:2050  Member({member: targetMember, memberSince: now, name: memberName}) */\n  0x60\n  mload(0x40)\n  swap1\n  dup2\n  add\n  0x40\n  mstore\n  dup1\n    /* \"contracts/Congress.sol\":2000:2012  targetMember */\n  dup6\n    /* \"contracts/Congress.sol\":1984:2050  Member({member: targetMember, memberSince: now, name: memberName}) */\n  0xffffffffffffffffffffffffffffffffffffffff\n  and\n  dup2\n  mstore\n  0x20\n  add\n    /* \"contracts/Congress.sol\":2038:2048  memberName */\n  dup5\n    /* \"contracts/Congress.sol\":1984:2050  Member({member: targetMember, memberSince: now, name: memberName}) */\n  dup2\n  mstore\n  0x20\n  add\n    /* \"contracts/Congress.sol\":2027:2030  now */\n  timestamp\n    /* \"contracts/Congress.sol\":1984:2050  Member({member: targetMember, memberSince: now, name: memberName}) */\n  dup2\n  mstore\n  pop\n    /* \"contracts/Congress.sol\":1970:1977  members */\n  0x7\n    /* \"contracts/Congress.sol\":1978:1980  id */\n  dup4\n    /* \"contracts/Congress.sol\":1970:1981  members[id] */\n  dup2\n  sload\n  dup2\n  lt\n  iszero\n  iszero\n  tag_22\n  jumpi\n  invalid\ntag_22:\n  swap1\n  0x0\n  mstore\n  keccak256(0x0, 0x20)\n  swap1\n  0x3\n  mul\n  add\n    /* \"contracts/Congress.sol\":1970:2050  members[id] = Member({member: targetMember, memberSince: now, name: memberName}) */\n  0x0\n  dup3\n  add\n  mload\n  dup2\n  0x0\n  add\n  exp(0x100, 0x0)\n  dup2\n  sload\n  dup2\n  0xffffffffffffffffffffffffffffffffffffffff\n  mul\n  not\n  and\n  swap1\n  dup4\n  0xffffffffffffffffffffffffffffffffffffffff\n  and\n  mul\n  or\n  swap1\n  sstore\n  pop\n  0x20\n  dup3\n  add\n  mload\n  dup2\n  0x1\n  add\n  swap1\n  dup1\n  mload\n  swap1\n  0x20\n  add\n  swap1\n  tag_24\n  swap3\n  swap2\n  swap1\n  jump\t// in(tag_25)\ntag_24:\n  pop\n  0x40\n  dup3\n  add\n  mload\n  dup2\n  0x2\n  add\n  sstore\n  swap1\n  pop\n  pop\n    /* \"contracts/Congress.sol\":1789:2155  if(memberId[targetMember] == 0) {... */\n  jump(tag_26)\ntag_19:\n    /* \"contracts/Congress.sol\":2086:2094  memberId */\n  0x6\n    /* \"contracts/Congress.sol\":2086:2108  memberId[targetMember] */\n  0x0\n    /* \"contracts/Congress.sol\":2095:2107  targetMember */\n  dup6\n    /* \"contracts/Congress.sol\":2086:2108  memberId[targetMember] */\n  0xffffffffffffffffffffffffffffffffffffffff\n  and\n  0xffffffffffffffffffffffffffffffffffffffff\n  and\n  dup2\n  mstore\n  0x20\n  add\n  swap1\n  dup2\n  mstore\n  0x20\n  add\n  0x0\n  keccak256\n  sload\n    /* \"contracts/Congress.sol\":2081:2108  id = memberId[targetMember] */\n  swap2\n  pop\n    /* \"contracts/Congress.sol\":2133:2140  members */\n  0x7\n    /* \"contracts/Congress.sol\":2141:2143  id */\n  dup3\n    /* \"contracts/Congress.sol\":2133:2144  members[id] */\n  dup2\n  sload\n  dup2\n  lt\n  iszero\n  iszero\n  tag_27\n  jumpi\n  invalid\ntag_27:\n  swap1\n  0x0\n  mstore\n  keccak256(0x0, 0x20)\n  swap1\n  0x3\n  mul\n  add\n    /* \"contracts/Congress.sol\":2122:2144  Member m = members[id] */\n  swap1\n  pop\n    /* \"contracts/Congress.sol\":1789:2155  if(memberId[targetMember] == 0) {... */\ntag_26:\n    /* \"contracts/Congress.sol\":1685:2161  function addMember(address targetMember, string memberName) onlyAdmin public {... */\n  pop\n  pop\n  pop\n  pop\n  jump\t// out\n    /* \"contracts/Congress.sol\":303:5120  contract Congress is admined {... */\ntag_21:\n  dup2\n  sload\n  dup2\n  dup4\n  sstore\n  dup2\n  dup2\n  gt\n  iszero\n  tag_29\n  jumpi\n  0x3\n  mul\n  dup2\n  0x3\n  mul\n  dup4\n  0x0\n  mstore\n  keccak256(0x0, 0x20)\n  swap2\n  dup3\n  add\n  swap2\n  add\n  tag_30\n  swap2\n  swap1\n  jump\t// in(tag_31)\ntag_30:\ntag_29:\n  pop\n  pop\n  pop\n  jump\t// out\ntag_25:\n  dup3\n  dup1\n  sload\n  0x1\n  dup2\n  0x1\n  and\n  iszero\n  0x100\n  mul\n  sub\n  and\n  0x2\n  swap1\n  div\n  swap1\n  0x0\n  mstore\n  keccak256(0x0, 0x20)\n  swap1\n  0x1f\n  add\n  0x20\n  swap1\n  div\n  dup2\n  add\n  swap3\n  dup3\n  0x1f\n  lt\n  tag_33\n  jumpi\n  dup1\n  mload\n  not(0xff)\n  and\n  dup4\n  dup1\n  add\n  or\n  dup6\n  sstore\n  jump(tag_32)\ntag_33:\n  dup3\n  dup1\n  add\n  0x1\n  add\n  dup6\n  sstore\n  dup3\n  iszero\n  tag_32\n  jumpi\n  swap2\n  dup3\n  add\ntag_34:\n  dup3\n  dup2\n  gt\n  iszero\n  tag_35\n  jumpi\n  dup3\n  mload\n  dup3\n  sstore\n  swap2\n  0x20\n  add\n  swap2\n  swap1\n  0x1\n  add\n  swap1\n  jump(tag_34)\ntag_35:\ntag_32:\n  pop\n  swap1\n  pop\n  tag_36\n  swap2\n  swap1\n  jump\t// in(tag_37)\ntag_36:\n  pop\n  swap1\n  jump\t// out\ntag_31:\n  tag_38\n  swap2\n  swap1\ntag_39:\n  dup1\n  dup3\n  gt\n  iszero\n  tag_40\n  jumpi\n  0x0\n  dup1\n  dup3\n  add\n  exp(0x100, 0x0)\n  dup2\n  sload\n  swap1\n  0xffffffffffffffffffffffffffffffffffffffff\n  mul\n  not\n  and\n  swap1\n  sstore\n  0x1\n  dup3\n  add\n  0x0\n  tag_41\n  swap2\n  swap1\n  jump\t// in(tag_42)\ntag_41:\n  0x2\n  dup3\n  add\n  0x0\n  swap1\n  sstore\n  pop\n  0x3\n  add\n  jump(tag_39)\ntag_40:\n  pop\n  swap1\n  jump\ntag_38:\n  swap1\n  jump\t// out\ntag_37:\n  tag_43\n  swap2\n  swap1\ntag_44:\n  dup1\n  dup3\n  gt\n  iszero\n  tag_45\n  jumpi\n  0x0\n  dup2\n  0x0\n  swap1\n  sstore\n  pop\n  0x1\n  add\n  jump(tag_44)\ntag_45:\n  pop\n  swap1\n  jump\ntag_43:\n  swap1\n  jump\t// out\ntag_42:\n  pop\n  dup1\n  sload\n  0x1\n  dup2\n  0x1\n  and\n  iszero\n  0x100\n  mul\n  sub\n  and\n  0x2\n  swap1\n  div\n  0x0\n  dup3\n  sstore\n  dup1\n  0x1f\n  lt\n  tag_47\n  jumpi\n  pop\n  jump(tag_46)\ntag_47:\n  0x1f\n  add\n  0x20\n  swap1\n  div\n  swap1\n  0x0\n  mstore\n  keccak256(0x0, 0x20)\n  swap1\n  dup2\n  add\n  swap1\n  tag_48\n  swap2\n  swap1\n  jump\t// in(tag_37)\ntag_48:\ntag_46:\n  pop\n  jump\t// out\ntag_12:\n  dataSize(sub_0)\n  dup1\n  dataOffset(sub_0)\n  0x0\n  codecopy\n  0x0\n  return\nstop\n\nsub_0: assembly {\n        /* \"contracts/Congress.sol\":303:5120  contract Congress is admined {... */\n      mstore(0x40, 0x80)\n      jumpi(tag_1, lt(calldatasize, 0x4))\n      calldataload(0x0)\n      0x100000000000000000000000000000000000000000000000000000000\n      swap1\n      div\n      0xffffffff\n      and\n      dup1\n      0x13cf08b\n      eq\n      tag_2\n      jumpi\n      dup1\n      0xb1ca49a\n      eq\n      tag_3\n      jumpi\n      dup1\n      0x237e9492\n      eq\n      tag_4\n      jumpi\n      dup1\n      0x39106821\n      eq\n      tag_5\n      jumpi\n      dup1\n      0x400e3949\n      eq\n      tag_6\n      jumpi\n      dup1\n      0x5daf08ca\n      eq\n      tag_7\n      jumpi\n      dup1\n      0x8160f0b5\n      eq\n      tag_8\n      jumpi\n      dup1\n      0xaa02a90f\n      eq\n      tag_9\n      jumpi\n      dup1\n      0xb1050da5\n      eq\n      tag_10\n      jumpi\n      dup1\n      0xbcca1fd3\n      eq\n      tag_11\n      jumpi\n      dup1\n      0xbfee24c2\n      eq\n      tag_12\n      jumpi\n      dup1\n      0xc127c247\n      eq\n      tag_13\n      jumpi\n      dup1\n      0xd3c0715b\n      eq\n      tag_14\n      jumpi\n      dup1\n      0xdb529e4e\n      eq\n      tag_15\n      jumpi\n      dup1\n      0xeceb2945\n      eq\n      tag_16\n      jumpi\n      dup1\n      0xf851a440\n      eq\n      tag_17\n      jumpi\n    tag_1:\n      stop\n        /* \"contracts/Congress.sol\":443:470  Proposal[] public proposals */\n    tag_2:\n      callvalue\n        /* \"--CODEGEN--\":8:17   */\n      dup1\n        /* \"--CODEGEN--\":5:7   */\n      iszero\n      tag_20\n      jumpi\n        /* \"--CODEGEN--\":30:31   */\n      0x0\n        /* \"--CODEGEN--\":27:28   */\n      dup1\n        /* \"--CODEGEN--\":20:32   */\n      revert\n        /* \"--CODEGEN--\":5:7   */\n    tag_20:\n        /* \"contracts/Congress.sol\":443:470  Proposal[] public proposals */\n      pop\n      tag_21\n      0x4\n      dup1\n      calldatasize\n      sub\n      dup2\n      add\n      swap1\n      dup1\n      dup1\n      calldataload\n      swap1\n      0x20\n      add\n      swap1\n      swap3\n      swap2\n      swap1\n      pop\n      pop\n      pop\n      jump(tag_22)\n    tag_21:\n      mload(0x40)\n      dup1\n      dup11\n      0xffffffffffffffffffffffffffffffffffffffff\n      and\n      0xffffffffffffffffffffffffffffffffffffffff\n      and\n      dup2\n      mstore\n      0x20\n      add\n      dup10\n      dup2\n      mstore\n      0x20\n      add\n      dup1\n      0x20\n      add\n      dup9\n      dup2\n      mstore\n      0x20\n      add\n      dup8\n      iszero\n      iszero\n      iszero\n      iszero\n      dup2\n      mstore\n      0x20\n      add\n      dup7\n      iszero\n      iszero\n      iszero\n      iszero\n      dup2\n      mstore\n      0x20\n      add\n      dup6\n      dup2\n      mstore\n      0x20\n      add\n      dup5\n      dup2\n      mstore\n      0x20\n      add\n      dup4\n      not(0x0)\n      and\n      not(0x0)\n      and\n      dup2\n      mstore\n      0x20\n      add\n      dup3\n      dup2\n      sub\n      dup3\n      mstore\n      dup10\n      dup2\n      dup2\n      mload\n      dup2\n      mstore\n      0x20\n      add\n      swap2\n      pop\n      dup1\n      mload\n      swap1\n      0x20\n      add\n      swap1\n      dup1\n      dup4\n      dup4\n        /* \"--CODEGEN--\":23:24   */\n      0x0\n        /* \"--CODEGEN--\":8:108   */\n    tag_23:\n        /* \"--CODEGEN--\":33:36   */\n      dup4\n        /* \"--CODEGEN--\":30:31   */\n      dup2\n        /* \"--CODEGEN--\":27:37   */\n      lt\n        /* \"--CODEGEN--\":8:108   */\n      iszero\n      tag_24\n      jumpi\n        /* \"--CODEGEN--\":99:100   */\n      dup1\n        /* \"--CODEGEN--\":94:97   */\n      dup3\n        /* \"--CODEGEN--\":90:101   */\n      add\n        /* \"--CODEGEN--\":84:102   */\n      mload\n        /* \"--CODEGEN--\":80:81   */\n      dup2\n        /* \"--CODEGEN--\":75:78   */\n      dup5\n        /* \"--CODEGEN--\":71:82   */\n      add\n        /* \"--CODEGEN--\":64:103   */\n      mstore\n        /* \"--CODEGEN--\":52:54   */\n      0x20\n        /* \"--CODEGEN--\":49:50   */\n      dup2\n        /* \"--CODEGEN--\":45:55   */\n      add\n        /* \"--CODEGEN--\":40:55   */\n      swap1\n      pop\n        /* \"--CODEGEN--\":8:108   */\n      jump(tag_23)\n    tag_24:\n        /* \"--CODEGEN--\":12:26   */\n      pop\n        /* \"contracts/Congress.sol\":443:470  Proposal[] public proposals */\n      pop\n      pop\n      pop\n      swap1\n      pop\n      swap1\n      dup2\n      add\n      swap1\n      0x1f\n      and\n      dup1\n      iszero\n      tag_26\n      jumpi\n      dup1\n      dup3\n      sub\n      dup1\n      mload\n      0x1\n      dup4\n      0x20\n      sub\n      0x100\n      exp\n      sub\n      not\n      and\n      dup2\n      mstore\n      0x20\n      add\n      swap2\n      pop\n    tag_26:\n      pop\n      swap11\n      pop\n      pop\n      pop\n      pop\n      pop\n      pop\n      pop\n      pop\n      pop\n      pop\n      pop\n      mload(0x40)\n      dup1\n      swap2\n      sub\n      swap1\n      return\n        /* \"contracts/Congress.sol\":2167:2475  function removeMember(address targetMember) onlyAdmin public {... */\n    tag_3:\n      callvalue\n        /* \"--CODEGEN--\":8:17   */\n      dup1\n        /* \"--CODEGEN--\":5:7   */\n      iszero\n      tag_27\n      jumpi\n        /* \"--CODEGEN--\":30:31   */\n      0x0\n        /* \"--CODEGEN--\":27:28   */\n      dup1\n        /* \"--CODEGEN--\":20:32   */\n      revert\n        /* \"--CODEGEN--\":5:7   */\n    tag_27:\n        /* \"contracts/Congress.sol\":2167:2475  function removeMember(address targetMember) onlyAdmin public {... */\n      pop\n      tag_28\n      0x4\n      dup1\n      calldatasize\n      sub\n      dup2\n      add\n      swap1\n      dup1\n      dup1\n      calldataload\n      0xffffffffffffffffffffffffffffffffffffffff\n      and\n      swap1\n      0x20\n      add\n      swap1\n      swap3\n      swap2\n      swap1\n      pop\n      pop\n      pop\n      jump(tag_29)\n    tag_28:\n      stop\n        /* \"contracts/Congress.sol\":4488:5076  function executeProposal(uint proposalNumber, bytes transactionBytecode) public {... */\n    tag_4:\n      callvalue\n        /* \"--CODEGEN--\":8:17   */\n      dup1\n        /* \"--CODEGEN--\":5:7   */\n      iszero\n      tag_30\n      jumpi\n        /* \"--CODEGEN--\":30:31   */\n      0x0\n        /* \"--CODEGEN--\":27:28   */\n      dup1\n        /* \"--CODEGEN--\":20:32   */\n      revert\n        /* \"--CODEGEN--\":5:7   */\n    tag_30:\n        /* \"contracts/Congress.sol\":4488:5076  function executeProposal(uint proposalNumber, bytes transactionBytecode) public {... */\n      pop\n      tag_31\n      0x4\n      dup1\n      calldatasize\n      sub\n      dup2\n      add\n      swap1\n      dup1\n      dup1\n      calldataload\n      swap1\n      0x20\n      add\n      swap1\n      swap3\n      swap2\n      swap1\n      dup1\n      calldataload\n      swap1\n      0x20\n      add\n      swap1\n      dup3\n      add\n      dup1\n      calldataload\n      swap1\n      0x20\n      add\n      swap1\n      dup1\n      dup1\n      0x1f\n      add\n      0x20\n      dup1\n      swap2\n      div\n      mul\n      0x20\n      add\n      mload(0x40)\n      swap1\n      dup2\n      add\n      0x40\n      mstore\n      dup1\n      swap4\n      swap3\n      swap2\n      swap1\n      dup2\n      dup2\n      mstore\n      0x20\n      add\n      dup4\n      dup4\n      dup1\n      dup3\n      dup5\n      calldatacopy\n      dup3\n      add\n      swap2\n      pop\n      pop\n      pop\n      pop\n      pop\n      pop\n      swap2\n      swap3\n      swap2\n      swap3\n      swap1\n      pop\n      pop\n      pop\n      jump(tag_32)\n    tag_31:\n      stop\n        /* \"contracts/Congress.sol\":506:547  mapping (address => uint) public memberId */\n    tag_5:\n      callvalue\n        /* \"--CODEGEN--\":8:17   */\n      dup1\n        /* \"--CODEGEN--\":5:7   */\n      iszero\n      tag_33\n      jumpi\n        /* \"--CODEGEN--\":30:31   */\n      0x0\n        /* \"--CODEGEN--\":27:28   */\n      dup1\n        /* \"--CODEGEN--\":20:32   */\n      revert\n        /* \"--CODEGEN--\":5:7   */\n    tag_33:\n        /* \"contracts/Congress.sol\":506:547  mapping (address => uint) public memberId */\n      pop\n      tag_34\n      0x4\n      dup1\n      calldatasize\n      sub\n      dup2\n      add\n      swap1\n      dup1\n      dup1\n      calldataload\n      0xffffffffffffffffffffffffffffffffffffffff\n      and\n      swap1\n      0x20\n      add\n      swap1\n      swap3\n      swap2\n      swap1\n      pop\n      pop\n      pop\n      jump(tag_35)\n    tag_34:\n      mload(0x40)\n      dup1\n      dup3\n      dup2\n      mstore\n      0x20\n      add\n      swap2\n      pop\n      pop\n      mload(0x40)\n      dup1\n      swap2\n      sub\n      swap1\n      return\n        /* \"contracts/Congress.sol\":476:500  uint public numProposals */\n    tag_6:\n      callvalue\n        /* \"--CODEGEN--\":8:17   */\n      dup1\n        /* \"--CODEGEN--\":5:7   */\n      iszero\n      tag_36\n      jumpi\n        /* \"--CODEGEN--\":30:31   */\n      0x0\n        /* \"--CODEGEN--\":27:28   */\n      dup1\n        /* \"--CODEGEN--\":20:32   */\n      revert\n        /* \"--CODEGEN--\":5:7   */\n    tag_36:\n        /* \"contracts/Congress.sol\":476:500  uint public numProposals */\n      pop\n      tag_37\n      jump(tag_38)\n    tag_37:\n      mload(0x40)\n      dup1\n      dup3\n      dup2\n      mstore\n      0x20\n      add\n      swap2\n      pop\n      pop\n      mload(0x40)\n      dup1\n      swap2\n      sub\n      swap1\n      return\n        /* \"contracts/Congress.sol\":553:576  Member[] public members */\n    tag_7:\n      callvalue\n        /* \"--CODEGEN--\":8:17   */\n      dup1\n        /* \"--CODEGEN--\":5:7   */\n      iszero\n      tag_39\n      jumpi\n        /* \"--CODEGEN--\":30:31   */\n      0x0\n        /* \"--CODEGEN--\":27:28   */\n      dup1\n        /* \"--CODEGEN--\":20:32   */\n      revert\n        /* \"--CODEGEN--\":5:7   */\n    tag_39:\n        /* \"contracts/Congress.sol\":553:576  Member[] public members */\n      pop\n      tag_40\n      0x4\n      dup1\n      calldatasize\n      sub\n      dup2\n      add\n      swap1\n      dup1\n      dup1\n      calldataload\n      swap1\n      0x20\n      add\n      swap1\n      swap3\n      swap2\n      swap1\n      pop\n      pop\n      pop\n      jump(tag_41)\n    tag_40:\n      mload(0x40)\n      dup1\n      dup5\n      0xffffffffffffffffffffffffffffffffffffffff\n      and\n      0xffffffffffffffffffffffffffffffffffffffff\n      and\n      dup2\n      mstore\n      0x20\n      add\n      dup1\n      0x20\n      add\n      dup4\n      dup2\n      mstore\n      0x20\n      add\n      dup3\n      dup2\n      sub\n      dup3\n      mstore\n      dup5\n      dup2\n      dup2\n      mload\n      dup2\n      mstore\n      0x20\n      add\n      swap2\n      pop\n      dup1\n      mload\n      swap1\n      0x20\n      add\n      swap1\n      dup1\n      dup4\n      dup4\n        /* \"--CODEGEN--\":23:24   */\n      0x0\n        /* \"--CODEGEN--\":8:108   */\n    tag_42:\n        /* \"--CODEGEN--\":33:36   */\n      dup4\n        /* \"--CODEGEN--\":30:31   */\n      dup2\n        /* \"--CODEGEN--\":27:37   */\n      lt\n        /* \"--CODEGEN--\":8:108   */\n      iszero\n      tag_43\n      jumpi\n        /* \"--CODEGEN--\":99:100   */\n      dup1\n        /* \"--CODEGEN--\":94:97   */\n      dup3\n        /* \"--CODEGEN--\":90:101   */\n      add\n        /* \"--CODEGEN--\":84:102   */\n      mload\n        /* \"--CODEGEN--\":80:81   */\n      dup2\n        /* \"--CODEGEN--\":75:78   */\n      dup5\n        /* \"--CODEGEN--\":71:82   */\n      add\n        /* \"--CODEGEN--\":64:103   */\n      mstore\n        /* \"--CODEGEN--\":52:54   */\n      0x20\n        /* \"--CODEGEN--\":49:50   */\n      dup2\n        /* \"--CODEGEN--\":45:55   */\n      add\n        /* \"--CODEGEN--\":40:55   */\n      swap1\n      pop\n        /* \"--CODEGEN--\":8:108   */\n      jump(tag_42)\n    tag_43:\n        /* \"--CODEGEN--\":12:26   */\n      pop\n        /* \"contracts/Congress.sol\":553:576  Member[] public members */\n      pop\n      pop\n      pop\n      swap1\n      pop\n      swap1\n      dup2\n      add\n      swap1\n      0x1f\n      and\n      dup1\n      iszero\n      tag_45\n      jumpi\n      dup1\n      dup3\n      sub\n      dup1\n      mload\n      0x1\n      dup4\n      0x20\n      sub\n      0x100\n      exp\n      sub\n      not\n      and\n      dup2\n      mstore\n      0x20\n      add\n      swap2\n      pop\n    tag_45:\n      pop\n      swap5\n      pop\n      pop\n      pop\n      pop\n      pop\n      mload(0x40)\n      dup1\n      swap2\n      sub\n      swap1\n      return\n        /* \"contracts/Congress.sol\":339:364  uint public minimumQuorum */\n    tag_8:\n      callvalue\n        /* \"--CODEGEN--\":8:17   */\n      dup1\n        /* \"--CODEGEN--\":5:7   */\n      iszero\n      tag_46\n      jumpi\n        /* \"--CODEGEN--\":30:31   */\n      0x0\n        /* \"--CODEGEN--\":27:28   */\n      dup1\n        /* \"--CODEGEN--\":20:32   */\n      revert\n        /* \"--CODEGEN--\":5:7   */\n    tag_46:\n        /* \"contracts/Congress.sol\":339:364  uint public minimumQuorum */\n      pop\n      tag_47\n      jump(tag_48)\n    tag_47:\n      mload(0x40)\n      dup1\n      dup3\n      dup2\n      mstore\n      0x20\n      add\n      swap2\n      pop\n      pop\n      mload(0x40)\n      dup1\n      swap2\n      sub\n      swap1\n      return\n        /* \"contracts/Congress.sol\":412:437  int public majorityMargin */\n    tag_9:\n      callvalue\n        /* \"--CODEGEN--\":8:17   */\n      dup1\n        /* \"--CODEGEN--\":5:7   */\n      iszero\n      tag_49\n      jumpi\n        /* \"--CODEGEN--\":30:31   */\n      0x0\n        /* \"--CODEGEN--\":27:28   */\n      dup1\n        /* \"--CODEGEN--\":20:32   */\n      revert\n        /* \"--CODEGEN--\":5:7   */\n    tag_49:\n        /* \"contracts/Congress.sol\":412:437  int public majorityMargin */\n      pop\n      tag_50\n      jump(tag_51)\n    tag_50:\n      mload(0x40)\n      dup1\n      dup3\n      dup2\n      mstore\n      0x20\n      add\n      swap2\n      pop\n      pop\n      mload(0x40)\n      dup1\n      swap2\n      sub\n      swap1\n      return\n        /* \"contracts/Congress.sol\":2865:3607  function newProposal(... */\n    tag_10:\n      callvalue\n        /* \"--CODEGEN--\":8:17   */\n      dup1\n        /* \"--CODEGEN--\":5:7   */\n      iszero\n      tag_52\n      jumpi\n        /* \"--CODEGEN--\":30:31   */\n      0x0\n        /* \"--CODEGEN--\":27:28   */\n      dup1\n        /* \"--CODEGEN--\":20:32   */\n      revert\n        /* \"--CODEGEN--\":5:7   */\n    tag_52:\n        /* \"contracts/Congress.sol\":2865:3607  function newProposal(... */\n      pop\n      tag_53\n      0x4\n      dup1\n      calldatasize\n      sub\n      dup2\n      add\n      swap1\n      dup1\n      dup1\n      calldataload\n      0xffffffffffffffffffffffffffffffffffffffff\n      and\n      swap1\n      0x20\n      add\n      swap1\n      swap3\n      swap2\n      swap1\n      dup1\n      calldataload\n      swap1\n      0x20\n      add\n      swap1\n      swap3\n      swap2\n      swap1\n      dup1\n      calldataload\n      swap1\n      0x20\n      add\n      swap1\n      dup3\n      add\n      dup1\n      calldataload\n      swap1\n      0x20\n      add\n      swap1\n      dup1\n      dup1\n      0x1f\n      add\n      0x20\n      dup1\n      swap2\n      div\n      mul\n      0x20\n      add\n      mload(0x40)\n      swap1\n      dup2\n      add\n      0x40\n      mstore\n      dup1\n      swap4\n      swap3\n      swap2\n      swap1\n      dup2\n      dup2\n      mstore\n      0x20\n      add\n      dup4\n      dup4\n      dup1\n      dup3\n      dup5\n      calldatacopy\n      dup3\n      add\n      swap2\n      pop\n      pop\n      pop\n      pop\n      pop\n      pop\n      swap2\n      swap3\n      swap2\n      swap3\n      swap1\n      dup1\n      calldataload\n      swap1\n      0x20\n      add\n      swap1\n      dup3\n      add\n      dup1\n      calldataload\n      swap1\n      0x20\n      add\n      swap1\n      dup1\n      dup1\n      0x1f\n      add\n      0x20\n      dup1\n      swap2\n      div\n      mul\n      0x20\n      add\n      mload(0x40)\n      swap1\n      dup2\n      add\n      0x40\n      mstore\n      dup1\n      swap4\n      swap3\n      swap2\n      swap1\n      dup2\n      dup2\n      mstore\n      0x20\n      add\n      dup4\n      dup4\n      dup1\n      dup3\n      dup5\n      calldatacopy\n      dup3\n      add\n      swap2\n      pop\n      pop\n      pop\n      pop\n      pop\n      pop\n      swap2\n      swap3\n      swap2\n      swap3\n      swap1\n      pop\n      pop\n      pop\n      jump(tag_54)\n    tag_53:\n      mload(0x40)\n      dup1\n      dup3\n      dup2\n      mstore\n      0x20\n      add\n      swap2\n      pop\n      pop\n      mload(0x40)\n      dup1\n      swap2\n      sub\n      swap1\n      return\n        /* \"contracts/Congress.sol\":2502:2815  function changeVotingRules(... */\n    tag_11:\n      callvalue\n        /* \"--CODEGEN--\":8:17   */\n      dup1\n        /* \"--CODEGEN--\":5:7   */\n      iszero\n      tag_55\n      jumpi\n        /* \"--CODEGEN--\":30:31   */\n      0x0\n        /* \"--CODEGEN--\":27:28   */\n      dup1\n        /* \"--CODEGEN--\":20:32   */\n      revert\n        /* \"--CODEGEN--\":5:7   */\n    tag_55:\n        /* \"contracts/Congress.sol\":2502:2815  function changeVotingRules(... */\n      pop\n      tag_56\n      0x4\n      dup1\n      calldatasize\n      sub\n      dup2\n      add\n      swap1\n      dup1\n      dup1\n      calldataload\n      swap1\n      0x20\n      add\n      swap1\n      swap3\n      swap2\n      swap1\n      dup1\n      calldataload\n      swap1\n      0x20\n      add\n      swap1\n      swap3\n      swap2\n      swap1\n      dup1\n      calldataload\n      swap1\n      0x20\n      add\n      swap1\n      swap3\n      swap2\n      swap1\n      pop\n      pop\n      pop\n      jump(tag_57)\n    tag_56:\n      stop\n        /* \"contracts/Congress.sol\":370:406  uint public debatingPreriodInMinutes */\n    tag_12:\n      callvalue\n        /* \"--CODEGEN--\":8:17   */\n      dup1\n        /* \"--CODEGEN--\":5:7   */\n      iszero\n      tag_58\n      jumpi\n        /* \"--CODEGEN--\":30:31   */\n      0x0\n        /* \"--CODEGEN--\":27:28   */\n      dup1\n        /* \"--CODEGEN--\":20:32   */\n      revert\n        /* \"--CODEGEN--\":5:7   */\n    tag_58:\n        /* \"contracts/Congress.sol\":370:406  uint public debatingPreriodInMinutes */\n      pop\n      tag_59\n      jump(tag_60)\n    tag_59:\n      mload(0x40)\n      dup1\n      dup3\n      dup2\n      mstore\n      0x20\n      add\n      swap2\n      pop\n      pop\n      mload(0x40)\n      dup1\n      swap2\n      sub\n      swap1\n      return\n        /* \"contracts/Congress.sol\":1685:2161  function addMember(address targetMember, string memberName) onlyAdmin public {... */\n    tag_13:\n      callvalue\n        /* \"--CODEGEN--\":8:17   */\n      dup1\n        /* \"--CODEGEN--\":5:7   */\n      iszero\n      tag_61\n      jumpi\n        /* \"--CODEGEN--\":30:31   */\n      0x0\n        /* \"--CODEGEN--\":27:28   */\n      dup1\n        /* \"--CODEGEN--\":20:32   */\n      revert\n        /* \"--CODEGEN--\":5:7   */\n    tag_61:\n        /* \"contracts/Congress.sol\":1685:2161  function addMember(address targetMember, string memberName) onlyAdmin public {... */\n      pop\n      tag_62\n      0x4\n      dup1\n      calldatasize\n      sub\n      dup2\n      add\n      swap1\n      dup1\n      dup1\n      calldataload\n      0xffffffffffffffffffffffffffffffffffffffff\n      and\n      swap1\n      0x20\n      add\n      swap1\n      swap3\n      swap2\n      swap1\n      dup1\n      calldataload\n      swap1\n      0x20\n      add\n      swap1\n      dup3\n      add\n      dup1\n      calldataload\n      swap1\n      0x20\n      add\n      swap1\n      dup1\n      dup1\n      0x1f\n      add\n      0x20\n      dup1\n      swap2\n      div\n      mul\n      0x20\n      add\n      mload(0x40)\n      swap1\n      dup2\n      add\n      0x40\n      mstore\n      dup1\n      swap4\n      swap3\n      swap2\n      swap1\n      dup2\n      dup2\n      mstore\n      0x20\n      add\n      dup4\n      dup4\n      dup1\n      dup3\n      dup5\n      calldatacopy\n      dup3\n      add\n      swap2\n      pop\n      pop\n      pop\n      pop\n      pop\n      pop\n      swap2\n      swap3\n      swap2\n      swap3\n      swap1\n      pop\n      pop\n      pop\n      jump(tag_63)\n    tag_62:\n      stop\n        /* \"contracts/Congress.sol\":4018:4482  function vote(... */\n    tag_14:\n      callvalue\n        /* \"--CODEGEN--\":8:17   */\n      dup1\n        /* \"--CODEGEN--\":5:7   */\n      iszero\n      tag_64\n      jumpi\n        /* \"--CODEGEN--\":30:31   */\n      0x0\n        /* \"--CODEGEN--\":27:28   */\n      dup1\n        /* \"--CODEGEN--\":20:32   */\n      revert\n        /* \"--CODEGEN--\":5:7   */\n    tag_64:\n        /* \"contracts/Congress.sol\":4018:4482  function vote(... */\n      pop\n      tag_65\n      0x4\n      dup1\n      calldatasize\n      sub\n      dup2\n      add\n      swap1\n      dup1\n      dup1\n      calldataload\n      swap1\n      0x20\n      add\n      swap1\n      swap3\n      swap2\n      swap1\n      dup1\n      calldataload\n      iszero\n      iszero\n      swap1\n      0x20\n      add\n      swap1\n      swap3\n      swap2\n      swap1\n      dup1\n      calldataload\n      swap1\n      0x20\n      add\n      swap1\n      dup3\n      add\n      dup1\n      calldataload\n      swap1\n      0x20\n      add\n      swap1\n      dup1\n      dup1\n      0x1f\n      add\n      0x20\n      dup1\n      swap2\n      div\n      mul\n      0x20\n      add\n      mload(0x40)\n      swap1\n      dup2\n      add\n      0x40\n      mstore\n      dup1\n      swap4\n      swap3\n      swap2\n      swap1\n      dup2\n      dup2\n      mstore\n      0x20\n      add\n      dup4\n      dup4\n      dup1\n      dup3\n      dup5\n      calldatacopy\n      dup3\n      add\n      swap2\n      pop\n      pop\n      pop\n      pop\n      pop\n      pop\n      swap2\n      swap3\n      swap2\n      swap3\n      swap1\n      pop\n      pop\n      pop\n      jump(tag_66)\n    tag_65:\n      mload(0x40)\n      dup1\n      dup3\n      dup2\n      mstore\n      0x20\n      add\n      swap2\n      pop\n      pop\n      mload(0x40)\n      dup1\n      swap2\n      sub\n      swap1\n      return\n        /* \"contracts/Congress.sol\":221:298  function transerAdminship(address newAdmin) {... */\n    tag_15:\n      callvalue\n        /* \"--CODEGEN--\":8:17   */\n      dup1\n        /* \"--CODEGEN--\":5:7   */\n      iszero\n      tag_67\n      jumpi\n        /* \"--CODEGEN--\":30:31   */\n      0x0\n        /* \"--CODEGEN--\":27:28   */\n      dup1\n        /* \"--CODEGEN--\":20:32   */\n      revert\n        /* \"--CODEGEN--\":5:7   */\n    tag_67:\n        /* \"contracts/Congress.sol\":221:298  function transerAdminship(address newAdmin) {... */\n      pop\n      tag_68\n      0x4\n      dup1\n      calldatasize\n      sub\n      dup2\n      add\n      swap1\n      dup1\n      dup1\n      calldataload\n      0xffffffffffffffffffffffffffffffffffffffff\n      and\n      swap1\n      0x20\n      add\n      swap1\n      swap3\n      swap2\n      swap1\n      pop\n      pop\n      pop\n      jump(tag_69)\n    tag_68:\n      stop\n        /* \"contracts/Congress.sol\":3668:4012  function checkProposalCode(... */\n    tag_16:\n      callvalue\n        /* \"--CODEGEN--\":8:17   */\n      dup1\n        /* \"--CODEGEN--\":5:7   */\n      iszero\n      tag_70\n      jumpi\n        /* \"--CODEGEN--\":30:31   */\n      0x0\n        /* \"--CODEGEN--\":27:28   */\n      dup1\n        /* \"--CODEGEN--\":20:32   */\n      revert\n        /* \"--CODEGEN--\":5:7   */\n    tag_70:\n        /* \"contracts/Congress.sol\":3668:4012  function checkProposalCode(... */\n      pop\n      tag_71\n      0x4\n      dup1\n      calldatasize\n      sub\n      dup2\n      add\n      swap1\n      dup1\n      dup1\n      calldataload\n      swap1\n      0x20\n      add\n      swap1\n      swap3\n      swap2\n      swap1\n      dup1\n      calldataload\n      0xffffffffffffffffffffffffffffffffffffffff\n      and\n      swap1\n      0x20\n      add\n      swap1\n      swap3\n      swap2\n      swap1\n      dup1\n      calldataload\n      swap1\n      0x20\n      add\n      swap1\n      swap3\n      swap2\n      swap1\n      dup1\n      calldataload\n      swap1\n      0x20\n      add\n      swap1\n      dup3\n      add\n      dup1\n      calldataload\n      swap1\n      0x20\n      add\n      swap1\n      dup1\n      dup1\n      0x1f\n      add\n      0x20\n      dup1\n      swap2\n      div\n      mul\n      0x20\n      add\n      mload(0x40)\n      swap1\n      dup2\n      add\n      0x40\n      mstore\n      dup1\n      swap4\n      swap3\n      swap2\n      swap1\n      dup2\n      dup2\n      mstore\n      0x20\n      add\n      dup4\n      dup4\n      dup1\n      dup3\n      dup5\n      calldatacopy\n      dup3\n      add\n      swap2\n      pop\n      pop\n      pop\n      pop\n      pop\n      pop\n      swap2\n      swap3\n      swap2\n      swap3\n      swap1\n      pop\n      pop\n      pop\n      jump(tag_72)\n    tag_71:\n      mload(0x40)\n      dup1\n      dup3\n      iszero\n      iszero\n      iszero\n      iszero\n      dup2\n      mstore\n      0x20\n      add\n      swap2\n      pop\n      pop\n      mload(0x40)\n      dup1\n      swap2\n      sub\n      swap1\n      return\n        /* \"contracts/Congress.sol\":49:69  address public admin */\n    tag_17:\n      callvalue\n        /* \"--CODEGEN--\":8:17   */\n      dup1\n        /* \"--CODEGEN--\":5:7   */\n      iszero\n      tag_73\n      jumpi\n        /* \"--CODEGEN--\":30:31   */\n      0x0\n        /* \"--CODEGEN--\":27:28   */\n      dup1\n        /* \"--CODEGEN--\":20:32   */\n      revert\n        /* \"--CODEGEN--\":5:7   */\n    tag_73:\n        /* \"contracts/Congress.sol\":49:69  address public admin */\n      pop\n      tag_74\n      jump(tag_75)\n    tag_74:\n      mload(0x40)\n      dup1\n      dup3\n      0xffffffffffffffffffffffffffffffffffffffff\n      and\n      0xffffffffffffffffffffffffffffffffffffffff\n      and\n      dup2\n      mstore\n      0x20\n      add\n      swap2\n      pop\n      pop\n      mload(0x40)\n      dup1\n      swap2\n      sub\n      swap1\n      return\n        /* \"contracts/Congress.sol\":443:470  Proposal[] public proposals */\n    tag_22:\n      0x4\n      dup2\n      dup2\n      sload\n      dup2\n      lt\n      iszero\n      iszero\n      tag_76\n      jumpi\n      invalid\n    tag_76:\n      swap1\n      0x0\n      mstore\n      keccak256(0x0, 0x20)\n      swap1\n      0xa\n      mul\n      add\n      0x0\n      swap2\n      pop\n      swap1\n      pop\n      dup1\n      0x0\n      add\n      0x0\n      swap1\n      sload\n      swap1\n      0x100\n      exp\n      swap1\n      div\n      0xffffffffffffffffffffffffffffffffffffffff\n      and\n      swap1\n      dup1\n      0x1\n      add\n      sload\n      swap1\n      dup1\n      0x2\n      add\n      dup1\n      sload\n      0x1\n      dup2\n      0x1\n      and\n      iszero\n      0x100\n      mul\n      sub\n      and\n      0x2\n      swap1\n      div\n      dup1\n      0x1f\n      add\n      0x20\n      dup1\n      swap2\n      div\n      mul\n      0x20\n      add\n      mload(0x40)\n      swap1\n      dup2\n      add\n      0x40\n      mstore\n      dup1\n      swap3\n      swap2\n      swap1\n      dup2\n      dup2\n      mstore\n      0x20\n      add\n      dup3\n      dup1\n      sload\n      0x1\n      dup2\n      0x1\n      and\n      iszero\n      0x100\n      mul\n      sub\n      and\n      0x2\n      swap1\n      div\n      dup1\n      iszero\n      tag_78\n      jumpi\n      dup1\n      0x1f\n      lt\n      tag_79\n      jumpi\n      0x100\n      dup1\n      dup4\n      sload\n      div\n      mul\n      dup4\n      mstore\n      swap2\n      0x20\n      add\n      swap2\n      jump(tag_78)\n    tag_79:\n      dup3\n      add\n      swap2\n      swap1\n      0x0\n      mstore\n      keccak256(0x0, 0x20)\n      swap1\n    tag_80:\n      dup2\n      sload\n      dup2\n      mstore\n      swap1\n      0x1\n      add\n      swap1\n      0x20\n      add\n      dup1\n      dup4\n      gt\n      tag_80\n      jumpi\n      dup3\n      swap1\n      sub\n      0x1f\n      and\n      dup3\n      add\n      swap2\n    tag_78:\n      pop\n      pop\n      pop\n      pop\n      pop\n      swap1\n      dup1\n      0x3\n      add\n      sload\n      swap1\n      dup1\n      0x4\n      add\n      0x0\n      swap1\n      sload\n      swap1\n      0x100\n      exp\n      swap1\n      div\n      0xff\n      and\n      swap1\n      dup1\n      0x4\n      add\n      0x1\n      swap1\n      sload\n      swap1\n      0x100\n      exp\n      swap1\n      div\n      0xff\n      and\n      swap1\n      dup1\n      0x5\n      add\n      sload\n      swap1\n      dup1\n      0x6\n      add\n      sload\n      swap1\n      dup1\n      0x7\n      add\n      sload\n      swap1\n      pop\n      dup10\n      jump\t// out\n        /* \"contracts/Congress.sol\":2167:2475  function removeMember(address targetMember) onlyAdmin public {... */\n    tag_29:\n        /* \"contracts/Congress.sol\":2289:2295  uint i */\n      0x0\n        /* \"contracts/Congress.sol\":191:196  admin */\n      dup1\n      0x0\n      swap1\n      sload\n      swap1\n      0x100\n      exp\n      swap1\n      div\n      0xffffffffffffffffffffffffffffffffffffffff\n      and\n        /* \"contracts/Congress.sol\":177:196  msg.sender != admin */\n      0xffffffffffffffffffffffffffffffffffffffff\n      and\n        /* \"contracts/Congress.sol\":177:187  msg.sender */\n      caller\n        /* \"contracts/Congress.sol\":177:196  msg.sender != admin */\n      0xffffffffffffffffffffffffffffffffffffffff\n      and\n      eq\n      iszero\n        /* \"contracts/Congress.sol\":168:197  require (msg.sender != admin) */\n      iszero\n      iszero\n      tag_82\n      jumpi\n      0x0\n      dup1\n      revert\n    tag_82:\n        /* \"contracts/Congress.sol\":2267:2268  0 */\n      0x0\n        /* \"contracts/Congress.sol\":2241:2249  memberId */\n      0x6\n        /* \"contracts/Congress.sol\":2241:2263  memberId[targetMember] */\n      0x0\n        /* \"contracts/Congress.sol\":2250:2262  targetMember */\n      dup5\n        /* \"contracts/Congress.sol\":2241:2263  memberId[targetMember] */\n      0xffffffffffffffffffffffffffffffffffffffff\n      and\n      0xffffffffffffffffffffffffffffffffffffffff\n      and\n      dup2\n      mstore\n      0x20\n      add\n      swap1\n      dup2\n      mstore\n      0x20\n      add\n      0x0\n      keccak256\n      sload\n        /* \"contracts/Congress.sol\":2241:2268  memberId[targetMember] == 0 */\n      eq\n        /* \"contracts/Congress.sol\":2238:2275  if(memberId[targetMember] == 0) throw */\n      iszero\n      tag_84\n      jumpi\n        /* \"contracts/Congress.sol\":2270:2275  throw */\n      0x0\n      dup1\n      revert\n        /* \"contracts/Congress.sol\":2238:2275  if(memberId[targetMember] == 0) throw */\n    tag_84:\n        /* \"contracts/Congress.sol\":2298:2306  memberId */\n      0x6\n        /* \"contracts/Congress.sol\":2298:2320  memberId[targetMember] */\n      0x0\n        /* \"contracts/Congress.sol\":2307:2319  targetMember */\n      dup4\n        /* \"contracts/Congress.sol\":2298:2320  memberId[targetMember] */\n      0xffffffffffffffffffffffffffffffffffffffff\n      and\n      0xffffffffffffffffffffffffffffffffffffffff\n      and\n      dup2\n      mstore\n      0x20\n      add\n      swap1\n      dup2\n      mstore\n      0x20\n      add\n      0x0\n      keccak256\n      sload\n        /* \"contracts/Congress.sol\":2289:2320  uint i = memberId[targetMember] */\n      swap1\n      pop\n        /* \"contracts/Congress.sol\":2285:2401  for(uint i = memberId[targetMember]; i < members.length-1; i++) {... */\n    tag_85:\n        /* \"contracts/Congress.sol\":2341:2342  1 */\n      0x1\n        /* \"contracts/Congress.sol\":2326:2333  members */\n      0x7\n        /* \"contracts/Congress.sol\":2326:2340  members.length */\n      dup1\n      sload\n      swap1\n      pop\n        /* \"contracts/Congress.sol\":2326:2342  members.length-1 */\n      sub\n        /* \"contracts/Congress.sol\":2322:2323  i */\n      dup2\n        /* \"contracts/Congress.sol\":2322:2342  i < members.length-1 */\n      lt\n        /* \"contracts/Congress.sol\":2285:2401  for(uint i = memberId[targetMember]; i < members.length-1; i++) {... */\n      iszero\n      tag_86\n      jumpi\n        /* \"contracts/Congress.sol\":2376:2383  members */\n      0x7\n        /* \"contracts/Congress.sol\":2388:2389  1 */\n      0x1\n        /* \"contracts/Congress.sol\":2384:2385  i */\n      dup3\n        /* \"contracts/Congress.sol\":2384:2389  i + 1 */\n      add\n        /* \"contracts/Congress.sol\":2376:2390  members[i + 1] */\n      dup2\n      sload\n      dup2\n      lt\n      iszero\n      iszero\n      tag_88\n      jumpi\n      invalid\n    tag_88:\n      swap1\n      0x0\n      mstore\n      keccak256(0x0, 0x20)\n      swap1\n      0x3\n      mul\n      add\n        /* \"contracts/Congress.sol\":2363:2370  members */\n      0x7\n        /* \"contracts/Congress.sol\":2371:2372  i */\n      dup3\n        /* \"contracts/Congress.sol\":2363:2373  members[i] */\n      dup2\n      sload\n      dup2\n      lt\n      iszero\n      iszero\n      tag_90\n      jumpi\n      invalid\n    tag_90:\n      swap1\n      0x0\n      mstore\n      keccak256(0x0, 0x20)\n      swap1\n      0x3\n      mul\n      add\n        /* \"contracts/Congress.sol\":2363:2390  members[i] = members[i + 1] */\n      0x0\n      dup3\n      add\n      0x0\n      swap1\n      sload\n      swap1\n      0x100\n      exp\n      swap1\n      div\n      0xffffffffffffffffffffffffffffffffffffffff\n      and\n      dup2\n      0x0\n      add\n      exp(0x100, 0x0)\n      dup2\n      sload\n      dup2\n      0xffffffffffffffffffffffffffffffffffffffff\n      mul\n      not\n      and\n      swap1\n      dup4\n      0xffffffffffffffffffffffffffffffffffffffff\n      and\n      mul\n      or\n      swap1\n      sstore\n      pop\n      0x1\n      dup3\n      add\n      dup2\n      0x1\n      add\n      swap1\n      dup1\n      sload\n      0x1\n      dup2\n      0x1\n      and\n      iszero\n      0x100\n      mul\n      sub\n      and\n      0x2\n      swap1\n      div\n      tag_92\n      swap3\n      swap2\n      swap1\n      jump\t// in(tag_93)\n    tag_92:\n      pop\n      0x2\n      dup3\n      add\n      sload\n      dup2\n      0x2\n      add\n      sstore\n      swap1\n      pop\n      pop\n        /* \"contracts/Congress.sol\":2344:2347  i++ */\n      dup1\n      dup1\n      0x1\n      add\n      swap2\n      pop\n      pop\n        /* \"contracts/Congress.sol\":2285:2401  for(uint i = memberId[targetMember]; i < members.length-1; i++) {... */\n      jump(tag_85)\n    tag_86:\n        /* \"contracts/Congress.sol\":2417:2424  members */\n      0x7\n        /* \"contracts/Congress.sol\":2440:2441  1 */\n      0x1\n        /* \"contracts/Congress.sol\":2425:2432  members */\n      0x7\n        /* \"contracts/Congress.sol\":2425:2439  members.length */\n      dup1\n      sload\n      swap1\n      pop\n        /* \"contracts/Congress.sol\":2425:2441  members.length-1 */\n      sub\n        /* \"contracts/Congress.sol\":2417:2442  members[members.length-1] */\n      dup2\n      sload\n      dup2\n      lt\n      iszero\n      iszero\n      tag_94\n      jumpi\n      invalid\n    tag_94:\n      swap1\n      0x0\n      mstore\n      keccak256(0x0, 0x20)\n      swap1\n      0x3\n      mul\n      add\n      0x0\n        /* \"contracts/Congress.sol\":2410:2442  delete members[members.length-1] */\n      dup1\n      dup3\n      add\n      exp(0x100, 0x0)\n      dup2\n      sload\n      swap1\n      0xffffffffffffffffffffffffffffffffffffffff\n      mul\n      not\n      and\n      swap1\n      sstore\n      0x1\n      dup3\n      add\n      0x0\n      tag_96\n      swap2\n      swap1\n      jump\t// in(tag_97)\n    tag_96:\n      0x2\n      dup3\n      add\n      0x0\n      swap1\n      sstore\n      pop\n      pop\n        /* \"contracts/Congress.sol\":2452:2459  members */\n      0x7\n        /* \"contracts/Congress.sol\":2452:2468  members.length-- */\n      dup1\n      sload\n      dup1\n      swap2\n      swap1\n      0x1\n      swap1\n      sub\n      tag_98\n      swap2\n      swap1\n      jump\t// in(tag_99)\n    tag_98:\n      pop\n        /* \"contracts/Congress.sol\":2167:2475  function removeMember(address targetMember) onlyAdmin public {... */\n      pop\n      pop\n      jump\t// out\n        /* \"contracts/Congress.sol\":4488:5076  function executeProposal(uint proposalNumber, bytes transactionBytecode) public {... */\n    tag_32:\n        /* \"contracts/Congress.sol\":4578:4588  Proposal p */\n      0x0\n        /* \"contracts/Congress.sol\":4591:4600  proposals */\n      0x4\n        /* \"contracts/Congress.sol\":4601:4615  proposalNumber */\n      dup4\n        /* \"contracts/Congress.sol\":4591:4616  proposals[proposalNumber] */\n      dup2\n      sload\n      dup2\n      lt\n      iszero\n      iszero\n      tag_101\n      jumpi\n      invalid\n    tag_101:\n      swap1\n      0x0\n      mstore\n      keccak256(0x0, 0x20)\n      swap1\n      0xa\n      mul\n      add\n        /* \"contracts/Congress.sol\":4578:4616  Proposal p = proposals[proposalNumber] */\n      swap1\n      pop\n        /* \"contracts/Congress.sol\":4636:4637  p */\n      dup1\n        /* \"contracts/Congress.sol\":4636:4652  p.votingDeadline */\n      0x3\n      add\n      sload\n        /* \"contracts/Congress.sol\":4630:4633  now */\n      timestamp\n        /* \"contracts/Congress.sol\":4630:4652  now < p.votingDeadline */\n      lt\n        /* \"contracts/Congress.sol\":4630:4675  now < p.votingDeadline || ... */\n      dup1\n      tag_103\n      jumpi\n      pop\n        /* \"contracts/Congress.sol\":4665:4666  p */\n      dup1\n        /* \"contracts/Congress.sol\":4665:4675  p.executed */\n      0x4\n      add\n      0x0\n      swap1\n      sload\n      swap1\n      0x100\n      exp\n      swap1\n      div\n      0xff\n      and\n        /* \"contracts/Congress.sol\":4630:4675  now < p.votingDeadline || ... */\n    tag_103:\n        /* \"contracts/Congress.sol\":4630:4753  now < p.votingDeadline || ... */\n      dup1\n      tag_104\n      jumpi\n      pop\n        /* \"contracts/Congress.sol\":4710:4711  p */\n      dup1\n        /* \"contracts/Congress.sol\":4710:4721  p.recipient */\n      0x0\n      add\n      0x0\n      swap1\n      sload\n      swap1\n      0x100\n      exp\n      swap1\n      div\n      0xffffffffffffffffffffffffffffffffffffffff\n      and\n        /* \"contracts/Congress.sol\":4723:4724  p */\n      dup2\n        /* \"contracts/Congress.sol\":4723:4731  p.amount */\n      0x1\n      add\n      sload\n        /* \"contracts/Congress.sol\":4733:4752  transactionBytecode */\n      dup4\n        /* \"contracts/Congress.sol\":4705:4753  sha3(p.recipient, p.amount, transactionBytecode) */\n      mload(0x40)\n      dup1\n      dup5\n      0xffffffffffffffffffffffffffffffffffffffff\n      and\n      0xffffffffffffffffffffffffffffffffffffffff\n      and\n      0x1000000000000000000000000\n      mul\n      dup2\n      mstore\n      0x14\n      add\n      dup4\n      dup2\n      mstore\n      0x20\n      add\n      dup3\n      dup1\n      mload\n      swap1\n      0x20\n      add\n      swap1\n      dup1\n      dup4\n      dup4\n        /* \"--CODEGEN--\":36:189   */\n    tag_105:\n        /* \"--CODEGEN--\":66:68   */\n      0x20\n        /* \"--CODEGEN--\":61:64   */\n      dup4\n        /* \"--CODEGEN--\":58:69   */\n      lt\n        /* \"--CODEGEN--\":51:70   */\n      iszero\n        /* \"--CODEGEN--\":36:189   */\n      iszero\n      tag_106\n      jumpi\n        /* \"--CODEGEN--\":182:185   */\n      dup1\n        /* \"--CODEGEN--\":176:186   */\n      mload\n        /* \"--CODEGEN--\":171:174   */\n      dup3\n        /* \"--CODEGEN--\":164:187   */\n      mstore\n        /* \"--CODEGEN--\":98:100   */\n      0x20\n        /* \"--CODEGEN--\":93:96   */\n      dup3\n        /* \"--CODEGEN--\":89:101   */\n      add\n        /* \"--CODEGEN--\":82:101   */\n      swap2\n      pop\n        /* \"--CODEGEN--\":123:125   */\n      0x20\n        /* \"--CODEGEN--\":118:121   */\n      dup2\n        /* \"--CODEGEN--\":114:126   */\n      add\n        /* \"--CODEGEN--\":107:126   */\n      swap1\n      pop\n        /* \"--CODEGEN--\":148:150   */\n      0x20\n        /* \"--CODEGEN--\":143:146   */\n      dup4\n        /* \"--CODEGEN--\":139:151   */\n      sub\n        /* \"--CODEGEN--\":132:151   */\n      swap3\n      pop\n        /* \"--CODEGEN--\":36:189   */\n      jump(tag_105)\n    tag_106:\n        /* \"--CODEGEN--\":274:275   */\n      0x1\n        /* \"--CODEGEN--\":267:270   */\n      dup4\n        /* \"--CODEGEN--\":263:265   */\n      0x20\n        /* \"--CODEGEN--\":259:271   */\n      sub\n        /* \"--CODEGEN--\":254:257   */\n      0x100\n        /* \"--CODEGEN--\":250:272   */\n      exp\n        /* \"--CODEGEN--\":246:276   */\n      sub\n        /* \"--CODEGEN--\":315:319   */\n      dup1\n        /* \"--CODEGEN--\":311:320   */\n      not\n        /* \"--CODEGEN--\":305:308   */\n      dup3\n        /* \"--CODEGEN--\":299:309   */\n      mload\n        /* \"--CODEGEN--\":295:321   */\n      and\n        /* \"--CODEGEN--\":356:360   */\n      dup2\n        /* \"--CODEGEN--\":350:353   */\n      dup5\n        /* \"--CODEGEN--\":344:354   */\n      mload\n        /* \"--CODEGEN--\":340:361   */\n      and\n        /* \"--CODEGEN--\":389:396   */\n      dup1\n        /* \"--CODEGEN--\":380:387   */\n      dup3\n        /* \"--CODEGEN--\":377:397   */\n      or\n        /* \"--CODEGEN--\":372:375   */\n      dup6\n        /* \"--CODEGEN--\":365:398   */\n      mstore\n        /* \"--CODEGEN--\":3:402   */\n      pop\n      pop\n      pop\n        /* \"contracts/Congress.sol\":4705:4753  sha3(p.recipient, p.amount, transactionBytecode) */\n      pop\n      pop\n      pop\n      swap1\n      pop\n      add\n      swap4\n      pop\n      pop\n      pop\n      pop\n      mload(0x40)\n      dup1\n      swap2\n      sub\n      swap1\n      keccak256\n        /* \"contracts/Congress.sol\":4687:4753  p.proposalHash != sha3(p.recipient, p.amount, transactionBytecode) */\n      not(0x0)\n      and\n        /* \"contracts/Congress.sol\":4687:4688  p */\n      dup2\n        /* \"contracts/Congress.sol\":4687:4701  p.proposalHash */\n      0x7\n      add\n      sload\n        /* \"contracts/Congress.sol\":4687:4753  p.proposalHash != sha3(p.recipient, p.amount, transactionBytecode) */\n      not(0x0)\n      and\n      eq\n      iszero\n        /* \"contracts/Congress.sol\":4630:4753  now < p.votingDeadline || ... */\n    tag_104:\n        /* \"contracts/Congress.sol\":4630:4796  now < p.votingDeadline || ... */\n      dup1\n      tag_108\n      jumpi\n      pop\n        /* \"contracts/Congress.sol\":4783:4796  minimumQuorum */\n      sload(0x1)\n        /* \"contracts/Congress.sol\":4765:4766  p */\n      dup2\n        /* \"contracts/Congress.sol\":4765:4780  p.numberOfVotes */\n      0x5\n      add\n      sload\n        /* \"contracts/Congress.sol\":4765:4796  p.numberOfVotes < minimumQuorum */\n      lt\n        /* \"contracts/Congress.sol\":4630:4796  now < p.votingDeadline || ... */\n    tag_108:\n        /* \"contracts/Congress.sol\":4627:4803  if(now < p.votingDeadline || ... */\n      iszero\n      tag_109\n      jumpi\n        /* \"contracts/Congress.sol\":4798:4803  throw */\n      0x0\n      dup1\n      revert\n        /* \"contracts/Congress.sol\":4627:4803  if(now < p.votingDeadline || ... */\n    tag_109:\n        /* \"contracts/Congress.sol\":4835:4849  majorityMargin */\n      sload(0x3)\n        /* \"contracts/Congress.sol\":4817:4818  p */\n      dup2\n        /* \"contracts/Congress.sol\":4817:4832  p.currentResult */\n      0x6\n      add\n      sload\n        /* \"contracts/Congress.sol\":4817:4849  p.currentResult > majorityMargin */\n      sgt\n        /* \"contracts/Congress.sol\":4814:5070  if(p.currentResult > majorityMargin){... */\n      iszero\n      tag_110\n      jumpi\n        /* \"contracts/Congress.sol\":4877:4881  true */\n      0x1\n        /* \"contracts/Congress.sol\":4864:4865  p */\n      dup2\n        /* \"contracts/Congress.sol\":4864:4874  p.executed */\n      0x4\n      add\n      0x0\n        /* \"contracts/Congress.sol\":4864:4881  p.executed = true */\n      0x100\n      exp\n      dup2\n      sload\n      dup2\n      0xff\n      mul\n      not\n      and\n      swap1\n      dup4\n      iszero\n      iszero\n      mul\n      or\n      swap1\n      sstore\n      pop\n        /* \"contracts/Congress.sol\":4899:4900  p */\n      dup1\n        /* \"contracts/Congress.sol\":4899:4910  p.recipient */\n      0x0\n      add\n      0x0\n      swap1\n      sload\n      swap1\n      0x100\n      exp\n      swap1\n      div\n      0xffffffffffffffffffffffffffffffffffffffff\n      and\n        /* \"contracts/Congress.sol\":4899:4915  p.recipient.call */\n      0xffffffffffffffffffffffffffffffffffffffff\n      and\n        /* \"contracts/Congress.sol\":4933:4940  1 ether */\n      0xde0b6b3a7640000\n        /* \"contracts/Congress.sol\":4922:4923  p */\n      dup3\n        /* \"contracts/Congress.sol\":4922:4930  p.amount */\n      0x1\n      add\n      sload\n        /* \"contracts/Congress.sol\":4922:4940  p.amount * 1 ether */\n      mul\n        /* \"contracts/Congress.sol\":4942:4961  transactionBytecode */\n      dup4\n        /* \"contracts/Congress.sol\":4899:4962  p.recipient.call.value(p.amount * 1 ether)(transactionBytecode) */\n      mload(0x40)\n      dup1\n      dup3\n      dup1\n      mload\n      swap1\n      0x20\n      add\n      swap1\n      dup1\n      dup4\n      dup4\n        /* \"--CODEGEN--\":23:24   */\n      0x0\n        /* \"--CODEGEN--\":8:108   */\n    tag_111:\n        /* \"--CODEGEN--\":33:36   */\n      dup4\n        /* \"--CODEGEN--\":30:31   */\n      dup2\n        /* \"--CODEGEN--\":27:37   */\n      lt\n        /* \"--CODEGEN--\":8:108   */\n      iszero\n      tag_112\n      jumpi\n        /* \"--CODEGEN--\":99:100   */\n      dup1\n        /* \"--CODEGEN--\":94:97   */\n      dup3\n        /* \"--CODEGEN--\":90:101   */\n      add\n        /* \"--CODEGEN--\":84:102   */\n      mload\n        /* \"--CODEGEN--\":80:81   */\n      dup2\n        /* \"--CODEGEN--\":75:78   */\n      dup5\n        /* \"--CODEGEN--\":71:82   */\n      add\n        /* \"--CODEGEN--\":64:103   */\n      mstore\n        /* \"--CODEGEN--\":52:54   */\n      0x20\n        /* \"--CODEGEN--\":49:50   */\n      dup2\n        /* \"--CODEGEN--\":45:55   */\n      add\n        /* \"--CODEGEN--\":40:55   */\n      swap1\n      pop\n        /* \"--CODEGEN--\":8:108   */\n      jump(tag_111)\n    tag_112:\n        /* \"--CODEGEN--\":12:26   */\n      pop\n        /* \"contracts/Congress.sol\":4899:4962  p.recipient.call.value(p.amount * 1 ether)(transactionBytecode) */\n      pop\n      pop\n      pop\n      swap1\n      pop\n      swap1\n      dup2\n      add\n      swap1\n      0x1f\n      and\n      dup1\n      iszero\n      tag_114\n      jumpi\n      dup1\n      dup3\n      sub\n      dup1\n      mload\n      0x1\n      dup4\n      0x20\n      sub\n      0x100\n      exp\n      sub\n      not\n      and\n      dup2\n      mstore\n      0x20\n      add\n      swap2\n      pop\n    tag_114:\n      pop\n      swap2\n      pop\n      pop\n      0x0\n      mload(0x40)\n      dup1\n      dup4\n      sub\n      dup2\n      dup6\n      dup8\n      gas\n      call\n      swap3\n      pop\n      pop\n      pop\n        /* \"contracts/Congress.sol\":4898:4962  !p.recipient.call.value(p.amount * 1 ether)(transactionBytecode) */\n      iszero\n        /* \"contracts/Congress.sol\":4895:4969  if(!p.recipient.call.value(p.amount * 1 ether)(transactionBytecode)) throw */\n      iszero\n      tag_115\n      jumpi\n        /* \"contracts/Congress.sol\":4964:4969  throw */\n      0x0\n      dup1\n      revert\n        /* \"contracts/Congress.sol\":4895:4969  if(!p.recipient.call.value(p.amount * 1 ether)(transactionBytecode)) throw */\n    tag_115:\n        /* \"contracts/Congress.sol\":5003:5007  true */\n      0x1\n        /* \"contracts/Congress.sol\":4984:4985  p */\n      dup2\n        /* \"contracts/Congress.sol\":4984:5000  p.proposalPassed */\n      0x4\n      add\n      0x1\n        /* \"contracts/Congress.sol\":4984:5007  p.proposalPassed = true */\n      0x100\n      exp\n      dup2\n      sload\n      dup2\n      0xff\n      mul\n      not\n      and\n      swap1\n      dup4\n      iszero\n      iszero\n      mul\n      or\n      swap1\n      sstore\n      pop\n        /* \"contracts/Congress.sol\":4814:5070  if(p.currentResult > majorityMargin){... */\n      jump(tag_116)\n    tag_110:\n        /* \"contracts/Congress.sol\":5055:5059  true */\n      0x1\n        /* \"contracts/Congress.sol\":5036:5037  p */\n      dup2\n        /* \"contracts/Congress.sol\":5036:5052  p.proposalPassed */\n      0x4\n      add\n      0x1\n        /* \"contracts/Congress.sol\":5036:5059  p.proposalPassed = true */\n      0x100\n      exp\n      dup2\n      sload\n      dup2\n      0xff\n      mul\n      not\n      and\n      swap1\n      dup4\n      iszero\n      iszero\n      mul\n      or\n      swap1\n      sstore\n      pop\n        /* \"contracts/Congress.sol\":4814:5070  if(p.currentResult > majorityMargin){... */\n    tag_116:\n        /* \"contracts/Congress.sol\":4488:5076  function executeProposal(uint proposalNumber, bytes transactionBytecode) public {... */\n      pop\n      pop\n      pop\n      jump\t// out\n        /* \"contracts/Congress.sol\":506:547  mapping (address => uint) public memberId */\n    tag_35:\n      mstore(0x20, 0x6)\n      dup1\n      0x0\n      mstore\n      keccak256(0x0, 0x40)\n      0x0\n      swap2\n      pop\n      swap1\n      pop\n      sload\n      dup2\n      jump\t// out\n        /* \"contracts/Congress.sol\":476:500  uint public numProposals */\n    tag_38:\n      sload(0x5)\n      dup2\n      jump\t// out\n        /* \"contracts/Congress.sol\":553:576  Member[] public members */\n    tag_41:\n      0x7\n      dup2\n      dup2\n      sload\n      dup2\n      lt\n      iszero\n      iszero\n      tag_117\n      jumpi\n      invalid\n    tag_117:\n      swap1\n      0x0\n      mstore\n      keccak256(0x0, 0x20)\n      swap1\n      0x3\n      mul\n      add\n      0x0\n      swap2\n      pop\n      swap1\n      pop\n      dup1\n      0x0\n      add\n      0x0\n      swap1\n      sload\n      swap1\n      0x100\n      exp\n      swap1\n      div\n      0xffffffffffffffffffffffffffffffffffffffff\n      and\n      swap1\n      dup1\n      0x1\n      add\n      dup1\n      sload\n      0x1\n      dup2\n      0x1\n      and\n      iszero\n      0x100\n      mul\n      sub\n      and\n      0x2\n      swap1\n      div\n      dup1\n      0x1f\n      add\n      0x20\n      dup1\n      swap2\n      div\n      mul\n      0x20\n      add\n      mload(0x40)\n      swap1\n      dup2\n      add\n      0x40\n      mstore\n      dup1\n      swap3\n      swap2\n      swap1\n      dup2\n      dup2\n      mstore\n      0x20\n      add\n      dup3\n      dup1\n      sload\n      0x1\n      dup2\n      0x1\n      and\n      iszero\n      0x100\n      mul\n      sub\n      and\n      0x2\n      swap1\n      div\n      dup1\n      iszero\n      tag_119\n      jumpi\n      dup1\n      0x1f\n      lt\n      tag_120\n      jumpi\n      0x100\n      dup1\n      dup4\n      sload\n      div\n      mul\n      dup4\n      mstore\n      swap2\n      0x20\n      add\n      swap2\n      jump(tag_119)\n    tag_120:\n      dup3\n      add\n      swap2\n      swap1\n      0x0\n      mstore\n      keccak256(0x0, 0x20)\n      swap1\n    tag_121:\n      dup2\n      sload\n      dup2\n      mstore\n      swap1\n      0x1\n      add\n      swap1\n      0x20\n      add\n      dup1\n      dup4\n      gt\n      tag_121\n      jumpi\n      dup3\n      swap1\n      sub\n      0x1f\n      and\n      dup3\n      add\n      swap2\n    tag_119:\n      pop\n      pop\n      pop\n      pop\n      pop\n      swap1\n      dup1\n      0x2\n      add\n      sload\n      swap1\n      pop\n      dup4\n      jump\t// out\n        /* \"contracts/Congress.sol\":339:364  uint public minimumQuorum */\n    tag_48:\n      sload(0x1)\n      dup2\n      jump\t// out\n        /* \"contracts/Congress.sol\":412:437  int public majorityMargin */\n    tag_51:\n      sload(0x3)\n      dup2\n      jump\t// out\n        /* \"contracts/Congress.sol\":2865:3607  function newProposal(... */\n    tag_54:\n        /* \"contracts/Congress.sol\":3041:3056  uint proposalID */\n      0x0\n        /* \"contracts/Congress.sol\":3155:3165  Proposal p */\n      dup1\n        /* \"contracts/Congress.sol\":647:648  0 */\n      0x0\n        /* \"contracts/Congress.sol\":623:631  memberId */\n      0x6\n        /* \"contracts/Congress.sol\":623:643  memberId[msg.sender] */\n      0x0\n        /* \"contracts/Congress.sol\":632:642  msg.sender */\n      caller\n        /* \"contracts/Congress.sol\":623:643  memberId[msg.sender] */\n      0xffffffffffffffffffffffffffffffffffffffff\n      and\n      0xffffffffffffffffffffffffffffffffffffffff\n      and\n      dup2\n      mstore\n      0x20\n      add\n      swap1\n      dup2\n      mstore\n      0x20\n      add\n      0x0\n      keccak256\n      sload\n        /* \"contracts/Congress.sol\":623:648  memberId[msg.sender] == 0 */\n      eq\n        /* \"contracts/Congress.sol\":614:649  require (memberId[msg.sender] == 0) */\n      iszero\n      iszero\n      tag_123\n      jumpi\n      0x0\n      dup1\n      revert\n    tag_123:\n        /* \"contracts/Congress.sol\":3080:3089  proposals */\n      0x4\n        /* \"contracts/Congress.sol\":3080:3096  proposals.length */\n      dup1\n      sload\n      swap1\n      pop\n        /* \"contracts/Congress.sol\":3067:3096  proposalID = proposals.length */\n      swap2\n      pop\n        /* \"contracts/Congress.sol\":3144:3145  1 */\n      0x1\n        /* \"contracts/Congress.sol\":3125:3134  proposals */\n      0x4\n        /* \"contracts/Congress.sol\":3125:3141  proposals.length */\n      dup1\n      sload\n      swap1\n      pop\n        /* \"contracts/Congress.sol\":3125:3145  proposals.length + 1 */\n      add\n        /* \"contracts/Congress.sol\":3106:3115  proposals */\n      0x4\n        /* \"contracts/Congress.sol\":3106:3145  proposals.length = proposals.length + 1 */\n      dup2\n      tag_125\n      swap2\n      swap1\n      jump\t// in(tag_126)\n    tag_125:\n      pop\n        /* \"contracts/Congress.sol\":3168:3177  proposals */\n      0x4\n        /* \"contracts/Congress.sol\":3178:3188  proposalID */\n      dup3\n        /* \"contracts/Congress.sol\":3168:3189  proposals[proposalID] */\n      dup2\n      sload\n      dup2\n      lt\n      iszero\n      iszero\n      tag_127\n      jumpi\n      invalid\n    tag_127:\n      swap1\n      0x0\n      mstore\n      keccak256(0x0, 0x20)\n      swap1\n      0xa\n      mul\n      add\n        /* \"contracts/Congress.sol\":3155:3189  Proposal p = proposals[proposalID] */\n      swap1\n      pop\n        /* \"contracts/Congress.sol\":3213:3224  beneficiary */\n      dup6\n        /* \"contracts/Congress.sol\":3199:3200  p */\n      dup2\n        /* \"contracts/Congress.sol\":3199:3210  p.recipient */\n      0x0\n      add\n      0x0\n        /* \"contracts/Congress.sol\":3199:3224  p.recipient = beneficiary */\n      0x100\n      exp\n      dup2\n      sload\n      dup2\n      0xffffffffffffffffffffffffffffffffffffffff\n      mul\n      not\n      and\n      swap1\n      dup4\n      0xffffffffffffffffffffffffffffffffffffffff\n      and\n      mul\n      or\n      swap1\n      sstore\n      pop\n        /* \"contracts/Congress.sol\":3245:3256  etherAmount */\n      dup5\n        /* \"contracts/Congress.sol\":3234:3235  p */\n      dup2\n        /* \"contracts/Congress.sol\":3234:3242  p.amount */\n      0x1\n      add\n        /* \"contracts/Congress.sol\":3234:3256  p.amount = etherAmount */\n      dup2\n      swap1\n      sstore\n      pop\n        /* \"contracts/Congress.sol\":3282:3296  jobDescription */\n      dup4\n        /* \"contracts/Congress.sol\":3266:3267  p */\n      dup2\n        /* \"contracts/Congress.sol\":3266:3279  p.description */\n      0x2\n      add\n        /* \"contracts/Congress.sol\":3266:3296  p.description = jobDescription */\n      swap1\n      dup1\n      mload\n      swap1\n      0x20\n      add\n      swap1\n      tag_129\n      swap3\n      swap2\n      swap1\n      jump\t// in(tag_130)\n    tag_129:\n      pop\n        /* \"contracts/Congress.sol\":3328:3339  beneficiary */\n      dup6\n        /* \"contracts/Congress.sol\":3341:3352  etherAmount */\n      dup6\n        /* \"contracts/Congress.sol\":3354:3373  transactionBytecode */\n      dup5\n        /* \"contracts/Congress.sol\":3323:3374  sha3(beneficiary, etherAmount, transactionBytecode) */\n      mload(0x40)\n      dup1\n      dup5\n      0xffffffffffffffffffffffffffffffffffffffff\n      and\n      0xffffffffffffffffffffffffffffffffffffffff\n      and\n      0x1000000000000000000000000\n      mul\n      dup2\n      mstore\n      0x14\n      add\n      dup4\n      dup2\n      mstore\n      0x20\n      add\n      dup3\n      dup1\n      mload\n      swap1\n      0x20\n      add\n      swap1\n      dup1\n      dup4\n      dup4\n        /* \"--CODEGEN--\":36:189   */\n    tag_131:\n        /* \"--CODEGEN--\":66:68   */\n      0x20\n        /* \"--CODEGEN--\":61:64   */\n      dup4\n        /* \"--CODEGEN--\":58:69   */\n      lt\n        /* \"--CODEGEN--\":51:70   */\n      iszero\n        /* \"--CODEGEN--\":36:189   */\n      iszero\n      tag_132\n      jumpi\n        /* \"--CODEGEN--\":182:185   */\n      dup1\n        /* \"--CODEGEN--\":176:186   */\n      mload\n        /* \"--CODEGEN--\":171:174   */\n      dup3\n        /* \"--CODEGEN--\":164:187   */\n      mstore\n        /* \"--CODEGEN--\":98:100   */\n      0x20\n        /* \"--CODEGEN--\":93:96   */\n      dup3\n        /* \"--CODEGEN--\":89:101   */\n      add\n        /* \"--CODEGEN--\":82:101   */\n      swap2\n      pop\n        /* \"--CODEGEN--\":123:125   */\n      0x20\n        /* \"--CODEGEN--\":118:121   */\n      dup2\n        /* \"--CODEGEN--\":114:126   */\n      add\n        /* \"--CODEGEN--\":107:126   */\n      swap1\n      pop\n        /* \"--CODEGEN--\":148:150   */\n      0x20\n        /* \"--CODEGEN--\":143:146   */\n      dup4\n        /* \"--CODEGEN--\":139:151   */\n      sub\n        /* \"--CODEGEN--\":132:151   */\n      swap3\n      pop\n        /* \"--CODEGEN--\":36:189   */\n      jump(tag_131)\n    tag_132:\n        /* \"--CODEGEN--\":274:275   */\n      0x1\n        /* \"--CODEGEN--\":267:270   */\n      dup4\n        /* \"--CODEGEN--\":263:265   */\n      0x20\n        /* \"--CODEGEN--\":259:271   */\n      sub\n        /* \"--CODEGEN--\":254:257   */\n      0x100\n        /* \"--CODEGEN--\":250:272   */\n      exp\n        /* \"--CODEGEN--\":246:276   */\n      sub\n        /* \"--CODEGEN--\":315:319   */\n      dup1\n        /* \"--CODEGEN--\":311:320   */\n      not\n        /* \"--CODEGEN--\":305:308   */\n      dup3\n        /* \"--CODEGEN--\":299:309   */\n      mload\n        /* \"--CODEGEN--\":295:321   */\n      and\n        /* \"--CODEGEN--\":356:360   */\n      dup2\n        /* \"--CODEGEN--\":350:353   */\n      dup5\n        /* \"--CODEGEN--\":344:354   */\n      mload\n        /* \"--CODEGEN--\":340:361   */\n      and\n        /* \"--CODEGEN--\":389:396   */\n      dup1\n        /* \"--CODEGEN--\":380:387   */\n      dup3\n        /* \"--CODEGEN--\":377:397   */\n      or\n        /* \"--CODEGEN--\":372:375   */\n      dup6\n        /* \"--CODEGEN--\":365:398   */\n      mstore\n        /* \"--CODEGEN--\":3:402   */\n      pop\n      pop\n      pop\n        /* \"contracts/Congress.sol\":3323:3374  sha3(beneficiary, etherAmount, transactionBytecode) */\n      pop\n      pop\n      pop\n      swap1\n      pop\n      add\n      swap4\n      pop\n      pop\n      pop\n      pop\n      mload(0x40)\n      dup1\n      swap2\n      sub\n      swap1\n      keccak256\n        /* \"contracts/Congress.sol\":3306:3307  p */\n      dup2\n        /* \"contracts/Congress.sol\":3306:3320  p.proposalHash */\n      0x7\n      add\n        /* \"contracts/Congress.sol\":3306:3374  p.proposalHash = sha3(beneficiary, etherAmount, transactionBytecode) */\n      dup2\n      not(0x0)\n      and\n      swap1\n      sstore\n      pop\n        /* \"contracts/Congress.sol\":3436:3445  1 minutes */\n      0x3c\n        /* \"contracts/Congress.sol\":3409:3433  debatingPreriodInMinutes */\n      sload(0x2)\n        /* \"contracts/Congress.sol\":3403:3406  now */\n      timestamp\n        /* \"contracts/Congress.sol\":3403:3433  now + debatingPreriodInMinutes */\n      add\n        /* \"contracts/Congress.sol\":3403:3445  now + debatingPreriodInMinutes + 1 minutes */\n      add\n        /* \"contracts/Congress.sol\":3384:3385  p */\n      dup2\n        /* \"contracts/Congress.sol\":3384:3400  p.votingDeadline */\n      0x3\n      add\n        /* \"contracts/Congress.sol\":3384:3445  p.votingDeadline = now + debatingPreriodInMinutes + 1 minutes */\n      dup2\n      swap1\n      sstore\n      pop\n        /* \"contracts/Congress.sol\":3468:3473  false */\n      0x0\n        /* \"contracts/Congress.sol\":3455:3456  p */\n      dup2\n        /* \"contracts/Congress.sol\":3455:3465  p.executed */\n      0x4\n      add\n      0x0\n        /* \"contracts/Congress.sol\":3455:3473  p.executed = false */\n      0x100\n      exp\n      dup2\n      sload\n      dup2\n      0xff\n      mul\n      not\n      and\n      swap1\n      dup4\n      iszero\n      iszero\n      mul\n      or\n      swap1\n      sstore\n      pop\n        /* \"contracts/Congress.sol\":3502:3507  false */\n      0x0\n        /* \"contracts/Congress.sol\":3483:3484  p */\n      dup2\n        /* \"contracts/Congress.sol\":3483:3499  p.proposalPassed */\n      0x4\n      add\n      0x1\n        /* \"contracts/Congress.sol\":3483:3507  p.proposalPassed = false */\n      0x100\n      exp\n      dup2\n      sload\n      dup2\n      0xff\n      mul\n      not\n      and\n      swap1\n      dup4\n      iszero\n      iszero\n      mul\n      or\n      swap1\n      sstore\n      pop\n        /* \"contracts/Congress.sol\":3535:3536  0 */\n      0x0\n        /* \"contracts/Congress.sol\":3517:3518  p */\n      dup2\n        /* \"contracts/Congress.sol\":3517:3532  p.numberOfVotes */\n      0x5\n      add\n        /* \"contracts/Congress.sol\":3517:3536  p.numberOfVotes = 0 */\n      dup2\n      swap1\n      sstore\n      pop\n        /* \"contracts/Congress.sol\":3572:3573  1 */\n      0x1\n        /* \"contracts/Congress.sol\":3561:3571  proposalID */\n      dup3\n        /* \"contracts/Congress.sol\":3561:3573  proposalID+1 */\n      add\n        /* \"contracts/Congress.sol\":3546:3558  numProposals */\n      0x5\n        /* \"contracts/Congress.sol\":3546:3573  numProposals = proposalID+1 */\n      dup2\n      swap1\n      sstore\n      pop\n        /* \"contracts/Congress.sol\":3590:3600  proposalID */\n      dup2\n        /* \"contracts/Congress.sol\":3583:3600  return proposalID */\n      swap2\n      pop\n        /* \"contracts/Congress.sol\":2865:3607  function newProposal(... */\n      pop\n      swap5\n      swap4\n      pop\n      pop\n      pop\n      pop\n      jump\t// out\n        /* \"contracts/Congress.sol\":2502:2815  function changeVotingRules(... */\n    tag_57:\n        /* \"contracts/Congress.sol\":191:196  admin */\n      0x0\n      dup1\n      swap1\n      sload\n      swap1\n      0x100\n      exp\n      swap1\n      div\n      0xffffffffffffffffffffffffffffffffffffffff\n      and\n        /* \"contracts/Congress.sol\":177:196  msg.sender != admin */\n      0xffffffffffffffffffffffffffffffffffffffff\n      and\n        /* \"contracts/Congress.sol\":177:187  msg.sender */\n      caller\n        /* \"contracts/Congress.sol\":177:196  msg.sender != admin */\n      0xffffffffffffffffffffffffffffffffffffffff\n      and\n      eq\n      iszero\n        /* \"contracts/Congress.sol\":168:197  require (msg.sender != admin) */\n      iszero\n      iszero\n      tag_135\n      jumpi\n      0x0\n      dup1\n      revert\n    tag_135:\n        /* \"contracts/Congress.sol\":2683:2704  minimumQuorumProposal */\n      dup3\n        /* \"contracts/Congress.sol\":2667:2680  minimumQuorum */\n      0x1\n        /* \"contracts/Congress.sol\":2667:2704  minimumQuorum = minimumQuorumProposal */\n      dup2\n      swap1\n      sstore\n      pop\n        /* \"contracts/Congress.sol\":2741:2757  minutesForDebate */\n      dup2\n        /* \"contracts/Congress.sol\":2714:2738  debatingPreriodInMinutes */\n      0x2\n        /* \"contracts/Congress.sol\":2714:2757  debatingPreriodInMinutes = minutesForDebate */\n      dup2\n      swap1\n      sstore\n      pop\n        /* \"contracts/Congress.sol\":2784:2808  marginOfVotesForMajority */\n      dup1\n        /* \"contracts/Congress.sol\":2767:2781  majorityMargin */\n      0x3\n        /* \"contracts/Congress.sol\":2767:2808  majorityMargin = marginOfVotesForMajority */\n      dup2\n      swap1\n      sstore\n      pop\n        /* \"contracts/Congress.sol\":2502:2815  function changeVotingRules(... */\n      pop\n      pop\n      pop\n      jump\t// out\n        /* \"contracts/Congress.sol\":370:406  uint public debatingPreriodInMinutes */\n    tag_60:\n      sload(0x2)\n      dup2\n      jump\t// out\n        /* \"contracts/Congress.sol\":1685:2161  function addMember(address targetMember, string memberName) onlyAdmin public {... */\n    tag_63:\n        /* \"contracts/Congress.sol\":1772:1779  uint id */\n      0x0\n        /* \"contracts/Congress.sol\":2122:2130  Member m */\n      dup1\n        /* \"contracts/Congress.sol\":191:196  admin */\n      0x0\n      dup1\n      swap1\n      sload\n      swap1\n      0x100\n      exp\n      swap1\n      div\n      0xffffffffffffffffffffffffffffffffffffffff\n      and\n        /* \"contracts/Congress.sol\":177:196  msg.sender != admin */\n      0xffffffffffffffffffffffffffffffffffffffff\n      and\n        /* \"contracts/Congress.sol\":177:187  msg.sender */\n      caller\n        /* \"contracts/Congress.sol\":177:196  msg.sender != admin */\n      0xffffffffffffffffffffffffffffffffffffffff\n      and\n      eq\n      iszero\n        /* \"contracts/Congress.sol\":168:197  require (msg.sender != admin) */\n      iszero\n      iszero\n      tag_138\n      jumpi\n      0x0\n      dup1\n      revert\n    tag_138:\n        /* \"contracts/Congress.sol\":1818:1819  0 */\n      0x0\n        /* \"contracts/Congress.sol\":1792:1800  memberId */\n      0x6\n        /* \"contracts/Congress.sol\":1792:1814  memberId[targetMember] */\n      0x0\n        /* \"contracts/Congress.sol\":1801:1813  targetMember */\n      dup7\n        /* \"contracts/Congress.sol\":1792:1814  memberId[targetMember] */\n      0xffffffffffffffffffffffffffffffffffffffff\n      and\n      0xffffffffffffffffffffffffffffffffffffffff\n      and\n      dup2\n      mstore\n      0x20\n      add\n      swap1\n      dup2\n      mstore\n      0x20\n      add\n      0x0\n      keccak256\n      sload\n        /* \"contracts/Congress.sol\":1792:1819  memberId[targetMember] == 0 */\n      eq\n        /* \"contracts/Congress.sol\":1789:2155  if(memberId[targetMember] == 0) {... */\n      iszero\n      tag_140\n      jumpi\n        /* \"contracts/Congress.sol\":1860:1867  members */\n      0x7\n        /* \"contracts/Congress.sol\":1860:1874  members.length */\n      dup1\n      sload\n      swap1\n      pop\n        /* \"contracts/Congress.sol\":1835:1843  memberId */\n      0x6\n        /* \"contracts/Congress.sol\":1835:1857  memberId[targetMember] */\n      0x0\n        /* \"contracts/Congress.sol\":1844:1856  targetMember */\n      dup7\n        /* \"contracts/Congress.sol\":1835:1857  memberId[targetMember] */\n      0xffffffffffffffffffffffffffffffffffffffff\n      and\n      0xffffffffffffffffffffffffffffffffffffffff\n      and\n      dup2\n      mstore\n      0x20\n      add\n      swap1\n      dup2\n      mstore\n      0x20\n      add\n      0x0\n      keccak256\n        /* \"contracts/Congress.sol\":1835:1874  memberId[targetMember] = members.length */\n      dup2\n      swap1\n      sstore\n      pop\n        /* \"contracts/Congress.sol\":1893:1900  members */\n      0x7\n        /* \"contracts/Congress.sol\":1893:1907  members.length */\n      dup1\n      sload\n      swap1\n      pop\n        /* \"contracts/Congress.sol\":1888:1907  id = members.length */\n      swap2\n      pop\n        /* \"contracts/Congress.sol\":1955:1956  1 */\n      0x1\n        /* \"contracts/Congress.sol\":1938:1945  members */\n      0x7\n        /* \"contracts/Congress.sol\":1938:1952  members.length */\n      dup1\n      sload\n      swap1\n      pop\n        /* \"contracts/Congress.sol\":1938:1956  members.length + 1 */\n      add\n        /* \"contracts/Congress.sol\":1921:1928  members */\n      0x7\n        /* \"contracts/Congress.sol\":1921:1956  members.length = members.length + 1 */\n      dup2\n      tag_141\n      swap2\n      swap1\n      jump\t// in(tag_99)\n    tag_141:\n      pop\n        /* \"contracts/Congress.sol\":1984:2050  Member({member: targetMember, memberSince: now, name: memberName}) */\n      0x60\n      mload(0x40)\n      swap1\n      dup2\n      add\n      0x40\n      mstore\n      dup1\n        /* \"contracts/Congress.sol\":2000:2012  targetMember */\n      dup6\n        /* \"contracts/Congress.sol\":1984:2050  Member({member: targetMember, memberSince: now, name: memberName}) */\n      0xffffffffffffffffffffffffffffffffffffffff\n      and\n      dup2\n      mstore\n      0x20\n      add\n        /* \"contracts/Congress.sol\":2038:2048  memberName */\n      dup5\n        /* \"contracts/Congress.sol\":1984:2050  Member({member: targetMember, memberSince: now, name: memberName}) */\n      dup2\n      mstore\n      0x20\n      add\n        /* \"contracts/Congress.sol\":2027:2030  now */\n      timestamp\n        /* \"contracts/Congress.sol\":1984:2050  Member({member: targetMember, memberSince: now, name: memberName}) */\n      dup2\n      mstore\n      pop\n        /* \"contracts/Congress.sol\":1970:1977  members */\n      0x7\n        /* \"contracts/Congress.sol\":1978:1980  id */\n      dup4\n        /* \"contracts/Congress.sol\":1970:1981  members[id] */\n      dup2\n      sload\n      dup2\n      lt\n      iszero\n      iszero\n      tag_142\n      jumpi\n      invalid\n    tag_142:\n      swap1\n      0x0\n      mstore\n      keccak256(0x0, 0x20)\n      swap1\n      0x3\n      mul\n      add\n        /* \"contracts/Congress.sol\":1970:2050  members[id] = Member({member: targetMember, memberSince: now, name: memberName}) */\n      0x0\n      dup3\n      add\n      mload\n      dup2\n      0x0\n      add\n      exp(0x100, 0x0)\n      dup2\n      sload\n      dup2\n      0xffffffffffffffffffffffffffffffffffffffff\n      mul\n      not\n      and\n      swap1\n      dup4\n      0xffffffffffffffffffffffffffffffffffffffff\n      and\n      mul\n      or\n      swap1\n      sstore\n      pop\n      0x20\n      dup3\n      add\n      mload\n      dup2\n      0x1\n      add\n      swap1\n      dup1\n      mload\n      swap1\n      0x20\n      add\n      swap1\n      tag_144\n      swap3\n      swap2\n      swap1\n      jump\t// in(tag_145)\n    tag_144:\n      pop\n      0x40\n      dup3\n      add\n      mload\n      dup2\n      0x2\n      add\n      sstore\n      swap1\n      pop\n      pop\n        /* \"contracts/Congress.sol\":1789:2155  if(memberId[targetMember] == 0) {... */\n      jump(tag_146)\n    tag_140:\n        /* \"contracts/Congress.sol\":2086:2094  memberId */\n      0x6\n        /* \"contracts/Congress.sol\":2086:2108  memberId[targetMember] */\n      0x0\n        /* \"contracts/Congress.sol\":2095:2107  targetMember */\n      dup6\n        /* \"contracts/Congress.sol\":2086:2108  memberId[targetMember] */\n      0xffffffffffffffffffffffffffffffffffffffff\n      and\n      0xffffffffffffffffffffffffffffffffffffffff\n      and\n      dup2\n      mstore\n      0x20\n      add\n      swap1\n      dup2\n      mstore\n      0x20\n      add\n      0x0\n      keccak256\n      sload\n        /* \"contracts/Congress.sol\":2081:2108  id = memberId[targetMember] */\n      swap2\n      pop\n        /* \"contracts/Congress.sol\":2133:2140  members */\n      0x7\n        /* \"contracts/Congress.sol\":2141:2143  id */\n      dup3\n        /* \"contracts/Congress.sol\":2133:2144  members[id] */\n      dup2\n      sload\n      dup2\n      lt\n      iszero\n      iszero\n      tag_147\n      jumpi\n      invalid\n    tag_147:\n      swap1\n      0x0\n      mstore\n      keccak256(0x0, 0x20)\n      swap1\n      0x3\n      mul\n      add\n        /* \"contracts/Congress.sol\":2122:2144  Member m = members[id] */\n      swap1\n      pop\n        /* \"contracts/Congress.sol\":1789:2155  if(memberId[targetMember] == 0) {... */\n    tag_146:\n        /* \"contracts/Congress.sol\":1685:2161  function addMember(address targetMember, string memberName) onlyAdmin public {... */\n      pop\n      pop\n      pop\n      pop\n      jump\t// out\n        /* \"contracts/Congress.sol\":4018:4482  function vote(... */\n    tag_66:\n        /* \"contracts/Congress.sol\":4160:4171  uint voteID */\n      0x0\n        /* \"contracts/Congress.sol\":4183:4193  Proposal p */\n      dup1\n        /* \"contracts/Congress.sol\":647:648  0 */\n      0x0\n        /* \"contracts/Congress.sol\":623:631  memberId */\n      0x6\n        /* \"contracts/Congress.sol\":623:643  memberId[msg.sender] */\n      0x0\n        /* \"contracts/Congress.sol\":632:642  msg.sender */\n      caller\n        /* \"contracts/Congress.sol\":623:643  memberId[msg.sender] */\n      0xffffffffffffffffffffffffffffffffffffffff\n      and\n      0xffffffffffffffffffffffffffffffffffffffff\n      and\n      dup2\n      mstore\n      0x20\n      add\n      swap1\n      dup2\n      mstore\n      0x20\n      add\n      0x0\n      keccak256\n      sload\n        /* \"contracts/Congress.sol\":623:648  memberId[msg.sender] == 0 */\n      eq\n        /* \"contracts/Congress.sol\":614:649  require (memberId[msg.sender] == 0) */\n      iszero\n      iszero\n      tag_150\n      jumpi\n      0x0\n      dup1\n      revert\n    tag_150:\n        /* \"contracts/Congress.sol\":4196:4205  proposals */\n      0x4\n        /* \"contracts/Congress.sol\":4206:4220  proposalNumber */\n      dup6\n        /* \"contracts/Congress.sol\":4196:4221  proposals[proposalNumber] */\n      dup2\n      sload\n      dup2\n      lt\n      iszero\n      iszero\n      tag_152\n      jumpi\n      invalid\n    tag_152:\n      swap1\n      0x0\n      mstore\n      keccak256(0x0, 0x20)\n      swap1\n      0xa\n      mul\n      add\n        /* \"contracts/Congress.sol\":4183:4221  Proposal p = proposals[proposalNumber] */\n      swap1\n      pop\n        /* \"contracts/Congress.sol\":4234:4235  p */\n      dup1\n        /* \"contracts/Congress.sol\":4234:4241  p.voted */\n      0x9\n      add\n        /* \"contracts/Congress.sol\":4234:4253  p.voted[msg.sender] */\n      0x0\n        /* \"contracts/Congress.sol\":4242:4252  msg.sender */\n      caller\n        /* \"contracts/Congress.sol\":4234:4253  p.voted[msg.sender] */\n      0xffffffffffffffffffffffffffffffffffffffff\n      and\n      0xffffffffffffffffffffffffffffffffffffffff\n      and\n      dup2\n      mstore\n      0x20\n      add\n      swap1\n      dup2\n      mstore\n      0x20\n      add\n      0x0\n      keccak256\n      0x0\n      swap1\n      sload\n      swap1\n      0x100\n      exp\n      swap1\n      div\n      0xff\n      and\n        /* \"contracts/Congress.sol\":4231:4260  if(p.voted[msg.sender]) throw */\n      iszero\n      tag_154\n      jumpi\n        /* \"contracts/Congress.sol\":4255:4260  throw */\n      0x0\n      dup1\n      revert\n        /* \"contracts/Congress.sol\":4231:4260  if(p.voted[msg.sender]) throw */\n    tag_154:\n        /* \"contracts/Congress.sol\":4292:4296  true */\n      0x1\n        /* \"contracts/Congress.sol\":4270:4271  p */\n      dup2\n        /* \"contracts/Congress.sol\":4270:4277  p.voted */\n      0x9\n      add\n        /* \"contracts/Congress.sol\":4270:4289  p.voted[msg.sender] */\n      0x0\n        /* \"contracts/Congress.sol\":4278:4288  msg.sender */\n      caller\n        /* \"contracts/Congress.sol\":4270:4289  p.voted[msg.sender] */\n      0xffffffffffffffffffffffffffffffffffffffff\n      and\n      0xffffffffffffffffffffffffffffffffffffffff\n      and\n      dup2\n      mstore\n      0x20\n      add\n      swap1\n      dup2\n      mstore\n      0x20\n      add\n      0x0\n      keccak256\n      0x0\n        /* \"contracts/Congress.sol\":4270:4296  p.voted[msg.sender] = true */\n      0x100\n      exp\n      dup2\n      sload\n      dup2\n      0xff\n      mul\n      not\n      and\n      swap1\n      dup4\n      iszero\n      iszero\n      mul\n      or\n      swap1\n      sstore\n      pop\n        /* \"contracts/Congress.sol\":4306:4307  p */\n      dup1\n        /* \"contracts/Congress.sol\":4306:4321  p.numberOfVotes */\n      0x5\n      add\n      0x0\n        /* \"contracts/Congress.sol\":4306:4323  p.numberOfVotes++ */\n      dup2\n      sload\n      dup1\n      swap3\n      swap2\n      swap1\n      0x1\n      add\n      swap2\n      swap1\n      pop\n      sstore\n      pop\n        /* \"contracts/Congress.sol\":4336:4352  supportsProposal */\n      dup4\n        /* \"contracts/Congress.sol\":4333:4444  if(supportsProposal) {... */\n      iszero\n      tag_155\n      jumpi\n        /* \"contracts/Congress.sol\":4368:4369  p */\n      dup1\n        /* \"contracts/Congress.sol\":4368:4383  p.currentResult */\n      0x6\n      add\n      0x0\n        /* \"contracts/Congress.sol\":4368:4385  p.currentResult++ */\n      dup2\n      sload\n      dup1\n      swap3\n      swap2\n      swap1\n      0x1\n      add\n      swap2\n      swap1\n      pop\n      sstore\n      pop\n        /* \"contracts/Congress.sol\":4333:4444  if(supportsProposal) {... */\n      jump(tag_156)\n    tag_155:\n        /* \"contracts/Congress.sol\":4416:4417  p */\n      dup1\n        /* \"contracts/Congress.sol\":4416:4431  p.currentResult */\n      0x6\n      add\n      0x0\n        /* \"contracts/Congress.sol\":4416:4433  p.currentResult-- */\n      dup2\n      sload\n      dup1\n      swap3\n      swap2\n      swap1\n      0x1\n      swap1\n      sub\n      swap2\n      swap1\n      pop\n      sstore\n      pop\n        /* \"contracts/Congress.sol\":4333:4444  if(supportsProposal) {... */\n    tag_156:\n        /* \"contracts/Congress.sol\":4460:4461  p */\n      dup1\n        /* \"contracts/Congress.sol\":4460:4475  p.numberOfVotes */\n      0x5\n      add\n      sload\n        /* \"contracts/Congress.sol\":4453:4475  return p.numberOfVotes */\n      swap2\n      pop\n        /* \"contracts/Congress.sol\":4018:4482  function vote(... */\n      pop\n      swap4\n      swap3\n      pop\n      pop\n      pop\n      jump\t// out\n        /* \"contracts/Congress.sol\":221:298  function transerAdminship(address newAdmin) {... */\n    tag_69:\n        /* \"contracts/Congress.sol\":283:291  newAdmin */\n      dup1\n        /* \"contracts/Congress.sol\":275:280  admin */\n      0x0\n      dup1\n        /* \"contracts/Congress.sol\":275:291  admin = newAdmin */\n      0x100\n      exp\n      dup2\n      sload\n      dup2\n      0xffffffffffffffffffffffffffffffffffffffff\n      mul\n      not\n      and\n      swap1\n      dup4\n      0xffffffffffffffffffffffffffffffffffffffff\n      and\n      mul\n      or\n      swap1\n      sstore\n      pop\n        /* \"contracts/Congress.sol\":221:298  function transerAdminship(address newAdmin) {... */\n      pop\n      jump\t// out\n        /* \"contracts/Congress.sol\":3668:4012  function checkProposalCode(... */\n    tag_72:\n        /* \"contracts/Congress.sol\":3851:3869  bool codeChecksOut */\n      0x0\n        /* \"contracts/Congress.sol\":3881:3891  Proposal p */\n      dup1\n        /* \"contracts/Congress.sol\":3894:3903  proposals */\n      0x4\n        /* \"contracts/Congress.sol\":3904:3918  proposalNumber */\n      dup7\n        /* \"contracts/Congress.sol\":3894:3919  proposals[proposalNumber] */\n      dup2\n      sload\n      dup2\n      lt\n      iszero\n      iszero\n      tag_159\n      jumpi\n      invalid\n    tag_159:\n      swap1\n      0x0\n      mstore\n      keccak256(0x0, 0x20)\n      swap1\n      0xa\n      mul\n      add\n        /* \"contracts/Congress.sol\":3881:3919  Proposal p = proposals[proposalNumber] */\n      swap1\n      pop\n        /* \"contracts/Congress.sol\":3959:3970  beneficiary */\n      dup5\n        /* \"contracts/Congress.sol\":3972:3983  etherAmount */\n      dup5\n        /* \"contracts/Congress.sol\":3985:4004  transactionBytecode */\n      dup5\n        /* \"contracts/Congress.sol\":3954:4005  sha3(beneficiary, etherAmount, transactionBytecode) */\n      mload(0x40)\n      dup1\n      dup5\n      0xffffffffffffffffffffffffffffffffffffffff\n      and\n      0xffffffffffffffffffffffffffffffffffffffff\n      and\n      0x1000000000000000000000000\n      mul\n      dup2\n      mstore\n      0x14\n      add\n      dup4\n      dup2\n      mstore\n      0x20\n      add\n      dup3\n      dup1\n      mload\n      swap1\n      0x20\n      add\n      swap1\n      dup1\n      dup4\n      dup4\n        /* \"--CODEGEN--\":36:189   */\n    tag_161:\n        /* \"--CODEGEN--\":66:68   */\n      0x20\n        /* \"--CODEGEN--\":61:64   */\n      dup4\n        /* \"--CODEGEN--\":58:69   */\n      lt\n        /* \"--CODEGEN--\":51:70   */\n      iszero\n        /* \"--CODEGEN--\":36:189   */\n      iszero\n      tag_162\n      jumpi\n        /* \"--CODEGEN--\":182:185   */\n      dup1\n        /* \"--CODEGEN--\":176:186   */\n      mload\n        /* \"--CODEGEN--\":171:174   */\n      dup3\n        /* \"--CODEGEN--\":164:187   */\n      mstore\n        /* \"--CODEGEN--\":98:100   */\n      0x20\n        /* \"--CODEGEN--\":93:96   */\n      dup3\n        /* \"--CODEGEN--\":89:101   */\n      add\n        /* \"--CODEGEN--\":82:101   */\n      swap2\n      pop\n        /* \"--CODEGEN--\":123:125   */\n      0x20\n        /* \"--CODEGEN--\":118:121   */\n      dup2\n        /* \"--CODEGEN--\":114:126   */\n      add\n        /* \"--CODEGEN--\":107:126   */\n      swap1\n      pop\n        /* \"--CODEGEN--\":148:150   */\n      0x20\n        /* \"--CODEGEN--\":143:146   */\n      dup4\n        /* \"--CODEGEN--\":139:151   */\n      sub\n        /* \"--CODEGEN--\":132:151   */\n      swap3\n      pop\n        /* \"--CODEGEN--\":36:189   */\n      jump(tag_161)\n    tag_162:\n        /* \"--CODEGEN--\":274:275   */\n      0x1\n        /* \"--CODEGEN--\":267:270   */\n      dup4\n        /* \"--CODEGEN--\":263:265   */\n      0x20\n        /* \"--CODEGEN--\":259:271   */\n      sub\n        /* \"--CODEGEN--\":254:257   */\n      0x100\n        /* \"--CODEGEN--\":250:272   */\n      exp\n        /* \"--CODEGEN--\":246:276   */\n      sub\n        /* \"--CODEGEN--\":315:319   */\n      dup1\n        /* \"--CODEGEN--\":311:320   */\n      not\n        /* \"--CODEGEN--\":305:308   */\n      dup3\n        /* \"--CODEGEN--\":299:309   */\n      mload\n        /* \"--CODEGEN--\":295:321   */\n      and\n        /* \"--CODEGEN--\":356:360   */\n      dup2\n        /* \"--CODEGEN--\":350:353   */\n      dup5\n        /* \"--CODEGEN--\":344:354   */\n      mload\n        /* \"--CODEGEN--\":340:361   */\n      and\n        /* \"--CODEGEN--\":389:396   */\n      dup1\n        /* \"--CODEGEN--\":380:387   */\n      dup3\n        /* \"--CODEGEN--\":377:397   */\n      or\n        /* \"--CODEGEN--\":372:375   */\n      dup6\n        /* \"--CODEGEN--\":365:398   */\n      mstore\n        /* \"--CODEGEN--\":3:402   */\n      pop\n      pop\n      pop\n        /* \"contracts/Congress.sol\":3954:4005  sha3(beneficiary, etherAmount, transactionBytecode) */\n      pop\n      pop\n      pop\n      swap1\n      pop\n      add\n      swap4\n      pop\n      pop\n      pop\n      pop\n      mload(0x40)\n      dup1\n      swap2\n      sub\n      swap1\n      keccak256\n        /* \"contracts/Congress.sol\":3936:4005  p.proposalHash == sha3(beneficiary, etherAmount, transactionBytecode) */\n      not(0x0)\n      and\n        /* \"contracts/Congress.sol\":3936:3937  p */\n      dup2\n        /* \"contracts/Congress.sol\":3936:3950  p.proposalHash */\n      0x7\n      add\n      sload\n        /* \"contracts/Congress.sol\":3936:4005  p.proposalHash == sha3(beneficiary, etherAmount, transactionBytecode) */\n      not(0x0)\n      and\n      eq\n        /* \"contracts/Congress.sol\":3929:4005  return p.proposalHash == sha3(beneficiary, etherAmount, transactionBytecode) */\n      swap2\n      pop\n        /* \"contracts/Congress.sol\":3668:4012  function checkProposalCode(... */\n      pop\n      swap5\n      swap4\n      pop\n      pop\n      pop\n      pop\n      jump\t// out\n        /* \"contracts/Congress.sol\":49:69  address public admin */\n    tag_75:\n      0x0\n      dup1\n      swap1\n      sload\n      swap1\n      0x100\n      exp\n      swap1\n      div\n      0xffffffffffffffffffffffffffffffffffffffff\n      and\n      dup2\n      jump\t// out\n        /* \"contracts/Congress.sol\":303:5120  contract Congress is admined {... */\n    tag_93:\n      dup3\n      dup1\n      sload\n      0x1\n      dup2\n      0x1\n      and\n      iszero\n      0x100\n      mul\n      sub\n      and\n      0x2\n      swap1\n      div\n      swap1\n      0x0\n      mstore\n      keccak256(0x0, 0x20)\n      swap1\n      0x1f\n      add\n      0x20\n      swap1\n      div\n      dup2\n      add\n      swap3\n      dup3\n      0x1f\n      lt\n      tag_165\n      jumpi\n      dup1\n      sload\n      dup6\n      sstore\n      jump(tag_164)\n    tag_165:\n      dup3\n      dup1\n      add\n      0x1\n      add\n      dup6\n      sstore\n      dup3\n      iszero\n      tag_164\n      jumpi\n      0x0\n      mstore\n      keccak256(0x0, 0x20)\n      swap2\n      0x1f\n      add\n      0x20\n      swap1\n      div\n      dup3\n      add\n    tag_166:\n      dup3\n      dup2\n      gt\n      iszero\n      tag_167\n      jumpi\n      dup3\n      sload\n      dup3\n      sstore\n      swap2\n      0x1\n      add\n      swap2\n      swap1\n      0x1\n      add\n      swap1\n      jump(tag_166)\n    tag_167:\n    tag_164:\n      pop\n      swap1\n      pop\n      tag_168\n      swap2\n      swap1\n      jump\t// in(tag_169)\n    tag_168:\n      pop\n      swap1\n      jump\t// out\n    tag_97:\n      pop\n      dup1\n      sload\n      0x1\n      dup2\n      0x1\n      and\n      iszero\n      0x100\n      mul\n      sub\n      and\n      0x2\n      swap1\n      div\n      0x0\n      dup3\n      sstore\n      dup1\n      0x1f\n      lt\n      tag_171\n      jumpi\n      pop\n      jump(tag_170)\n    tag_171:\n      0x1f\n      add\n      0x20\n      swap1\n      div\n      swap1\n      0x0\n      mstore\n      keccak256(0x0, 0x20)\n      swap1\n      dup2\n      add\n      swap1\n      tag_172\n      swap2\n      swap1\n      jump\t// in(tag_169)\n    tag_172:\n    tag_170:\n      pop\n      jump\t// out\n    tag_99:\n      dup2\n      sload\n      dup2\n      dup4\n      sstore\n      dup2\n      dup2\n      gt\n      iszero\n      tag_173\n      jumpi\n      0x3\n      mul\n      dup2\n      0x3\n      mul\n      dup4\n      0x0\n      mstore\n      keccak256(0x0, 0x20)\n      swap2\n      dup3\n      add\n      swap2\n      add\n      tag_174\n      swap2\n      swap1\n      jump\t// in(tag_175)\n    tag_174:\n    tag_173:\n      pop\n      pop\n      pop\n      jump\t// out\n    tag_126:\n      dup2\n      sload\n      dup2\n      dup4\n      sstore\n      dup2\n      dup2\n      gt\n      iszero\n      tag_176\n      jumpi\n      0xa\n      mul\n      dup2\n      0xa\n      mul\n      dup4\n      0x0\n      mstore\n      keccak256(0x0, 0x20)\n      swap2\n      dup3\n      add\n      swap2\n      add\n      tag_177\n      swap2\n      swap1\n      jump\t// in(tag_178)\n    tag_177:\n    tag_176:\n      pop\n      pop\n      pop\n      jump\t// out\n    tag_130:\n      dup3\n      dup1\n      sload\n      0x1\n      dup2\n      0x1\n      and\n      iszero\n      0x100\n      mul\n      sub\n      and\n      0x2\n      swap1\n      div\n      swap1\n      0x0\n      mstore\n      keccak256(0x0, 0x20)\n      swap1\n      0x1f\n      add\n      0x20\n      swap1\n      div\n      dup2\n      add\n      swap3\n      dup3\n      0x1f\n      lt\n      tag_180\n      jumpi\n      dup1\n      mload\n      not(0xff)\n      and\n      dup4\n      dup1\n      add\n      or\n      dup6\n      sstore\n      jump(tag_179)\n    tag_180:\n      dup3\n      dup1\n      add\n      0x1\n      add\n      dup6\n      sstore\n      dup3\n      iszero\n      tag_179\n      jumpi\n      swap2\n      dup3\n      add\n    tag_181:\n      dup3\n      dup2\n      gt\n      iszero\n      tag_182\n      jumpi\n      dup3\n      mload\n      dup3\n      sstore\n      swap2\n      0x20\n      add\n      swap2\n      swap1\n      0x1\n      add\n      swap1\n      jump(tag_181)\n    tag_182:\n    tag_179:\n      pop\n      swap1\n      pop\n      tag_183\n      swap2\n      swap1\n      jump\t// in(tag_169)\n    tag_183:\n      pop\n      swap1\n      jump\t// out\n    tag_145:\n      dup3\n      dup1\n      sload\n      0x1\n      dup2\n      0x1\n      and\n      iszero\n      0x100\n      mul\n      sub\n      and\n      0x2\n      swap1\n      div\n      swap1\n      0x0\n      mstore\n      keccak256(0x0, 0x20)\n      swap1\n      0x1f\n      add\n      0x20\n      swap1\n      div\n      dup2\n      add\n      swap3\n      dup3\n      0x1f\n      lt\n      tag_185\n      jumpi\n      dup1\n      mload\n      not(0xff)\n      and\n      dup4\n      dup1\n      add\n      or\n      dup6\n      sstore\n      jump(tag_184)\n    tag_185:\n      dup3\n      dup1\n      add\n      0x1\n      add\n      dup6\n      sstore\n      dup3\n      iszero\n      tag_184\n      jumpi\n      swap2\n      dup3\n      add\n    tag_186:\n      dup3\n      dup2\n      gt\n      iszero\n      tag_187\n      jumpi\n      dup3\n      mload\n      dup3\n      sstore\n      swap2\n      0x20\n      add\n      swap2\n      swap1\n      0x1\n      add\n      swap1\n      jump(tag_186)\n    tag_187:\n    tag_184:\n      pop\n      swap1\n      pop\n      tag_188\n      swap2\n      swap1\n      jump\t// in(tag_169)\n    tag_188:\n      pop\n      swap1\n      jump\t// out\n    tag_169:\n      tag_189\n      swap2\n      swap1\n    tag_190:\n      dup1\n      dup3\n      gt\n      iszero\n      tag_191\n      jumpi\n      0x0\n      dup2\n      0x0\n      swap1\n      sstore\n      pop\n      0x1\n      add\n      jump(tag_190)\n    tag_191:\n      pop\n      swap1\n      jump\n    tag_189:\n      swap1\n      jump\t// out\n    tag_175:\n      tag_192\n      swap2\n      swap1\n    tag_193:\n      dup1\n      dup3\n      gt\n      iszero\n      tag_194\n      jumpi\n      0x0\n      dup1\n      dup3\n      add\n      exp(0x100, 0x0)\n      dup2\n      sload\n      swap1\n      0xffffffffffffffffffffffffffffffffffffffff\n      mul\n      not\n      and\n      swap1\n      sstore\n      0x1\n      dup3\n      add\n      0x0\n      tag_195\n      swap2\n      swap1\n      jump\t// in(tag_97)\n    tag_195:\n      0x2\n      dup3\n      add\n      0x0\n      swap1\n      sstore\n      pop\n      0x3\n      add\n      jump(tag_193)\n    tag_194:\n      pop\n      swap1\n      jump\n    tag_192:\n      swap1\n      jump\t// out\n    tag_178:\n      tag_196\n      swap2\n      swap1\n    tag_197:\n      dup1\n      dup3\n      gt\n      iszero\n      tag_198\n      jumpi\n      0x0\n      dup1\n      dup3\n      add\n      exp(0x100, 0x0)\n      dup2\n      sload\n      swap1\n      0xffffffffffffffffffffffffffffffffffffffff\n      mul\n      not\n      and\n      swap1\n      sstore\n      0x1\n      dup3\n      add\n      0x0\n      swap1\n      sstore\n      0x2\n      dup3\n      add\n      0x0\n      tag_199\n      swap2\n      swap1\n      jump\t// in(tag_97)\n    tag_199:\n      0x3\n      dup3\n      add\n      0x0\n      swap1\n      sstore\n      0x4\n      dup3\n      add\n      exp(0x100, 0x0)\n      dup2\n      sload\n      swap1\n      0xff\n      mul\n      not\n      and\n      swap1\n      sstore\n      0x4\n      dup3\n      add\n      exp(0x100, 0x1)\n      dup2\n      sload\n      swap1\n      0xff\n      mul\n      not\n      and\n      swap1\n      sstore\n      0x5\n      dup3\n      add\n      0x0\n      swap1\n      sstore\n      0x6\n      dup3\n      add\n      0x0\n      swap1\n      sstore\n      0x7\n      dup3\n      add\n      0x0\n      swap1\n      sstore\n      0x8\n      dup3\n      add\n      0x0\n      tag_200\n      swap2\n      swap1\n      jump\t// in(tag_201)\n    tag_200:\n      pop\n      0xa\n      add\n      jump(tag_197)\n    tag_198:\n      pop\n      swap1\n      jump\n    tag_196:\n      swap1\n      jump\t// out\n    tag_201:\n      pop\n      dup1\n      sload\n      0x0\n      dup3\n      sstore\n      0x3\n      mul\n      swap1\n      0x0\n      mstore\n      keccak256(0x0, 0x20)\n      swap1\n      dup2\n      add\n      swap1\n      tag_203\n      swap2\n      swap1\n      jump\t// in(tag_204)\n    tag_203:\n      pop\n      jump\t// out\n    tag_204:\n      tag_205\n      swap2\n      swap1\n    tag_206:\n      dup1\n      dup3\n      gt\n      iszero\n      tag_207\n      jumpi\n      0x0\n      dup1\n      dup3\n      add\n      exp(0x100, 0x0)\n      dup2\n      sload\n      swap1\n      0xff\n      mul\n      not\n      and\n      swap1\n      sstore\n      0x1\n      dup3\n      add\n      0x0\n      tag_208\n      swap2\n      swap1\n      jump\t// in(tag_97)\n    tag_208:\n      0x2\n      dup3\n      add\n      0x0\n      swap1\n      sstore\n      pop\n      0x3\n      add\n      jump(tag_206)\n    tag_207:\n      pop\n      swap1\n      jump\n    tag_205:\n      swap1\n      jump\t// out\n\n    auxdata: 0xa165627a7a72305820c0c00f72fd5478401a0850d6a65b599e2221758bc43523f472bae96c31b0ab6f0029\n}\n",
				"bytecode": {
					"linkReferences": {},
					"object": "60806040526040516080806200215083398101806040528101908080519060200190929190805190602001909291908051906020019092919080519060200190929190505050336000806101000a81548173ffffffffffffffffffffffffffffffffffffffff021916908373ffffffffffffffffffffffffffffffffffffffff160217905550620000a1848484620001ef640100000000026401000000009004565b60008173ffffffffffffffffffffffffffffffffffffffff1614156200010757336000806101000a81548173ffffffffffffffffffffffffffffffffffffffff021916908373ffffffffffffffffffffffffffffffffffffffff16021790555062000148565b806000806101000a81548173ffffffffffffffffffffffffffffffffffffffff021916908373ffffffffffffffffffffffffffffffffffffffff1602179055505b620001746000602060405190810160405280600081525062000266640100000000026401000000009004565b620001e56000809054906101000a900473ffffffffffffffffffffffffffffffffffffffff166040805190810160405280600581526020017f41646d696e00000000000000000000000000000000000000000000000000000081525062000266640100000000026401000000009004565b505050506200063e565b6000809054906101000a900473ffffffffffffffffffffffffffffffffffffffff1673ffffffffffffffffffffffffffffffffffffffff163373ffffffffffffffffffffffffffffffffffffffff16141515156200024c57600080fd5b826001819055508160028190555080600381905550505050565b6000806000809054906101000a900473ffffffffffffffffffffffffffffffffffffffff1673ffffffffffffffffffffffffffffffffffffffff163373ffffffffffffffffffffffffffffffffffffffff1614151515620002c657600080fd5b6000600660008673ffffffffffffffffffffffffffffffffffffffff1673ffffffffffffffffffffffffffffffffffffffff1681526020019081526020016000205414156200044257600780549050600660008673ffffffffffffffffffffffffffffffffffffffff1673ffffffffffffffffffffffffffffffffffffffff168152602001908152602001600020819055506007805490509150600160078054905001600781620003789190620004ab565b506060604051908101604052808573ffffffffffffffffffffffffffffffffffffffff16815260200184815260200142815250600783815481101515620003bb57fe5b906000526020600020906003020160008201518160000160006101000a81548173ffffffffffffffffffffffffffffffffffffffff021916908373ffffffffffffffffffffffffffffffffffffffff16021790555060208201518160010190805190602001906200042e929190620004e0565b5060408201518160020155905050620004a5565b600660008573ffffffffffffffffffffffffffffffffffffffff1673ffffffffffffffffffffffffffffffffffffffff1681526020019081526020016000205491506007828154811015156200049457fe5b906000526020600020906003020190505b50505050565b815481835581811115620004db57600302816003028360005260206000209182019101620004da919062000567565b5b505050565b828054600181600116156101000203166002900490600052602060002090601f016020900481019282601f106200052357805160ff191683800117855562000554565b8280016001018555821562000554579182015b828111156200055357825182559160200191906001019062000536565b5b509050620005639190620005ca565b5090565b620005c791905b80821115620005c357600080820160006101000a81549073ffffffffffffffffffffffffffffffffffffffff0219169055600182016000620005b19190620005f2565b6002820160009055506003016200056e565b5090565b90565b620005ef91905b80821115620005eb576000816000905550600101620005d1565b5090565b90565b50805460018160011615610100020316600290046000825580601f106200061a57506200063b565b601f0160209004906000526020600020908101906200063a9190620005ca565b5b50565b611b02806200064e6000396000f3006080604052600436106100e6576000357c0100000000000000000000000000000000000000000000000000000000900463ffffffff168063013cf08b146100e85780630b1ca49a14610202578063237e94921461024557806339106821146102b8578063400e39491461030f5780635daf08ca1461033a5780638160f0b51461041a578063aa02a90f14610445578063b1050da514610470578063bcca1fd31461055d578063bfee24c21461059e578063c127c247146105c9578063d3c0715b14610652578063db529e4e146106e5578063eceb294514610728578063f851a440146107dd575b005b3480156100f457600080fd5b5061011360048036038101908080359060200190929190505050610834565b604051808a73ffffffffffffffffffffffffffffffffffffffff1673ffffffffffffffffffffffffffffffffffffffff1681526020018981526020018060200188815260200187151515158152602001861515151581526020018581526020018481526020018360001916600019168152602001828103825289818151815260200191508051906020019080838360005b838110156101bf5780820151818401526020810190506101a4565b50505050905090810190601f1680156101ec5780820380516001836020036101000a031916815260200191505b509a505050505050505050505060405180910390f35b34801561020e57600080fd5b50610243600480360381019080803573ffffffffffffffffffffffffffffffffffffffff169060200190929190505050610963565b005b34801561025157600080fd5b506102b660048036038101908080359060200190929190803590602001908201803590602001908080601f0160208091040260200160405190810160405280939291908181526020018383808284378201915050505050509192919290505050610bc8565b005b3480156102c457600080fd5b506102f9600480360381019080803573ffffffffffffffffffffffffffffffffffffffff169060200190929190505050610e44565b6040518082815260200191505060405180910390f35b34801561031b57600080fd5b50610324610e5c565b6040518082815260200191505060405180910390f35b34801561034657600080fd5b5061036560048036038101908080359060200190929190505050610e62565b604051808473ffffffffffffffffffffffffffffffffffffffff1673ffffffffffffffffffffffffffffffffffffffff16815260200180602001838152602001828103825284818151815260200191508051906020019080838360005b838110156103dd5780820151818401526020810190506103c2565b50505050905090810190601f16801561040a5780820380516001836020036101000a031916815260200191505b5094505050505060405180910390f35b34801561042657600080fd5b5061042f610f53565b6040518082815260200191505060405180910390f35b34801561045157600080fd5b5061045a610f59565b6040518082815260200191505060405180910390f35b34801561047c57600080fd5b50610547600480360381019080803573ffffffffffffffffffffffffffffffffffffffff16906020019092919080359060200190929190803590602001908201803590602001908080601f0160208091040260200160405190810160405280939291908181526020018383808284378201915050505050509192919290803590602001908201803590602001908080601f0160208091040260200160405190810160405280939291908181526020018383808284378201915050505050509192919290505050610f5f565b6040518082815260200191505060405180910390f35b34801561056957600080fd5b5061059c600480360381019080803590602001909291908035906020019092919080359060200190929190505050611177565b005b3480156105aa57600080fd5b506105b36111ed565b6040518082815260200191505060405180910390f35b3480156105d557600080fd5b50610650600480360381019080803573ffffffffffffffffffffffffffffffffffffffff169060200190929190803590602001908201803590602001908080601f01602080910402602001604051908101604052809392919081815260200183838082843782019150505050505091929192905050506111f3565b005b34801561065e57600080fd5b506106cf60048036038101908080359060200190929190803515159060200190929190803590602001908201803590602001908080601f016020809104026020016040519081016040528093929190818152602001838380828437820191505050505050919291929050505061142f565b6040518082815260200191505060405180910390f35b3480156106f157600080fd5b50610726600480360381019080803573ffffffffffffffffffffffffffffffffffffffff1690602001909291905050506115aa565b005b34801561073457600080fd5b506107c360048036038101908080359060200190929190803573ffffffffffffffffffffffffffffffffffffffff16906020019092919080359060200190929190803590602001908201803590602001908080601f01602080910402602001604051908101604052809392919081815260200183838082843782019150505050505091929192905050506115ed565b604051808215151515815260200191505060405180910390f35b3480156107e957600080fd5b506107f26116d6565b604051808273ffffffffffffffffffffffffffffffffffffffff1673ffffffffffffffffffffffffffffffffffffffff16815260200191505060405180910390f35b60048181548110151561084357fe5b90600052602060002090600a02016000915090508060000160009054906101000a900473ffffffffffffffffffffffffffffffffffffffff1690806001015490806002018054600181600116156101000203166002900480601f01602080910402602001604051908101604052809291908181526020018280546001816001161561010002031660029004801561091b5780601f106108f05761010080835404028352916020019161091b565b820191906000526020600020905b8154815290600101906020018083116108fe57829003601f168201915b5050505050908060030154908060040160009054906101000a900460ff16908060040160019054906101000a900460ff16908060050154908060060154908060070154905089565b60008060009054906101000a900473ffffffffffffffffffffffffffffffffffffffff1673ffffffffffffffffffffffffffffffffffffffff163373ffffffffffffffffffffffffffffffffffffffff16141515156109c157600080fd5b6000600660008473ffffffffffffffffffffffffffffffffffffffff1673ffffffffffffffffffffffffffffffffffffffff168152602001908152602001600020541415610a0e57600080fd5b600660008373ffffffffffffffffffffffffffffffffffffffff1673ffffffffffffffffffffffffffffffffffffffff1681526020019081526020016000205490505b600160078054905003811015610b4757600760018201815481101515610a7357fe5b9060005260206000209060030201600782815481101515610a9057fe5b90600052602060002090600302016000820160009054906101000a900473ffffffffffffffffffffffffffffffffffffffff168160000160006101000a81548173ffffffffffffffffffffffffffffffffffffffff021916908373ffffffffffffffffffffffffffffffffffffffff16021790555060018201816001019080546001816001161561010002031660029004610b2c9291906116fb565b50600282015481600201559050508080600101915050610a51565b6007600160078054905003815481101515610b5e57fe5b9060005260206000209060030201600080820160006101000a81549073ffffffffffffffffffffffffffffffffffffffff0219169055600182016000610ba49190611782565b600282016000905550506007805480919060019003610bc391906117ca565b505050565b6000600483815481101515610bd957fe5b90600052602060002090600a020190508060030154421080610c0957508060040160009054906101000a900460ff165b80610cf557508060000160009054906101000a900473ffffffffffffffffffffffffffffffffffffffff16816001015483604051808473ffffffffffffffffffffffffffffffffffffffff1673ffffffffffffffffffffffffffffffffffffffff166c0100000000000000000000000002815260140183815260200182805190602001908083835b602083101515610cb65780518252602082019150602081019050602083039250610c91565b6001836020036101000a038019825116818451168082178552505050505050905001935050505060405180910390206000191681600701546000191614155b80610d0557506001548160050154105b15610d0f57600080fd5b60035481600601541315610e215760018160040160006101000a81548160ff0219169083151502179055508060000160009054906101000a900473ffffffffffffffffffffffffffffffffffffffff1673ffffffffffffffffffffffffffffffffffffffff16670de0b6b3a76400008260010154028360405180828051906020019080838360005b83811015610db2578082015181840152602081019050610d97565b50505050905090810190601f168015610ddf5780820380516001836020036101000a031916815260200191505b5091505060006040518083038185875af1925050501515610dff57600080fd5b60018160040160016101000a81548160ff021916908315150217905550610e3f565b60018160040160016101000a81548160ff0219169083151502179055505b505050565b60066020528060005260406000206000915090505481565b60055481565b600781815481101515610e7157fe5b90600052602060002090600302016000915090508060000160009054906101000a900473ffffffffffffffffffffffffffffffffffffffff1690806001018054600181600116156101000203166002900480601f016020809104026020016040519081016040528092919081815260200182805460018160011615610100020316600290048015610f435780601f10610f1857610100808354040283529160200191610f43565b820191906000526020600020905b815481529060010190602001808311610f2657829003601f168201915b5050505050908060020154905083565b60015481565b60035481565b6000806000600660003373ffffffffffffffffffffffffffffffffffffffff1673ffffffffffffffffffffffffffffffffffffffff16815260200190815260200160002054141515610fb057600080fd5b6004805490509150600160048054905001600481610fce91906117fc565b50600482815481101515610fde57fe5b90600052602060002090600a02019050858160000160006101000a81548173ffffffffffffffffffffffffffffffffffffffff021916908373ffffffffffffffffffffffffffffffffffffffff1602179055508481600101819055508381600201908051906020019061105292919061182e565b50858584604051808473ffffffffffffffffffffffffffffffffffffffff1673ffffffffffffffffffffffffffffffffffffffff166c0100000000000000000000000002815260140183815260200182805190602001908083835b6020831015156110d257805182526020820191506020810190506020830392506110ad565b6001836020036101000a03801982511681845116808217855250505050505090500193505050506040518091039020816007018160001916905550603c600254420101816003018190555060008160040160006101000a81548160ff02191690831515021790555060008160040160016101000a81548160ff021916908315150217905550600081600501819055506001820160058190555081915050949350505050565b6000809054906101000a900473ffffffffffffffffffffffffffffffffffffffff1673ffffffffffffffffffffffffffffffffffffffff163373ffffffffffffffffffffffffffffffffffffffff16141515156111d357600080fd5b826001819055508160028190555080600381905550505050565b60025481565b6000806000809054906101000a900473ffffffffffffffffffffffffffffffffffffffff1673ffffffffffffffffffffffffffffffffffffffff163373ffffffffffffffffffffffffffffffffffffffff161415151561125257600080fd5b6000600660008673ffffffffffffffffffffffffffffffffffffffff1673ffffffffffffffffffffffffffffffffffffffff1681526020019081526020016000205414156113c757600780549050600660008673ffffffffffffffffffffffffffffffffffffffff1673ffffffffffffffffffffffffffffffffffffffff16815260200190815260200160002081905550600780549050915060016007805490500160078161130191906117ca565b506060604051908101604052808573ffffffffffffffffffffffffffffffffffffffff1681526020018481526020014281525060078381548110151561134357fe5b906000526020600020906003020160008201518160000160006101000a81548173ffffffffffffffffffffffffffffffffffffffff021916908373ffffffffffffffffffffffffffffffffffffffff16021790555060208201518160010190805190602001906113b49291906118ae565b5060408201518160020155905050611429565b600660008573ffffffffffffffffffffffffffffffffffffffff1673ffffffffffffffffffffffffffffffffffffffff16815260200190815260200160002054915060078281548110151561141857fe5b906000526020600020906003020190505b50505050565b6000806000600660003373ffffffffffffffffffffffffffffffffffffffff1673ffffffffffffffffffffffffffffffffffffffff1681526020019081526020016000205414151561148057600080fd5b60048581548110151561148f57fe5b90600052602060002090600a020190508060090160003373ffffffffffffffffffffffffffffffffffffffff1673ffffffffffffffffffffffffffffffffffffffff16815260200190815260200160002060009054906101000a900460ff16156114f857600080fd5b60018160090160003373ffffffffffffffffffffffffffffffffffffffff1673ffffffffffffffffffffffffffffffffffffffff16815260200190815260200160002060006101000a81548160ff0219169083151502179055508060050160008154809291906001019190505550831561158557806006016000815480929190600101919050555061159b565b8060060160008154809291906001900391905055505b80600501549150509392505050565b806000806101000a81548173ffffffffffffffffffffffffffffffffffffffff021916908373ffffffffffffffffffffffffffffffffffffffff16021790555050565b6000806004868154811015156115ff57fe5b90600052602060002090600a02019050848484604051808473ffffffffffffffffffffffffffffffffffffffff1673ffffffffffffffffffffffffffffffffffffffff166c0100000000000000000000000002815260140183815260200182805190602001908083835b60208310151561168e5780518252602082019150602081019050602083039250611669565b6001836020036101000a038019825116818451168082178552505050505050905001935050505060405180910390206000191681600701546000191614915050949350505050565b6000809054906101000a900473ffffffffffffffffffffffffffffffffffffffff1681565b828054600181600116156101000203166002900490600052602060002090601f016020900481019282601f106117345780548555611771565b8280016001018555821561177157600052602060002091601f016020900482015b82811115611770578254825591600101919060010190611755565b5b50905061177e919061192e565b5090565b50805460018160011615610100020316600290046000825580601f106117a857506117c7565b601f0160209004906000526020600020908101906117c6919061192e565b5b50565b8154818355818111156117f7576003028160030283600052602060002091820191016117f69190611953565b5b505050565b81548183558181111561182957600a0281600a02836000526020600020918201910161182891906119b1565b5b505050565b828054600181600116156101000203166002900490600052602060002090601f016020900481019282601f1061186f57805160ff191683800117855561189d565b8280016001018555821561189d579182015b8281111561189c578251825591602001919060010190611881565b5b5090506118aa919061192e565b5090565b828054600181600116156101000203166002900490600052602060002090601f016020900481019282601f106118ef57805160ff191683800117855561191d565b8280016001018555821561191d579182015b8281111561191c578251825591602001919060010190611901565b5b50905061192a919061192e565b5090565b61195091905b8082111561194c576000816000905550600101611934565b5090565b90565b6119ae91905b808211156119aa57600080820160006101000a81549073ffffffffffffffffffffffffffffffffffffffff02191690556001820160006119999190611782565b600282016000905550600301611959565b5090565b90565b611a6491905b80821115611a6057600080820160006101000a81549073ffffffffffffffffffffffffffffffffffffffff021916905560018201600090556002820160006119ff9190611782565b60038201600090556004820160006101000a81549060ff02191690556004820160016101000a81549060ff0219169055600582016000905560068201600090556007820160009055600882016000611a579190611a67565b50600a016119b7565b5090565b90565b5080546000825560030290600052602060002090810190611a889190611a8b565b50565b611ad391905b80821115611acf57600080820160006101000a81549060ff0219169055600182016000611abe9190611782565b600282016000905550600301611a91565b5090565b905600a165627a7a72305820c0c00f72fd5478401a0850d6a65b599e2221758bc43523f472bae96c31b0ab6f0029",
					"opcodes": "PUSH1 0x80 PUSH1 0x40 MSTORE PUSH1 0x40 MLOAD PUSH1 0x80 DUP1 PUSH3 0x2150 DUP4 CODECOPY DUP2 ADD DUP1 PUSH1 0x40 MSTORE DUP2 ADD SWAP1 DUP1 DUP1 MLOAD SWAP1 PUSH1 0x20 ADD SWAP1 SWAP3 SWAP2 SWAP1 DUP1 MLOAD SWAP1 PUSH1 0x20 ADD SWAP1 SWAP3 SWAP2 SWAP1 DUP1 MLOAD SWAP1 PUSH1 0x20 ADD SWAP1 SWAP3 SWAP2 SWAP1 DUP1 MLOAD SWAP1 PUSH1 0x20 ADD SWAP1 SWAP3 SWAP2 SWAP1 POP POP POP CALLER PUSH1 0x0 DUP1 PUSH2 0x100 EXP DUP2 SLOAD DUP2 PUSH20 0xFFFFFFFFFFFFFFFFFFFFFFFFFFFFFFFFFFFFFFFF MUL NOT AND SWAP1 DUP4 PUSH20 0xFFFFFFFFFFFFFFFFFFFFFFFFFFFFFFFFFFFFFFFF AND MUL OR SWAP1 SSTORE POP PUSH3 0xA1 DUP5 DUP5 DUP5 PUSH3 0x1EF PUSH5 0x100000000 MUL PUSH5 0x100000000 SWAP1 DIV JUMP JUMPDEST PUSH1 0x0 DUP2 PUSH20 0xFFFFFFFFFFFFFFFFFFFFFFFFFFFFFFFFFFFFFFFF AND EQ ISZERO PUSH3 0x107 JUMPI CALLER PUSH1 0x0 DUP1 PUSH2 0x100 EXP DUP2 SLOAD DUP2 PUSH20 0xFFFFFFFFFFFFFFFFFFFFFFFFFFFFFFFFFFFFFFFF MUL NOT AND SWAP1 DUP4 PUSH20 0xFFFFFFFFFFFFFFFFFFFFFFFFFFFFFFFFFFFFFFFF AND MUL OR SWAP1 SSTORE POP PUSH3 0x148 JUMP JUMPDEST DUP1 PUSH1 0x0 DUP1 PUSH2 0x100 EXP DUP2 SLOAD DUP2 PUSH20 0xFFFFFFFFFFFFFFFFFFFFFFFFFFFFFFFFFFFFFFFF MUL NOT AND SWAP1 DUP4 PUSH20 0xFFFFFFFFFFFFFFFFFFFFFFFFFFFFFFFFFFFFFFFF AND MUL OR SWAP1 SSTORE POP JUMPDEST PUSH3 0x174 PUSH1 0x0 PUSH1 0x20 PUSH1 0x40 MLOAD SWAP1 DUP2 ADD PUSH1 0x40 MSTORE DUP1 PUSH1 0x0 DUP2 MSTORE POP PUSH3 0x266 PUSH5 0x100000000 MUL PUSH5 0x100000000 SWAP1 DIV JUMP JUMPDEST PUSH3 0x1E5 PUSH1 0x0 DUP1 SWAP1 SLOAD SWAP1 PUSH2 0x100 EXP SWAP1 DIV PUSH20 0xFFFFFFFFFFFFFFFFFFFFFFFFFFFFFFFFFFFFFFFF AND PUSH1 0x40 DUP1 MLOAD SWAP1 DUP2 ADD PUSH1 0x40 MSTORE DUP1 PUSH1 0x5 DUP2 MSTORE PUSH1 0x20 ADD PUSH32 0x41646D696E000000000000000000000000000000000000000000000000000000 DUP2 MSTORE POP PUSH3 0x266 PUSH5 0x100000000 MUL PUSH5 0x100000000 SWAP1 DIV JUMP JUMPDEST POP POP POP POP PUSH3 0x63E JUMP JUMPDEST PUSH1 0x0 DUP1 SWAP1 SLOAD SWAP1 PUSH2 0x100 EXP SWAP1 DIV PUSH20 0xFFFFFFFFFFFFFFFFFFFFFFFFFFFFFFFFFFFFFFFF AND PUSH20 0xFFFFFFFFFFFFFFFFFFFFFFFFFFFFFFFFFFFFFFFF AND CALLER PUSH20 0xFFFFFFFFFFFFFFFFFFFFFFFFFFFFFFFFFFFFFFFF AND EQ ISZERO ISZERO ISZERO PUSH3 0x24C JUMPI PUSH1 0x0 DUP1 REVERT JUMPDEST DUP3 PUSH1 0x1 DUP2 SWAP1 SSTORE POP DUP2 PUSH1 0x2 DUP2 SWAP1 SSTORE POP DUP1 PUSH1 0x3 DUP2 SWAP1 SSTORE POP POP POP POP JUMP JUMPDEST PUSH1 0x0 DUP1 PUSH1 0x0 DUP1 SWAP1 SLOAD SWAP1 PUSH2 0x100 EXP SWAP1 DIV PUSH20 0xFFFFFFFFFFFFFFFFFFFFFFFFFFFFFFFFFFFFFFFF AND PUSH20 0xFFFFFFFFFFFFFFFFFFFFFFFFFFFFFFFFFFFFFFFF AND CALLER PUSH20 0xFFFFFFFFFFFFFFFFFFFFFFFFFFFFFFFFFFFFFFFF AND EQ ISZERO ISZERO ISZERO PUSH3 0x2C6 JUMPI PUSH1 0x0 DUP1 REVERT JUMPDEST PUSH1 0x0 PUSH1 0x6 PUSH1 0x0 DUP7 PUSH20 0xFFFFFFFFFFFFFFFFFFFFFFFFFFFFFFFFFFFFFFFF AND PUSH20 0xFFFFFFFFFFFFFFFFFFFFFFFFFFFFFFFFFFFFFFFF AND DUP2 MSTORE PUSH1 0x20 ADD SWAP1 DUP2 MSTORE PUSH1 0x20 ADD PUSH1 0x0 KECCAK256 SLOAD EQ ISZERO PUSH3 0x442 JUMPI PUSH1 0x7 DUP1 SLOAD SWAP1 POP PUSH1 0x6 PUSH1 0x0 DUP7 PUSH20 0xFFFFFFFFFFFFFFFFFFFFFFFFFFFFFFFFFFFFFFFF AND PUSH20 0xFFFFFFFFFFFFFFFFFFFFFFFFFFFFFFFFFFFFFFFF AND DUP2 MSTORE PUSH1 0x20 ADD SWAP1 DUP2 MSTORE PUSH1 0x20 ADD PUSH1 0x0 KECCAK256 DUP2 SWAP1 SSTORE POP PUSH1 0x7 DUP1 SLOAD SWAP1 POP SWAP2 POP PUSH1 0x1 PUSH1 0x7 DUP1 SLOAD SWAP1 POP ADD PUSH1 0x7 DUP2 PUSH3 0x378 SWAP2 SWAP1 PUSH3 0x4AB JUMP JUMPDEST POP PUSH1 0x60 PUSH1 0x40 MLOAD SWAP1 DUP2 ADD PUSH1 0x40 MSTORE DUP1 DUP6 PUSH20 0xFFFFFFFFFFFFFFFFFFFFFFFFFFFFFFFFFFFFFFFF AND DUP2 MSTORE PUSH1 0x20 ADD DUP5 DUP2 MSTORE PUSH1 0x20 ADD TIMESTAMP DUP2 MSTORE POP PUSH1 0x7 DUP4 DUP2 SLOAD DUP2 LT ISZERO ISZERO PUSH3 0x3BB JUMPI INVALID JUMPDEST SWAP1 PUSH1 0x0 MSTORE PUSH1 0x20 PUSH1 0x0 KECCAK256 SWAP1 PUSH1 0x3 MUL ADD PUSH1 0x0 DUP3 ADD MLOAD DUP2 PUSH1 0x0 ADD PUSH1 0x0 PUSH2 0x100 EXP DUP2 SLOAD DUP2 PUSH20 0xFFFFFFFFFFFFFFFFFFFFFFFFFFFFFFFFFFFFFFFF MUL NOT AND SWAP1 DUP4 PUSH20 0xFFFFFFFFFFFFFFFFFFFFFFFFFFFFFFFFFFFFFFFF AND MUL OR SWAP1 SSTORE POP PUSH1 0x20 DUP3 ADD MLOAD DUP2 PUSH1 0x1 ADD SWAP1 DUP1 MLOAD SWAP1 PUSH1 0x20 ADD SWAP1 PUSH3 0x42E SWAP3 SWAP2 SWAP1 PUSH3 0x4E0 JUMP JUMPDEST POP PUSH1 0x40 DUP3 ADD MLOAD DUP2 PUSH1 0x2 ADD SSTORE SWAP1 POP POP PUSH3 0x4A5 JUMP JUMPDEST PUSH1 0x6 PUSH1 0x0 DUP6 PUSH20 0xFFFFFFFFFFFFFFFFFFFFFFFFFFFFFFFFFFFFFFFF AND PUSH20 0xFFFFFFFFFFFFFFFFFFFFFFFFFFFFFFFFFFFFFFFF AND DUP2 MSTORE PUSH1 0x20 ADD SWAP1 DUP2 MSTORE PUSH1 0x20 ADD PUSH1 0x0 KECCAK256 SLOAD SWAP2 POP PUSH1 0x7 DUP3 DUP2 SLOAD DUP2 LT ISZERO ISZERO PUSH3 0x494 JUMPI INVALID JUMPDEST SWAP1 PUSH1 0x0 MSTORE PUSH1 0x20 PUSH1 0x0 KECCAK256 SWAP1 PUSH1 0x3 MUL ADD SWAP1 POP JUMPDEST POP POP POP POP JUMP JUMPDEST DUP2 SLOAD DUP2 DUP4 SSTORE DUP2 DUP2 GT ISZERO PUSH3 0x4DB JUMPI PUSH1 0x3 MUL DUP2 PUSH1 0x3 MUL DUP4 PUSH1 0x0 MSTORE PUSH1 0x20 PUSH1 0x0 KECCAK256 SWAP2 DUP3 ADD SWAP2 ADD PUSH3 0x4DA SWAP2 SWAP1 PUSH3 0x567 JUMP JUMPDEST JUMPDEST POP POP POP JUMP JUMPDEST DUP3 DUP1 SLOAD PUSH1 0x1 DUP2 PUSH1 0x1 AND ISZERO PUSH2 0x100 MUL SUB AND PUSH1 0x2 SWAP1 DIV SWAP1 PUSH1 0x0 MSTORE PUSH1 0x20 PUSH1 0x0 KECCAK256 SWAP1 PUSH1 0x1F ADD PUSH1 0x20 SWAP1 DIV DUP2 ADD SWAP3 DUP3 PUSH1 0x1F LT PUSH3 0x523 JUMPI DUP1 MLOAD PUSH1 0xFF NOT AND DUP4 DUP1 ADD OR DUP6 SSTORE PUSH3 0x554 JUMP JUMPDEST DUP3 DUP1 ADD PUSH1 0x1 ADD DUP6 SSTORE DUP3 ISZERO PUSH3 0x554 JUMPI SWAP2 DUP3 ADD JUMPDEST DUP3 DUP2 GT ISZERO PUSH3 0x553 JUMPI DUP3 MLOAD DUP3 SSTORE SWAP2 PUSH1 0x20 ADD SWAP2 SWAP1 PUSH1 0x1 ADD SWAP1 PUSH3 0x536 JUMP JUMPDEST JUMPDEST POP SWAP1 POP PUSH3 0x563 SWAP2 SWAP1 PUSH3 0x5CA JUMP JUMPDEST POP SWAP1 JUMP JUMPDEST PUSH3 0x5C7 SWAP2 SWAP1 JUMPDEST DUP1 DUP3 GT ISZERO PUSH3 0x5C3 JUMPI PUSH1 0x0 DUP1 DUP3 ADD PUSH1 0x0 PUSH2 0x100 EXP DUP2 SLOAD SWAP1 PUSH20 0xFFFFFFFFFFFFFFFFFFFFFFFFFFFFFFFFFFFFFFFF MUL NOT AND SWAP1 SSTORE PUSH1 0x1 DUP3 ADD PUSH1 0x0 PUSH3 0x5B1 SWAP2 SWAP1 PUSH3 0x5F2 JUMP JUMPDEST PUSH1 0x2 DUP3 ADD PUSH1 0x0 SWAP1 SSTORE POP PUSH1 0x3 ADD PUSH3 0x56E JUMP JUMPDEST POP SWAP1 JUMP JUMPDEST SWAP1 JUMP JUMPDEST PUSH3 0x5EF SWAP2 SWAP1 JUMPDEST DUP1 DUP3 GT ISZERO PUSH3 0x5EB JUMPI PUSH1 0x0 DUP2 PUSH1 0x0 SWAP1 SSTORE POP PUSH1 0x1 ADD PUSH3 0x5D1 JUMP JUMPDEST POP SWAP1 JUMP JUMPDEST SWAP1 JUMP JUMPDEST POP DUP1 SLOAD PUSH1 0x1 DUP2 PUSH1 0x1 AND ISZERO PUSH2 0x100 MUL SUB AND PUSH1 0x2 SWAP1 DIV PUSH1 0x0 DUP3 SSTORE DUP1 PUSH1 0x1F LT PUSH3 0x61A JUMPI POP PUSH3 0x63B JUMP JUMPDEST PUSH1 0x1F ADD PUSH1 0x20 SWAP1 DIV SWAP1 PUSH1 0x0 MSTORE PUSH1 0x20 PUSH1 0x0 KECCAK256 SWAP1 DUP2 ADD SWAP1 PUSH3 0x63A SWAP2 SWAP1 PUSH3 0x5CA JUMP JUMPDEST JUMPDEST POP JUMP JUMPDEST PUSH2 0x1B02 DUP1 PUSH3 0x64E PUSH1 0x0 CODECOPY PUSH1 0x0 RETURN STOP PUSH1 0x80 PUSH1 0x40 MSTORE PUSH1 0x4 CALLDATASIZE LT PUSH2 0xE6 JUMPI PUSH1 0x0 CALLDATALOAD PUSH29 0x100000000000000000000000000000000000000000000000000000000 SWAP1 DIV PUSH4 0xFFFFFFFF AND DUP1 PUSH4 0x13CF08B EQ PUSH2 0xE8 JUMPI DUP1 PUSH4 0xB1CA49A EQ PUSH2 0x202 JUMPI DUP1 PUSH4 0x237E9492 EQ PUSH2 0x245 JUMPI DUP1 PUSH4 0x39106821 EQ PUSH2 0x2B8 JUMPI DUP1 PUSH4 0x400E3949 EQ PUSH2 0x30F JUMPI DUP1 PUSH4 0x5DAF08CA EQ PUSH2 0x33A JUMPI DUP1 PUSH4 0x8160F0B5 EQ PUSH2 0x41A JUMPI DUP1 PUSH4 0xAA02A90F EQ PUSH2 0x445 JUMPI DUP1 PUSH4 0xB1050DA5 EQ PUSH2 0x470 JUMPI DUP1 PUSH4 0xBCCA1FD3 EQ PUSH2 0x55D JUMPI DUP1 PUSH4 0xBFEE24C2 EQ PUSH2 0x59E JUMPI DUP1 PUSH4 0xC127C247 EQ PUSH2 0x5C9 JUMPI DUP1 PUSH4 0xD3C0715B EQ PUSH2 0x652 JUMPI DUP1 PUSH4 0xDB529E4E EQ PUSH2 0x6E5 JUMPI DUP1 PUSH4 0xECEB2945 EQ PUSH2 0x728 JUMPI DUP1 PUSH4 0xF851A440 EQ PUSH2 0x7DD JUMPI JUMPDEST STOP JUMPDEST CALLVALUE DUP1 ISZERO PUSH2 0xF4 JUMPI PUSH1 0x0 DUP1 REVERT JUMPDEST POP PUSH2 0x113 PUSH1 0x4 DUP1 CALLDATASIZE SUB DUP2 ADD SWAP1 DUP1 DUP1 CALLDATALOAD SWAP1 PUSH1 0x20 ADD SWAP1 SWAP3 SWAP2 SWAP1 POP POP POP PUSH2 0x834 JUMP JUMPDEST PUSH1 0x40 MLOAD DUP1 DUP11 PUSH20 0xFFFFFFFFFFFFFFFFFFFFFFFFFFFFFFFFFFFFFFFF AND PUSH20 0xFFFFFFFFFFFFFFFFFFFFFFFFFFFFFFFFFFFFFFFF AND DUP2 MSTORE PUSH1 0x20 ADD DUP10 DUP2 MSTORE PUSH1 0x20 ADD DUP1 PUSH1 0x20 ADD DUP9 DUP2 MSTORE PUSH1 0x20 ADD DUP8 ISZERO ISZERO ISZERO ISZERO DUP2 MSTORE PUSH1 0x20 ADD DUP7 ISZERO ISZERO ISZERO ISZERO DUP2 MSTORE PUSH1 0x20 ADD DUP6 DUP2 MSTORE PUSH1 0x20 ADD DUP5 DUP2 MSTORE PUSH1 0x20 ADD DUP4 PUSH1 0x0 NOT AND PUSH1 0x0 NOT AND DUP2 MSTORE PUSH1 0x20 ADD DUP3 DUP2 SUB DUP3 MSTORE DUP10 DUP2 DUP2 MLOAD DUP2 MSTORE PUSH1 0x20 ADD SWAP2 POP DUP1 MLOAD SWAP1 PUSH1 0x20 ADD SWAP1 DUP1 DUP4 DUP4 PUSH1 0x0 JUMPDEST DUP4 DUP2 LT ISZERO PUSH2 0x1BF JUMPI DUP1 DUP3 ADD MLOAD DUP2 DUP5 ADD MSTORE PUSH1 0x20 DUP2 ADD SWAP1 POP PUSH2 0x1A4 JUMP JUMPDEST POP POP POP POP SWAP1 POP SWAP1 DUP2 ADD SWAP1 PUSH1 0x1F AND DUP1 ISZERO PUSH2 0x1EC JUMPI DUP1 DUP3 SUB DUP1 MLOAD PUSH1 0x1 DUP4 PUSH1 0x20 SUB PUSH2 0x100 EXP SUB NOT AND DUP2 MSTORE PUSH1 0x20 ADD SWAP2 POP JUMPDEST POP SWAP11 POP POP POP POP POP POP POP POP POP POP POP PUSH1 0x40 MLOAD DUP1 SWAP2 SUB SWAP1 RETURN JUMPDEST CALLVALUE DUP1 ISZERO PUSH2 0x20E JUMPI PUSH1 0x0 DUP1 REVERT JUMPDEST POP PUSH2 0x243 PUSH1 0x4 DUP1 CALLDATASIZE SUB DUP2 ADD SWAP1 DUP1 DUP1 CALLDATALOAD PUSH20 0xFFFFFFFFFFFFFFFFFFFFFFFFFFFFFFFFFFFFFFFF AND SWAP1 PUSH1 0x20 ADD SWAP1 SWAP3 SWAP2 SWAP1 POP POP POP PUSH2 0x963 JUMP JUMPDEST STOP JUMPDEST CALLVALUE DUP1 ISZERO PUSH2 0x251 JUMPI PUSH1 0x0 DUP1 REVERT JUMPDEST POP PUSH2 0x2B6 PUSH1 0x4 DUP1 CALLDATASIZE SUB DUP2 ADD SWAP1 DUP1 DUP1 CALLDATALOAD SWAP1 PUSH1 0x20 ADD SWAP1 SWAP3 SWAP2 SWAP1 DUP1 CALLDATALOAD SWAP1 PUSH1 0x20 ADD SWAP1 DUP3 ADD DUP1 CALLDATALOAD SWAP1 PUSH1 0x20 ADD SWAP1 DUP1 DUP1 PUSH1 0x1F ADD PUSH1 0x20 DUP1 SWAP2 DIV MUL PUSH1 0x20 ADD PUSH1 0x40 MLOAD SWAP1 DUP2 ADD PUSH1 0x40 MSTORE DUP1 SWAP4 SWAP3 SWAP2 SWAP1 DUP2 DUP2 MSTORE PUSH1 0x20 ADD DUP4 DUP4 DUP1 DUP3 DUP5 CALLDATACOPY DUP3 ADD SWAP2 POP POP POP POP POP POP SWAP2 SWAP3 SWAP2 SWAP3 SWAP1 POP POP POP PUSH2 0xBC8 JUMP JUMPDEST STOP JUMPDEST CALLVALUE DUP1 ISZERO PUSH2 0x2C4 JUMPI PUSH1 0x0 DUP1 REVERT JUMPDEST POP PUSH2 0x2F9 PUSH1 0x4 DUP1 CALLDATASIZE SUB DUP2 ADD SWAP1 DUP1 DUP1 CALLDATALOAD PUSH20 0xFFFFFFFFFFFFFFFFFFFFFFFFFFFFFFFFFFFFFFFF AND SWAP1 PUSH1 0x20 ADD SWAP1 SWAP3 SWAP2 SWAP1 POP POP POP PUSH2 0xE44 JUMP JUMPDEST PUSH1 0x40 MLOAD DUP1 DUP3 DUP2 MSTORE PUSH1 0x20 ADD SWAP2 POP POP PUSH1 0x40 MLOAD DUP1 SWAP2 SUB SWAP1 RETURN JUMPDEST CALLVALUE DUP1 ISZERO PUSH2 0x31B JUMPI PUSH1 0x0 DUP1 REVERT JUMPDEST POP PUSH2 0x324 PUSH2 0xE5C JUMP JUMPDEST PUSH1 0x40 MLOAD DUP1 DUP3 DUP2 MSTORE PUSH1 0x20 ADD SWAP2 POP POP PUSH1 0x40 MLOAD DUP1 SWAP2 SUB SWAP1 RETURN JUMPDEST CALLVALUE DUP1 ISZERO PUSH2 0x346 JUMPI PUSH1 0x0 DUP1 REVERT JUMPDEST POP PUSH2 0x365 PUSH1 0x4 DUP1 CALLDATASIZE SUB DUP2 ADD SWAP1 DUP1 DUP1 CALLDATALOAD SWAP1 PUSH1 0x20 ADD SWAP1 SWAP3 SWAP2 SWAP1 POP POP POP PUSH2 0xE62 JUMP JUMPDEST PUSH1 0x40 MLOAD DUP1 DUP5 PUSH20 0xFFFFFFFFFFFFFFFFFFFFFFFFFFFFFFFFFFFFFFFF AND PUSH20 0xFFFFFFFFFFFFFFFFFFFFFFFFFFFFFFFFFFFFFFFF AND DUP2 MSTORE PUSH1 0x20 ADD DUP1 PUSH1 0x20 ADD DUP4 DUP2 MSTORE PUSH1 0x20 ADD DUP3 DUP2 SUB DUP3 MSTORE DUP5 DUP2 DUP2 MLOAD DUP2 MSTORE PUSH1 0x20 ADD SWAP2 POP DUP1 MLOAD SWAP1 PUSH1 0x20 ADD SWAP1 DUP1 DUP4 DUP4 PUSH1 0x0 JUMPDEST DUP4 DUP2 LT ISZERO PUSH2 0x3DD JUMPI DUP1 DUP3 ADD MLOAD DUP2 DUP5 ADD MSTORE PUSH1 0x20 DUP2 ADD SWAP1 POP PUSH2 0x3C2 JUMP JUMPDEST POP POP POP POP SWAP1 POP SWAP1 DUP2 ADD SWAP1 PUSH1 0x1F AND DUP1 ISZERO PUSH2 0x40A JUMPI DUP1 DUP3 SUB DUP1 MLOAD PUSH1 0x1 DUP4 PUSH1 0x20 SUB PUSH2 0x100 EXP SUB NOT AND DUP2 MSTORE PUSH1 0x20 ADD SWAP2 POP JUMPDEST POP SWAP5 POP POP POP POP POP PUSH1 0x40 MLOAD DUP1 SWAP2 SUB SWAP1 RETURN JUMPDEST CALLVALUE DUP1 ISZERO PUSH2 0x426 JUMPI PUSH1 0x0 DUP1 REVERT JUMPDEST POP PUSH2 0x42F PUSH2 0xF53 JUMP JUMPDEST PUSH1 0x40 MLOAD DUP1 DUP3 DUP2 MSTORE PUSH1 0x20 ADD SWAP2 POP POP PUSH1 0x40 MLOAD DUP1 SWAP2 SUB SWAP1 RETURN JUMPDEST CALLVALUE DUP1 ISZERO PUSH2 0x451 JUMPI PUSH1 0x0 DUP1 REVERT JUMPDEST POP PUSH2 0x45A PUSH2 0xF59 JUMP JUMPDEST PUSH1 0x40 MLOAD DUP1 DUP3 DUP2 MSTORE PUSH1 0x20 ADD SWAP2 POP POP PUSH1 0x40 MLOAD DUP1 SWAP2 SUB SWAP1 RETURN JUMPDEST CALLVALUE DUP1 ISZERO PUSH2 0x47C JUMPI PUSH1 0x0 DUP1 REVERT JUMPDEST POP PUSH2 0x547 PUSH1 0x4 DUP1 CALLDATASIZE SUB DUP2 ADD SWAP1 DUP1 DUP1 CALLDATALOAD PUSH20 0xFFFFFFFFFFFFFFFFFFFFFFFFFFFFFFFFFFFFFFFF AND SWAP1 PUSH1 0x20 ADD SWAP1 SWAP3 SWAP2 SWAP1 DUP1 CALLDATALOAD SWAP1 PUSH1 0x20 ADD SWAP1 SWAP3 SWAP2 SWAP1 DUP1 CALLDATALOAD SWAP1 PUSH1 0x20 ADD SWAP1 DUP3 ADD DUP1 CALLDATALOAD SWAP1 PUSH1 0x20 ADD SWAP1 DUP1 DUP1 PUSH1 0x1F ADD PUSH1 0x20 DUP1 SWAP2 DIV MUL PUSH1 0x20 ADD PUSH1 0x40 MLOAD SWAP1 DUP2 ADD PUSH1 0x40 MSTORE DUP1 SWAP4 SWAP3 SWAP2 SWAP1 DUP2 DUP2 MSTORE PUSH1 0x20 ADD DUP4 DUP4 DUP1 DUP3 DUP5 CALLDATACOPY DUP3 ADD SWAP2 POP POP POP POP POP POP SWAP2 SWAP3 SWAP2 SWAP3 SWAP1 DUP1 CALLDATALOAD SWAP1 PUSH1 0x20 ADD SWAP1 DUP3 ADD DUP1 CALLDATALOAD SWAP1 PUSH1 0x20 ADD SWAP1 DUP1 DUP1 PUSH1 0x1F ADD PUSH1 0x20 DUP1 SWAP2 DIV MUL PUSH1 0x20 ADD PUSH1 0x40 MLOAD SWAP1 DUP2 ADD PUSH1 0x40 MSTORE DUP1 SWAP4 SWAP3 SWAP2 SWAP1 DUP2 DUP2 MSTORE PUSH1 0x20 ADD DUP4 DUP4 DUP1 DUP3 DUP5 CALLDATACOPY DUP3 ADD SWAP2 POP POP POP POP POP POP SWAP2 SWAP3 SWAP2 SWAP3 SWAP1 POP POP POP PUSH2 0xF5F JUMP JUMPDEST PUSH1 0x40 MLOAD DUP1 DUP3 DUP2 MSTORE PUSH1 0x20 ADD SWAP2 POP POP PUSH1 0x40 MLOAD DUP1 SWAP2 SUB SWAP1 RETURN JUMPDEST CALLVALUE DUP1 ISZERO PUSH2 0x569 JUMPI PUSH1 0x0 DUP1 REVERT JUMPDEST POP PUSH2 0x59C PUSH1 0x4 DUP1 CALLDATASIZE SUB DUP2 ADD SWAP1 DUP1 DUP1 CALLDATALOAD SWAP1 PUSH1 0x20 ADD SWAP1 SWAP3 SWAP2 SWAP1 DUP1 CALLDATALOAD SWAP1 PUSH1 0x20 ADD SWAP1 SWAP3 SWAP2 SWAP1 DUP1 CALLDATALOAD SWAP1 PUSH1 0x20 ADD SWAP1 SWAP3 SWAP2 SWAP1 POP POP POP PUSH2 0x1177 JUMP JUMPDEST STOP JUMPDEST CALLVALUE DUP1 ISZERO PUSH2 0x5AA JUMPI PUSH1 0x0 DUP1 REVERT JUMPDEST POP PUSH2 0x5B3 PUSH2 0x11ED JUMP JUMPDEST PUSH1 0x40 MLOAD DUP1 DUP3 DUP2 MSTORE PUSH1 0x20 ADD SWAP2 POP POP PUSH1 0x40 MLOAD DUP1 SWAP2 SUB SWAP1 RETURN JUMPDEST CALLVALUE DUP1 ISZERO PUSH2 0x5D5 JUMPI PUSH1 0x0 DUP1 REVERT JUMPDEST POP PUSH2 0x650 PUSH1 0x4 DUP1 CALLDATASIZE SUB DUP2 ADD SWAP1 DUP1 DUP1 CALLDATALOAD PUSH20 0xFFFFFFFFFFFFFFFFFFFFFFFFFFFFFFFFFFFFFFFF AND SWAP1 PUSH1 0x20 ADD SWAP1 SWAP3 SWAP2 SWAP1 DUP1 CALLDATALOAD SWAP1 PUSH1 0x20 ADD SWAP1 DUP3 ADD DUP1 CALLDATALOAD SWAP1 PUSH1 0x20 ADD SWAP1 DUP1 DUP1 PUSH1 0x1F ADD PUSH1 0x20 DUP1 SWAP2 DIV MUL PUSH1 0x20 ADD PUSH1 0x40 MLOAD SWAP1 DUP2 ADD PUSH1 0x40 MSTORE DUP1 SWAP4 SWAP3 SWAP2 SWAP1 DUP2 DUP2 MSTORE PUSH1 0x20 ADD DUP4 DUP4 DUP1 DUP3 DUP5 CALLDATACOPY DUP3 ADD SWAP2 POP POP POP POP POP POP SWAP2 SWAP3 SWAP2 SWAP3 SWAP1 POP POP POP PUSH2 0x11F3 JUMP JUMPDEST STOP JUMPDEST CALLVALUE DUP1 ISZERO PUSH2 0x65E JUMPI PUSH1 0x0 DUP1 REVERT JUMPDEST POP PUSH2 0x6CF PUSH1 0x4 DUP1 CALLDATASIZE SUB DUP2 ADD SWAP1 DUP1 DUP1 CALLDATALOAD SWAP1 PUSH1 0x20 ADD SWAP1 SWAP3 SWAP2 SWAP1 DUP1 CALLDATALOAD ISZERO ISZERO SWAP1 PUSH1 0x20 ADD SWAP1 SWAP3 SWAP2 SWAP1 DUP1 CALLDATALOAD SWAP1 PUSH1 0x20 ADD SWAP1 DUP3 ADD DUP1 CALLDATALOAD SWAP1 PUSH1 0x20 ADD SWAP1 DUP1 DUP1 PUSH1 0x1F ADD PUSH1 0x20 DUP1 SWAP2 DIV MUL PUSH1 0x20 ADD PUSH1 0x40 MLOAD SWAP1 DUP2 ADD PUSH1 0x40 MSTORE DUP1 SWAP4 SWAP3 SWAP2 SWAP1 DUP2 DUP2 MSTORE PUSH1 0x20 ADD DUP4 DUP4 DUP1 DUP3 DUP5 CALLDATACOPY DUP3 ADD SWAP2 POP POP POP POP POP POP SWAP2 SWAP3 SWAP2 SWAP3 SWAP1 POP POP POP PUSH2 0x142F JUMP JUMPDEST PUSH1 0x40 MLOAD DUP1 DUP3 DUP2 MSTORE PUSH1 0x20 ADD SWAP2 POP POP PUSH1 0x40 MLOAD DUP1 SWAP2 SUB SWAP1 RETURN JUMPDEST CALLVALUE DUP1 ISZERO PUSH2 0x6F1 JUMPI PUSH1 0x0 DUP1 REVERT JUMPDEST POP PUSH2 0x726 PUSH1 0x4 DUP1 CALLDATASIZE SUB DUP2 ADD SWAP1 DUP1 DUP1 CALLDATALOAD PUSH20 0xFFFFFFFFFFFFFFFFFFFFFFFFFFFFFFFFFFFFFFFF AND SWAP1 PUSH1 0x20 ADD SWAP1 SWAP3 SWAP2 SWAP1 POP POP POP PUSH2 0x15AA JUMP JUMPDEST STOP JUMPDEST CALLVALUE DUP1 ISZERO PUSH2 0x734 JUMPI PUSH1 0x0 DUP1 REVERT JUMPDEST POP PUSH2 0x7C3 PUSH1 0x4 DUP1 CALLDATASIZE SUB DUP2 ADD SWAP1 DUP1 DUP1 CALLDATALOAD SWAP1 PUSH1 0x20 ADD SWAP1 SWAP3 SWAP2 SWAP1 DUP1 CALLDATALOAD PUSH20 0xFFFFFFFFFFFFFFFFFFFFFFFFFFFFFFFFFFFFFFFF AND SWAP1 PUSH1 0x20 ADD SWAP1 SWAP3 SWAP2 SWAP1 DUP1 CALLDATALOAD SWAP1 PUSH1 0x20 ADD SWAP1 SWAP3 SWAP2 SWAP1 DUP1 CALLDATALOAD SWAP1 PUSH1 0x20 ADD SWAP1 DUP3 ADD DUP1 CALLDATALOAD SWAP1 PUSH1 0x20 ADD SWAP1 DUP1 DUP1 PUSH1 0x1F ADD PUSH1 0x20 DUP1 SWAP2 DIV MUL PUSH1 0x20 ADD PUSH1 0x40 MLOAD SWAP1 DUP2 ADD PUSH1 0x40 MSTORE DUP1 SWAP4 SWAP3 SWAP2 SWAP1 DUP2 DUP2 MSTORE PUSH1 0x20 ADD DUP4 DUP4 DUP1 DUP3 DUP5 CALLDATACOPY DUP3 ADD SWAP2 POP POP POP POP POP POP SWAP2 SWAP3 SWAP2 SWAP3 SWAP1 POP POP POP PUSH2 0x15ED JUMP JUMPDEST PUSH1 0x40 MLOAD DUP1 DUP3 ISZERO ISZERO ISZERO ISZERO DUP2 MSTORE PUSH1 0x20 ADD SWAP2 POP POP PUSH1 0x40 MLOAD DUP1 SWAP2 SUB SWAP1 RETURN JUMPDEST CALLVALUE DUP1 ISZERO PUSH2 0x7E9 JUMPI PUSH1 0x0 DUP1 REVERT JUMPDEST POP PUSH2 0x7F2 PUSH2 0x16D6 JUMP JUMPDEST PUSH1 0x40 MLOAD DUP1 DUP3 PUSH20 0xFFFFFFFFFFFFFFFFFFFFFFFFFFFFFFFFFFFFFFFF AND PUSH20 0xFFFFFFFFFFFFFFFFFFFFFFFFFFFFFFFFFFFFFFFF AND DUP2 MSTORE PUSH1 0x20 ADD SWAP2 POP POP PUSH1 0x40 MLOAD DUP1 SWAP2 SUB SWAP1 RETURN JUMPDEST PUSH1 0x4 DUP2 DUP2 SLOAD DUP2 LT ISZERO ISZERO PUSH2 0x843 JUMPI INVALID JUMPDEST SWAP1 PUSH1 0x0 MSTORE PUSH1 0x20 PUSH1 0x0 KECCAK256 SWAP1 PUSH1 0xA MUL ADD PUSH1 0x0 SWAP2 POP SWAP1 POP DUP1 PUSH1 0x0 ADD PUSH1 0x0 SWAP1 SLOAD SWAP1 PUSH2 0x100 EXP SWAP1 DIV PUSH20 0xFFFFFFFFFFFFFFFFFFFFFFFFFFFFFFFFFFFFFFFF AND SWAP1 DUP1 PUSH1 0x1 ADD SLOAD SWAP1 DUP1 PUSH1 0x2 ADD DUP1 SLOAD PUSH1 0x1 DUP2 PUSH1 0x1 AND ISZERO PUSH2 0x100 MUL SUB AND PUSH1 0x2 SWAP1 DIV DUP1 PUSH1 0x1F ADD PUSH1 0x20 DUP1 SWAP2 DIV MUL PUSH1 0x20 ADD PUSH1 0x40 MLOAD SWAP1 DUP2 ADD PUSH1 0x40 MSTORE DUP1 SWAP3 SWAP2 SWAP1 DUP2 DUP2 MSTORE PUSH1 0x20 ADD DUP3 DUP1 SLOAD PUSH1 0x1 DUP2 PUSH1 0x1 AND ISZERO PUSH2 0x100 MUL SUB AND PUSH1 0x2 SWAP1 DIV DUP1 ISZERO PUSH2 0x91B JUMPI DUP1 PUSH1 0x1F LT PUSH2 0x8F0 JUMPI PUSH2 0x100 DUP1 DUP4 SLOAD DIV MUL DUP4 MSTORE SWAP2 PUSH1 0x20 ADD SWAP2 PUSH2 0x91B JUMP JUMPDEST DUP3 ADD SWAP2 SWAP1 PUSH1 0x0 MSTORE PUSH1 0x20 PUSH1 0x0 KECCAK256 SWAP1 JUMPDEST DUP2 SLOAD DUP2 MSTORE SWAP1 PUSH1 0x1 ADD SWAP1 PUSH1 0x20 ADD DUP1 DUP4 GT PUSH2 0x8FE JUMPI DUP3 SWAP1 SUB PUSH1 0x1F AND DUP3 ADD SWAP2 JUMPDEST POP POP POP POP POP SWAP1 DUP1 PUSH1 0x3 ADD SLOAD SWAP1 DUP1 PUSH1 0x4 ADD PUSH1 0x0 SWAP1 SLOAD SWAP1 PUSH2 0x100 EXP SWAP1 DIV PUSH1 0xFF AND SWAP1 DUP1 PUSH1 0x4 ADD PUSH1 0x1 SWAP1 SLOAD SWAP1 PUSH2 0x100 EXP SWAP1 DIV PUSH1 0xFF AND SWAP1 DUP1 PUSH1 0x5 ADD SLOAD SWAP1 DUP1 PUSH1 0x6 ADD SLOAD SWAP1 DUP1 PUSH1 0x7 ADD SLOAD SWAP1 POP DUP10 JUMP JUMPDEST PUSH1 0x0 DUP1 PUSH1 0x0 SWAP1 SLOAD SWAP1 PUSH2 0x100 EXP SWAP1 DIV PUSH20 0xFFFFFFFFFFFFFFFFFFFFFFFFFFFFFFFFFFFFFFFF AND PUSH20 0xFFFFFFFFFFFFFFFFFFFFFFFFFFFFFFFFFFFFFFFF AND CALLER PUSH20 0xFFFFFFFFFFFFFFFFFFFFFFFFFFFFFFFFFFFFFFFF AND EQ ISZERO ISZERO ISZERO PUSH2 0x9C1 JUMPI PUSH1 0x0 DUP1 REVERT JUMPDEST PUSH1 0x0 PUSH1 0x6 PUSH1 0x0 DUP5 PUSH20 0xFFFFFFFFFFFFFFFFFFFFFFFFFFFFFFFFFFFFFFFF AND PUSH20 0xFFFFFFFFFFFFFFFFFFFFFFFFFFFFFFFFFFFFFFFF AND DUP2 MSTORE PUSH1 0x20 ADD SWAP1 DUP2 MSTORE PUSH1 0x20 ADD PUSH1 0x0 KECCAK256 SLOAD EQ ISZERO PUSH2 0xA0E JUMPI PUSH1 0x0 DUP1 REVERT JUMPDEST PUSH1 0x6 PUSH1 0x0 DUP4 PUSH20 0xFFFFFFFFFFFFFFFFFFFFFFFFFFFFFFFFFFFFFFFF AND PUSH20 0xFFFFFFFFFFFFFFFFFFFFFFFFFFFFFFFFFFFFFFFF AND DUP2 MSTORE PUSH1 0x20 ADD SWAP1 DUP2 MSTORE PUSH1 0x20 ADD PUSH1 0x0 KECCAK256 SLOAD SWAP1 POP JUMPDEST PUSH1 0x1 PUSH1 0x7 DUP1 SLOAD SWAP1 POP SUB DUP2 LT ISZERO PUSH2 0xB47 JUMPI PUSH1 0x7 PUSH1 0x1 DUP3 ADD DUP2 SLOAD DUP2 LT ISZERO ISZERO PUSH2 0xA73 JUMPI INVALID JUMPDEST SWAP1 PUSH1 0x0 MSTORE PUSH1 0x20 PUSH1 0x0 KECCAK256 SWAP1 PUSH1 0x3 MUL ADD PUSH1 0x7 DUP3 DUP2 SLOAD DUP2 LT ISZERO ISZERO PUSH2 0xA90 JUMPI INVALID JUMPDEST SWAP1 PUSH1 0x0 MSTORE PUSH1 0x20 PUSH1 0x0 KECCAK256 SWAP1 PUSH1 0x3 MUL ADD PUSH1 0x0 DUP3 ADD PUSH1 0x0 SWAP1 SLOAD SWAP1 PUSH2 0x100 EXP SWAP1 DIV PUSH20 0xFFFFFFFFFFFFFFFFFFFFFFFFFFFFFFFFFFFFFFFF AND DUP2 PUSH1 0x0 ADD PUSH1 0x0 PUSH2 0x100 EXP DUP2 SLOAD DUP2 PUSH20 0xFFFFFFFFFFFFFFFFFFFFFFFFFFFFFFFFFFFFFFFF MUL NOT AND SWAP1 DUP4 PUSH20 0xFFFFFFFFFFFFFFFFFFFFFFFFFFFFFFFFFFFFFFFF AND MUL OR SWAP1 SSTORE POP PUSH1 0x1 DUP3 ADD DUP2 PUSH1 0x1 ADD SWAP1 DUP1 SLOAD PUSH1 0x1 DUP2 PUSH1 0x1 AND ISZERO PUSH2 0x100 MUL SUB AND PUSH1 0x2 SWAP1 DIV PUSH2 0xB2C SWAP3 SWAP2 SWAP1 PUSH2 0x16FB JUMP JUMPDEST POP PUSH1 0x2 DUP3 ADD SLOAD DUP2 PUSH1 0x2 ADD SSTORE SWAP1 POP POP DUP1 DUP1 PUSH1 0x1 ADD SWAP2 POP POP PUSH2 0xA51 JUMP JUMPDEST PUSH1 0x7 PUSH1 0x1 PUSH1 0x7 DUP1 SLOAD SWAP1 POP SUB DUP2 SLOAD DUP2 LT ISZERO ISZERO PUSH2 0xB5E JUMPI INVALID JUMPDEST SWAP1 PUSH1 0x0 MSTORE PUSH1 0x20 PUSH1 0x0 KECCAK256 SWAP1 PUSH1 0x3 MUL ADD PUSH1 0x0 DUP1 DUP3 ADD PUSH1 0x0 PUSH2 0x100 EXP DUP2 SLOAD SWAP1 PUSH20 0xFFFFFFFFFFFFFFFFFFFFFFFFFFFFFFFFFFFFFFFF MUL NOT AND SWAP1 SSTORE PUSH1 0x1 DUP3 ADD PUSH1 0x0 PUSH2 0xBA4 SWAP2 SWAP1 PUSH2 0x1782 JUMP JUMPDEST PUSH1 0x2 DUP3 ADD PUSH1 0x0 SWAP1 SSTORE POP POP PUSH1 0x7 DUP1 SLOAD DUP1 SWAP2 SWAP1 PUSH1 0x1 SWAP1 SUB PUSH2 0xBC3 SWAP2 SWAP1 PUSH2 0x17CA JUMP JUMPDEST POP POP POP JUMP JUMPDEST PUSH1 0x0 PUSH1 0x4 DUP4 DUP2 SLOAD DUP2 LT ISZERO ISZERO PUSH2 0xBD9 JUMPI INVALID JUMPDEST SWAP1 PUSH1 0x0 MSTORE PUSH1 0x20 PUSH1 0x0 KECCAK256 SWAP1 PUSH1 0xA MUL ADD SWAP1 POP DUP1 PUSH1 0x3 ADD SLOAD TIMESTAMP LT DUP1 PUSH2 0xC09 JUMPI POP DUP1 PUSH1 0x4 ADD PUSH1 0x0 SWAP1 SLOAD SWAP1 PUSH2 0x100 EXP SWAP1 DIV PUSH1 0xFF AND JUMPDEST DUP1 PUSH2 0xCF5 JUMPI POP DUP1 PUSH1 0x0 ADD PUSH1 0x0 SWAP1 SLOAD SWAP1 PUSH2 0x100 EXP SWAP1 DIV PUSH20 0xFFFFFFFFFFFFFFFFFFFFFFFFFFFFFFFFFFFFFFFF AND DUP2 PUSH1 0x1 ADD SLOAD DUP4 PUSH1 0x40 MLOAD DUP1 DUP5 PUSH20 0xFFFFFFFFFFFFFFFFFFFFFFFFFFFFFFFFFFFFFFFF AND PUSH20 0xFFFFFFFFFFFFFFFFFFFFFFFFFFFFFFFFFFFFFFFF AND PUSH13 0x1000000000000000000000000 MUL DUP2 MSTORE PUSH1 0x14 ADD DUP4 DUP2 MSTORE PUSH1 0x20 ADD DUP3 DUP1 MLOAD SWAP1 PUSH1 0x20 ADD SWAP1 DUP1 DUP4 DUP4 JUMPDEST PUSH1 0x20 DUP4 LT ISZERO ISZERO PUSH2 0xCB6 JUMPI DUP1 MLOAD DUP3 MSTORE PUSH1 0x20 DUP3 ADD SWAP2 POP PUSH1 0x20 DUP2 ADD SWAP1 POP PUSH1 0x20 DUP4 SUB SWAP3 POP PUSH2 0xC91 JUMP JUMPDEST PUSH1 0x1 DUP4 PUSH1 0x20 SUB PUSH2 0x100 EXP SUB DUP1 NOT DUP3 MLOAD AND DUP2 DUP5 MLOAD AND DUP1 DUP3 OR DUP6 MSTORE POP POP POP POP POP POP SWAP1 POP ADD SWAP4 POP POP POP POP PUSH1 0x40 MLOAD DUP1 SWAP2 SUB SWAP1 KECCAK256 PUSH1 0x0 NOT AND DUP2 PUSH1 0x7 ADD SLOAD PUSH1 0x0 NOT AND EQ ISZERO JUMPDEST DUP1 PUSH2 0xD05 JUMPI POP PUSH1 0x1 SLOAD DUP2 PUSH1 0x5 ADD SLOAD LT JUMPDEST ISZERO PUSH2 0xD0F JUMPI PUSH1 0x0 DUP1 REVERT JUMPDEST PUSH1 0x3 SLOAD DUP2 PUSH1 0x6 ADD SLOAD SGT ISZERO PUSH2 0xE21 JUMPI PUSH1 0x1 DUP2 PUSH1 0x4 ADD PUSH1 0x0 PUSH2 0x100 EXP DUP2 SLOAD DUP2 PUSH1 0xFF MUL NOT AND SWAP1 DUP4 ISZERO ISZERO MUL OR SWAP1 SSTORE POP DUP1 PUSH1 0x0 ADD PUSH1 0x0 SWAP1 SLOAD SWAP1 PUSH2 0x100 EXP SWAP1 DIV PUSH20 0xFFFFFFFFFFFFFFFFFFFFFFFFFFFFFFFFFFFFFFFF AND PUSH20 0xFFFFFFFFFFFFFFFFFFFFFFFFFFFFFFFFFFFFFFFF AND PUSH8 0xDE0B6B3A7640000 DUP3 PUSH1 0x1 ADD SLOAD MUL DUP4 PUSH1 0x40 MLOAD DUP1 DUP3 DUP1 MLOAD SWAP1 PUSH1 0x20 ADD SWAP1 DUP1 DUP4 DUP4 PUSH1 0x0 JUMPDEST DUP4 DUP2 LT ISZERO PUSH2 0xDB2 JUMPI DUP1 DUP3 ADD MLOAD DUP2 DUP5 ADD MSTORE PUSH1 0x20 DUP2 ADD SWAP1 POP PUSH2 0xD97 JUMP JUMPDEST POP POP POP POP SWAP1 POP SWAP1 DUP2 ADD SWAP1 PUSH1 0x1F AND DUP1 ISZERO PUSH2 0xDDF JUMPI DUP1 DUP3 SUB DUP1 MLOAD PUSH1 0x1 DUP4 PUSH1 0x20 SUB PUSH2 0x100 EXP SUB NOT AND DUP2 MSTORE PUSH1 0x20 ADD SWAP2 POP JUMPDEST POP SWAP2 POP POP PUSH1 0x0 PUSH1 0x40 MLOAD DUP1 DUP4 SUB DUP2 DUP6 DUP8 GAS CALL SWAP3 POP POP POP ISZERO ISZERO PUSH2 0xDFF JUMPI PUSH1 0x0 DUP1 REVERT JUMPDEST PUSH1 0x1 DUP2 PUSH1 0x4 ADD PUSH1 0x1 PUSH2 0x100 EXP DUP2 SLOAD DUP2 PUSH1 0xFF MUL NOT AND SWAP1 DUP4 ISZERO ISZERO MUL OR SWAP1 SSTORE POP PUSH2 0xE3F JUMP JUMPDEST PUSH1 0x1 DUP2 PUSH1 0x4 ADD PUSH1 0x1 PUSH2 0x100 EXP DUP2 SLOAD DUP2 PUSH1 0xFF MUL NOT AND SWAP1 DUP4 ISZERO ISZERO MUL OR SWAP1 SSTORE POP JUMPDEST POP POP POP JUMP JUMPDEST PUSH1 0x6 PUSH1 0x20 MSTORE DUP1 PUSH1 0x0 MSTORE PUSH1 0x40 PUSH1 0x0 KECCAK256 PUSH1 0x0 SWAP2 POP SWAP1 POP SLOAD DUP2 JUMP JUMPDEST PUSH1 0x5 SLOAD DUP2 JUMP JUMPDEST PUSH1 0x7 DUP2 DUP2 SLOAD DUP2 LT ISZERO ISZERO PUSH2 0xE71 JUMPI INVALID JUMPDEST SWAP1 PUSH1 0x0 MSTORE PUSH1 0x20 PUSH1 0x0 KECCAK256 SWAP1 PUSH1 0x3 MUL ADD PUSH1 0x0 SWAP2 POP SWAP1 POP DUP1 PUSH1 0x0 ADD PUSH1 0x0 SWAP1 SLOAD SWAP1 PUSH2 0x100 EXP SWAP1 DIV PUSH20 0xFFFFFFFFFFFFFFFFFFFFFFFFFFFFFFFFFFFFFFFF AND SWAP1 DUP1 PUSH1 0x1 ADD DUP1 SLOAD PUSH1 0x1 DUP2 PUSH1 0x1 AND ISZERO PUSH2 0x100 MUL SUB AND PUSH1 0x2 SWAP1 DIV DUP1 PUSH1 0x1F ADD PUSH1 0x20 DUP1 SWAP2 DIV MUL PUSH1 0x20 ADD PUSH1 0x40 MLOAD SWAP1 DUP2 ADD PUSH1 0x40 MSTORE DUP1 SWAP3 SWAP2 SWAP1 DUP2 DUP2 MSTORE PUSH1 0x20 ADD DUP3 DUP1 SLOAD PUSH1 0x1 DUP2 PUSH1 0x1 AND ISZERO PUSH2 0x100 MUL SUB AND PUSH1 0x2 SWAP1 DIV DUP1 ISZERO PUSH2 0xF43 JUMPI DUP1 PUSH1 0x1F LT PUSH2 0xF18 JUMPI PUSH2 0x100 DUP1 DUP4 SLOAD DIV MUL DUP4 MSTORE SWAP2 PUSH1 0x20 ADD SWAP2 PUSH2 0xF43 JUMP JUMPDEST DUP3 ADD SWAP2 SWAP1 PUSH1 0x0 MSTORE PUSH1 0x20 PUSH1 0x0 KECCAK256 SWAP1 JUMPDEST DUP2 SLOAD DUP2 MSTORE SWAP1 PUSH1 0x1 ADD SWAP1 PUSH1 0x20 ADD DUP1 DUP4 GT PUSH2 0xF26 JUMPI DUP3 SWAP1 SUB PUSH1 0x1F AND DUP3 ADD SWAP2 JUMPDEST POP POP POP POP POP SWAP1 DUP1 PUSH1 0x2 ADD SLOAD SWAP1 POP DUP4 JUMP JUMPDEST PUSH1 0x1 SLOAD DUP2 JUMP JUMPDEST PUSH1 0x3 SLOAD DUP2 JUMP JUMPDEST PUSH1 0x0 DUP1 PUSH1 0x0 PUSH1 0x6 PUSH1 0x0 CALLER PUSH20 0xFFFFFFFFFFFFFFFFFFFFFFFFFFFFFFFFFFFFFFFF AND PUSH20 0xFFFFFFFFFFFFFFFFFFFFFFFFFFFFFFFFFFFFFFFF AND DUP2 MSTORE PUSH1 0x20 ADD SWAP1 DUP2 MSTORE PUSH1 0x20 ADD PUSH1 0x0 KECCAK256 SLOAD EQ ISZERO ISZERO PUSH2 0xFB0 JUMPI PUSH1 0x0 DUP1 REVERT JUMPDEST PUSH1 0x4 DUP1 SLOAD SWAP1 POP SWAP2 POP PUSH1 0x1 PUSH1 0x4 DUP1 SLOAD SWAP1 POP ADD PUSH1 0x4 DUP2 PUSH2 0xFCE SWAP2 SWAP1 PUSH2 0x17FC JUMP JUMPDEST POP PUSH1 0x4 DUP3 DUP2 SLOAD DUP2 LT ISZERO ISZERO PUSH2 0xFDE JUMPI INVALID JUMPDEST SWAP1 PUSH1 0x0 MSTORE PUSH1 0x20 PUSH1 0x0 KECCAK256 SWAP1 PUSH1 0xA MUL ADD SWAP1 POP DUP6 DUP2 PUSH1 0x0 ADD PUSH1 0x0 PUSH2 0x100 EXP DUP2 SLOAD DUP2 PUSH20 0xFFFFFFFFFFFFFFFFFFFFFFFFFFFFFFFFFFFFFFFF MUL NOT AND SWAP1 DUP4 PUSH20 0xFFFFFFFFFFFFFFFFFFFFFFFFFFFFFFFFFFFFFFFF AND MUL OR SWAP1 SSTORE POP DUP5 DUP2 PUSH1 0x1 ADD DUP2 SWAP1 SSTORE POP DUP4 DUP2 PUSH1 0x2 ADD SWAP1 DUP1 MLOAD SWAP1 PUSH1 0x20 ADD SWAP1 PUSH2 0x1052 SWAP3 SWAP2 SWAP1 PUSH2 0x182E JUMP JUMPDEST POP DUP6 DUP6 DUP5 PUSH1 0x40 MLOAD DUP1 DUP5 PUSH20 0xFFFFFFFFFFFFFFFFFFFFFFFFFFFFFFFFFFFFFFFF AND PUSH20 0xFFFFFFFFFFFFFFFFFFFFFFFFFFFFFFFFFFFFFFFF AND PUSH13 0x1000000000000000000000000 MUL DUP2 MSTORE PUSH1 0x14 ADD DUP4 DUP2 MSTORE PUSH1 0x20 ADD DUP3 DUP1 MLOAD SWAP1 PUSH1 0x20 ADD SWAP1 DUP1 DUP4 DUP4 JUMPDEST PUSH1 0x20 DUP4 LT ISZERO ISZERO PUSH2 0x10D2 JUMPI DUP1 MLOAD DUP3 MSTORE PUSH1 0x20 DUP3 ADD SWAP2 POP PUSH1 0x20 DUP2 ADD SWAP1 POP PUSH1 0x20 DUP4 SUB SWAP3 POP PUSH2 0x10AD JUMP JUMPDEST PUSH1 0x1 DUP4 PUSH1 0x20 SUB PUSH2 0x100 EXP SUB DUP1 NOT DUP3 MLOAD AND DUP2 DUP5 MLOAD AND DUP1 DUP3 OR DUP6 MSTORE POP POP POP POP POP POP SWAP1 POP ADD SWAP4 POP POP POP POP PUSH1 0x40 MLOAD DUP1 SWAP2 SUB SWAP1 KECCAK256 DUP2 PUSH1 0x7 ADD DUP2 PUSH1 0x0 NOT AND SWAP1 SSTORE POP PUSH1 0x3C PUSH1 0x2 SLOAD TIMESTAMP ADD ADD DUP2 PUSH1 0x3 ADD DUP2 SWAP1 SSTORE POP PUSH1 0x0 DUP2 PUSH1 0x4 ADD PUSH1 0x0 PUSH2 0x100 EXP DUP2 SLOAD DUP2 PUSH1 0xFF MUL NOT AND SWAP1 DUP4 ISZERO ISZERO MUL OR SWAP1 SSTORE POP PUSH1 0x0 DUP2 PUSH1 0x4 ADD PUSH1 0x1 PUSH2 0x100 EXP DUP2 SLOAD DUP2 PUSH1 0xFF MUL NOT AND SWAP1 DUP4 ISZERO ISZERO MUL OR SWAP1 SSTORE POP PUSH1 0x0 DUP2 PUSH1 0x5 ADD DUP2 SWAP1 SSTORE POP PUSH1 0x1 DUP3 ADD PUSH1 0x5 DUP2 SWAP1 SSTORE POP DUP2 SWAP2 POP POP SWAP5 SWAP4 POP POP POP POP JUMP JUMPDEST PUSH1 0x0 DUP1 SWAP1 SLOAD SWAP1 PUSH2 0x100 EXP SWAP1 DIV PUSH20 0xFFFFFFFFFFFFFFFFFFFFFFFFFFFFFFFFFFFFFFFF AND PUSH20 0xFFFFFFFFFFFFFFFFFFFFFFFFFFFFFFFFFFFFFFFF AND CALLER PUSH20 0xFFFFFFFFFFFFFFFFFFFFFFFFFFFFFFFFFFFFFFFF AND EQ ISZERO ISZERO ISZERO PUSH2 0x11D3 JUMPI PUSH1 0x0 DUP1 REVERT JUMPDEST DUP3 PUSH1 0x1 DUP2 SWAP1 SSTORE POP DUP2 PUSH1 0x2 DUP2 SWAP1 SSTORE POP DUP1 PUSH1 0x3 DUP2 SWAP1 SSTORE POP POP POP POP JUMP JUMPDEST PUSH1 0x2 SLOAD DUP2 JUMP JUMPDEST PUSH1 0x0 DUP1 PUSH1 0x0 DUP1 SWAP1 SLOAD SWAP1 PUSH2 0x100 EXP SWAP1 DIV PUSH20 0xFFFFFFFFFFFFFFFFFFFFFFFFFFFFFFFFFFFFFFFF AND PUSH20 0xFFFFFFFFFFFFFFFFFFFFFFFFFFFFFFFFFFFFFFFF AND CALLER PUSH20 0xFFFFFFFFFFFFFFFFFFFFFFFFFFFFFFFFFFFFFFFF AND EQ ISZERO ISZERO ISZERO PUSH2 0x1252 JUMPI PUSH1 0x0 DUP1 REVERT JUMPDEST PUSH1 0x0 PUSH1 0x6 PUSH1 0x0 DUP7 PUSH20 0xFFFFFFFFFFFFFFFFFFFFFFFFFFFFFFFFFFFFFFFF AND PUSH20 0xFFFFFFFFFFFFFFFFFFFFFFFFFFFFFFFFFFFFFFFF AND DUP2 MSTORE PUSH1 0x20 ADD SWAP1 DUP2 MSTORE PUSH1 0x20 ADD PUSH1 0x0 KECCAK256 SLOAD EQ ISZERO PUSH2 0x13C7 JUMPI PUSH1 0x7 DUP1 SLOAD SWAP1 POP PUSH1 0x6 PUSH1 0x0 DUP7 PUSH20 0xFFFFFFFFFFFFFFFFFFFFFFFFFFFFFFFFFFFFFFFF AND PUSH20 0xFFFFFFFFFFFFFFFFFFFFFFFFFFFFFFFFFFFFFFFF AND DUP2 MSTORE PUSH1 0x20 ADD SWAP1 DUP2 MSTORE PUSH1 0x20 ADD PUSH1 0x0 KECCAK256 DUP2 SWAP1 SSTORE POP PUSH1 0x7 DUP1 SLOAD SWAP1 POP SWAP2 POP PUSH1 0x1 PUSH1 0x7 DUP1 SLOAD SWAP1 POP ADD PUSH1 0x7 DUP2 PUSH2 0x1301 SWAP2 SWAP1 PUSH2 0x17CA JUMP JUMPDEST POP PUSH1 0x60 PUSH1 0x40 MLOAD SWAP1 DUP2 ADD PUSH1 0x40 MSTORE DUP1 DUP6 PUSH20 0xFFFFFFFFFFFFFFFFFFFFFFFFFFFFFFFFFFFFFFFF AND DUP2 MSTORE PUSH1 0x20 ADD DUP5 DUP2 MSTORE PUSH1 0x20 ADD TIMESTAMP DUP2 MSTORE POP PUSH1 0x7 DUP4 DUP2 SLOAD DUP2 LT ISZERO ISZERO PUSH2 0x1343 JUMPI INVALID JUMPDEST SWAP1 PUSH1 0x0 MSTORE PUSH1 0x20 PUSH1 0x0 KECCAK256 SWAP1 PUSH1 0x3 MUL ADD PUSH1 0x0 DUP3 ADD MLOAD DUP2 PUSH1 0x0 ADD PUSH1 0x0 PUSH2 0x100 EXP DUP2 SLOAD DUP2 PUSH20 0xFFFFFFFFFFFFFFFFFFFFFFFFFFFFFFFFFFFFFFFF MUL NOT AND SWAP1 DUP4 PUSH20 0xFFFFFFFFFFFFFFFFFFFFFFFFFFFFFFFFFFFFFFFF AND MUL OR SWAP1 SSTORE POP PUSH1 0x20 DUP3 ADD MLOAD DUP2 PUSH1 0x1 ADD SWAP1 DUP1 MLOAD SWAP1 PUSH1 0x20 ADD SWAP1 PUSH2 0x13B4 SWAP3 SWAP2 SWAP1 PUSH2 0x18AE JUMP JUMPDEST POP PUSH1 0x40 DUP3 ADD MLOAD DUP2 PUSH1 0x2 ADD SSTORE SWAP1 POP POP PUSH2 0x1429 JUMP JUMPDEST PUSH1 0x6 PUSH1 0x0 DUP6 PUSH20 0xFFFFFFFFFFFFFFFFFFFFFFFFFFFFFFFFFFFFFFFF AND PUSH20 0xFFFFFFFFFFFFFFFFFFFFFFFFFFFFFFFFFFFFFFFF AND DUP2 MSTORE PUSH1 0x20 ADD SWAP1 DUP2 MSTORE PUSH1 0x20 ADD PUSH1 0x0 KECCAK256 SLOAD SWAP2 POP PUSH1 0x7 DUP3 DUP2 SLOAD DUP2 LT ISZERO ISZERO PUSH2 0x1418 JUMPI INVALID JUMPDEST SWAP1 PUSH1 0x0 MSTORE PUSH1 0x20 PUSH1 0x0 KECCAK256 SWAP1 PUSH1 0x3 MUL ADD SWAP1 POP JUMPDEST POP POP POP POP JUMP JUMPDEST PUSH1 0x0 DUP1 PUSH1 0x0 PUSH1 0x6 PUSH1 0x0 CALLER PUSH20 0xFFFFFFFFFFFFFFFFFFFFFFFFFFFFFFFFFFFFFFFF AND PUSH20 0xFFFFFFFFFFFFFFFFFFFFFFFFFFFFFFFFFFFFFFFF AND DUP2 MSTORE PUSH1 0x20 ADD SWAP1 DUP2 MSTORE PUSH1 0x20 ADD PUSH1 0x0 KECCAK256 SLOAD EQ ISZERO ISZERO PUSH2 0x1480 JUMPI PUSH1 0x0 DUP1 REVERT JUMPDEST PUSH1 0x4 DUP6 DUP2 SLOAD DUP2 LT ISZERO ISZERO PUSH2 0x148F JUMPI INVALID JUMPDEST SWAP1 PUSH1 0x0 MSTORE PUSH1 0x20 PUSH1 0x0 KECCAK256 SWAP1 PUSH1 0xA MUL ADD SWAP1 POP DUP1 PUSH1 0x9 ADD PUSH1 0x0 CALLER PUSH20 0xFFFFFFFFFFFFFFFFFFFFFFFFFFFFFFFFFFFFFFFF AND PUSH20 0xFFFFFFFFFFFFFFFFFFFFFFFFFFFFFFFFFFFFFFFF AND DUP2 MSTORE PUSH1 0x20 ADD SWAP1 DUP2 MSTORE PUSH1 0x20 ADD PUSH1 0x0 KECCAK256 PUSH1 0x0 SWAP1 SLOAD SWAP1 PUSH2 0x100 EXP SWAP1 DIV PUSH1 0xFF AND ISZERO PUSH2 0x14F8 JUMPI PUSH1 0x0 DUP1 REVERT JUMPDEST PUSH1 0x1 DUP2 PUSH1 0x9 ADD PUSH1 0x0 CALLER PUSH20 0xFFFFFFFFFFFFFFFFFFFFFFFFFFFFFFFFFFFFFFFF AND PUSH20 0xFFFFFFFFFFFFFFFFFFFFFFFFFFFFFFFFFFFFFFFF AND DUP2 MSTORE PUSH1 0x20 ADD SWAP1 DUP2 MSTORE PUSH1 0x20 ADD PUSH1 0x0 KECCAK256 PUSH1 0x0 PUSH2 0x100 EXP DUP2 SLOAD DUP2 PUSH1 0xFF MUL NOT AND SWAP1 DUP4 ISZERO ISZERO MUL OR SWAP1 SSTORE POP DUP1 PUSH1 0x5 ADD PUSH1 0x0 DUP2 SLOAD DUP1 SWAP3 SWAP2 SWAP1 PUSH1 0x1 ADD SWAP2 SWAP1 POP SSTORE POP DUP4 ISZERO PUSH2 0x1585 JUMPI DUP1 PUSH1 0x6 ADD PUSH1 0x0 DUP2 SLOAD DUP1 SWAP3 SWAP2 SWAP1 PUSH1 0x1 ADD SWAP2 SWAP1 POP SSTORE POP PUSH2 0x159B JUMP JUMPDEST DUP1 PUSH1 0x6 ADD PUSH1 0x0 DUP2 SLOAD DUP1 SWAP3 SWAP2 SWAP1 PUSH1 0x1 SWAP1 SUB SWAP2 SWAP1 POP SSTORE POP JUMPDEST DUP1 PUSH1 0x5 ADD SLOAD SWAP2 POP POP SWAP4 SWAP3 POP POP POP JUMP JUMPDEST DUP1 PUSH1 0x0 DUP1 PUSH2 0x100 EXP DUP2 SLOAD DUP2 PUSH20 0xFFFFFFFFFFFFFFFFFFFFFFFFFFFFFFFFFFFFFFFF MUL NOT AND SWAP1 DUP4 PUSH20 0xFFFFFFFFFFFFFFFFFFFFFFFFFFFFFFFFFFFFFFFF AND MUL OR SWAP1 SSTORE POP POP JUMP JUMPDEST PUSH1 0x0 DUP1 PUSH1 0x4 DUP7 DUP2 SLOAD DUP2 LT ISZERO ISZERO PUSH2 0x15FF JUMPI INVALID JUMPDEST SWAP1 PUSH1 0x0 MSTORE PUSH1 0x20 PUSH1 0x0 KECCAK256 SWAP1 PUSH1 0xA MUL ADD SWAP1 POP DUP5 DUP5 DUP5 PUSH1 0x40 MLOAD DUP1 DUP5 PUSH20 0xFFFFFFFFFFFFFFFFFFFFFFFFFFFFFFFFFFFFFFFF AND PUSH20 0xFFFFFFFFFFFFFFFFFFFFFFFFFFFFFFFFFFFFFFFF AND PUSH13 0x1000000000000000000000000 MUL DUP2 MSTORE PUSH1 0x14 ADD DUP4 DUP2 MSTORE PUSH1 0x20 ADD DUP3 DUP1 MLOAD SWAP1 PUSH1 0x20 ADD SWAP1 DUP1 DUP4 DUP4 JUMPDEST PUSH1 0x20 DUP4 LT ISZERO ISZERO PUSH2 0x168E JUMPI DUP1 MLOAD DUP3 MSTORE PUSH1 0x20 DUP3 ADD SWAP2 POP PUSH1 0x20 DUP2 ADD SWAP1 POP PUSH1 0x20 DUP4 SUB SWAP3 POP PUSH2 0x1669 JUMP JUMPDEST PUSH1 0x1 DUP4 PUSH1 0x20 SUB PUSH2 0x100 EXP SUB DUP1 NOT DUP3 MLOAD AND DUP2 DUP5 MLOAD AND DUP1 DUP3 OR DUP6 MSTORE POP POP POP POP POP POP SWAP1 POP ADD SWAP4 POP POP POP POP PUSH1 0x40 MLOAD DUP1 SWAP2 SUB SWAP1 KECCAK256 PUSH1 0x0 NOT AND DUP2 PUSH1 0x7 ADD SLOAD PUSH1 0x0 NOT AND EQ SWAP2 POP POP SWAP5 SWAP4 POP POP POP POP JUMP JUMPDEST PUSH1 0x0 DUP1 SWAP1 SLOAD SWAP1 PUSH2 0x100 EXP SWAP1 DIV PUSH20 0xFFFFFFFFFFFFFFFFFFFFFFFFFFFFFFFFFFFFFFFF AND DUP2 JUMP JUMPDEST DUP3 DUP1 SLOAD PUSH1 0x1 DUP2 PUSH1 0x1 AND ISZERO PUSH2 0x100 MUL SUB AND PUSH1 0x2 SWAP1 DIV SWAP1 PUSH1 0x0 MSTORE PUSH1 0x20 PUSH1 0x0 KECCAK256 SWAP1 PUSH1 0x1F ADD PUSH1 0x20 SWAP1 DIV DUP2 ADD SWAP3 DUP3 PUSH1 0x1F LT PUSH2 0x1734 JUMPI DUP1 SLOAD DUP6 SSTORE PUSH2 0x1771 JUMP JUMPDEST DUP3 DUP1 ADD PUSH1 0x1 ADD DUP6 SSTORE DUP3 ISZERO PUSH2 0x1771 JUMPI PUSH1 0x0 MSTORE PUSH1 0x20 PUSH1 0x0 KECCAK256 SWAP2 PUSH1 0x1F ADD PUSH1 0x20 SWAP1 DIV DUP3 ADD JUMPDEST DUP3 DUP2 GT ISZERO PUSH2 0x1770 JUMPI DUP3 SLOAD DUP3 SSTORE SWAP2 PUSH1 0x1 ADD SWAP2 SWAP1 PUSH1 0x1 ADD SWAP1 PUSH2 0x1755 JUMP JUMPDEST JUMPDEST POP SWAP1 POP PUSH2 0x177E SWAP2 SWAP1 PUSH2 0x192E JUMP JUMPDEST POP SWAP1 JUMP JUMPDEST POP DUP1 SLOAD PUSH1 0x1 DUP2 PUSH1 0x1 AND ISZERO PUSH2 0x100 MUL SUB AND PUSH1 0x2 SWAP1 DIV PUSH1 0x0 DUP3 SSTORE DUP1 PUSH1 0x1F LT PUSH2 0x17A8 JUMPI POP PUSH2 0x17C7 JUMP JUMPDEST PUSH1 0x1F ADD PUSH1 0x20 SWAP1 DIV SWAP1 PUSH1 0x0 MSTORE PUSH1 0x20 PUSH1 0x0 KECCAK256 SWAP1 DUP2 ADD SWAP1 PUSH2 0x17C6 SWAP2 SWAP1 PUSH2 0x192E JUMP JUMPDEST JUMPDEST POP JUMP JUMPDEST DUP2 SLOAD DUP2 DUP4 SSTORE DUP2 DUP2 GT ISZERO PUSH2 0x17F7 JUMPI PUSH1 0x3 MUL DUP2 PUSH1 0x3 MUL DUP4 PUSH1 0x0 MSTORE PUSH1 0x20 PUSH1 0x0 KECCAK256 SWAP2 DUP3 ADD SWAP2 ADD PUSH2 0x17F6 SWAP2 SWAP1 PUSH2 0x1953 JUMP JUMPDEST JUMPDEST POP POP POP JUMP JUMPDEST DUP2 SLOAD DUP2 DUP4 SSTORE DUP2 DUP2 GT ISZERO PUSH2 0x1829 JUMPI PUSH1 0xA MUL DUP2 PUSH1 0xA MUL DUP4 PUSH1 0x0 MSTORE PUSH1 0x20 PUSH1 0x0 KECCAK256 SWAP2 DUP3 ADD SWAP2 ADD PUSH2 0x1828 SWAP2 SWAP1 PUSH2 0x19B1 JUMP JUMPDEST JUMPDEST POP POP POP JUMP JUMPDEST DUP3 DUP1 SLOAD PUSH1 0x1 DUP2 PUSH1 0x1 AND ISZERO PUSH2 0x100 MUL SUB AND PUSH1 0x2 SWAP1 DIV SWAP1 PUSH1 0x0 MSTORE PUSH1 0x20 PUSH1 0x0 KECCAK256 SWAP1 PUSH1 0x1F ADD PUSH1 0x20 SWAP1 DIV DUP2 ADD SWAP3 DUP3 PUSH1 0x1F LT PUSH2 0x186F JUMPI DUP1 MLOAD PUSH1 0xFF NOT AND DUP4 DUP1 ADD OR DUP6 SSTORE PUSH2 0x189D JUMP JUMPDEST DUP3 DUP1 ADD PUSH1 0x1 ADD DUP6 SSTORE DUP3 ISZERO PUSH2 0x189D JUMPI SWAP2 DUP3 ADD JUMPDEST DUP3 DUP2 GT ISZERO PUSH2 0x189C JUMPI DUP3 MLOAD DUP3 SSTORE SWAP2 PUSH1 0x20 ADD SWAP2 SWAP1 PUSH1 0x1 ADD SWAP1 PUSH2 0x1881 JUMP JUMPDEST JUMPDEST POP SWAP1 POP PUSH2 0x18AA SWAP2 SWAP1 PUSH2 0x192E JUMP JUMPDEST POP SWAP1 JUMP JUMPDEST DUP3 DUP1 SLOAD PUSH1 0x1 DUP2 PUSH1 0x1 AND ISZERO PUSH2 0x100 MUL SUB AND PUSH1 0x2 SWAP1 DIV SWAP1 PUSH1 0x0 MSTORE PUSH1 0x20 PUSH1 0x0 KECCAK256 SWAP1 PUSH1 0x1F ADD PUSH1 0x20 SWAP1 DIV DUP2 ADD SWAP3 DUP3 PUSH1 0x1F LT PUSH2 0x18EF JUMPI DUP1 MLOAD PUSH1 0xFF NOT AND DUP4 DUP1 ADD OR DUP6 SSTORE PUSH2 0x191D JUMP JUMPDEST DUP3 DUP1 ADD PUSH1 0x1 ADD DUP6 SSTORE DUP3 ISZERO PUSH2 0x191D JUMPI SWAP2 DUP3 ADD JUMPDEST DUP3 DUP2 GT ISZERO PUSH2 0x191C JUMPI DUP3 MLOAD DUP3 SSTORE SWAP2 PUSH1 0x20 ADD SWAP2 SWAP1 PUSH1 0x1 ADD SWAP1 PUSH2 0x1901 JUMP JUMPDEST JUMPDEST POP SWAP1 POP PUSH2 0x192A SWAP2 SWAP1 PUSH2 0x192E JUMP JUMPDEST POP SWAP1 JUMP JUMPDEST PUSH2 0x1950 SWAP2 SWAP1 JUMPDEST DUP1 DUP3 GT ISZERO PUSH2 0x194C JUMPI PUSH1 0x0 DUP2 PUSH1 0x0 SWAP1 SSTORE POP PUSH1 0x1 ADD PUSH2 0x1934 JUMP JUMPDEST POP SWAP1 JUMP JUMPDEST SWAP1 JUMP JUMPDEST PUSH2 0x19AE SWAP2 SWAP1 JUMPDEST DUP1 DUP3 GT ISZERO PUSH2 0x19AA JUMPI PUSH1 0x0 DUP1 DUP3 ADD PUSH1 0x0 PUSH2 0x100 EXP DUP2 SLOAD SWAP1 PUSH20 0xFFFFFFFFFFFFFFFFFFFFFFFFFFFFFFFFFFFFFFFF MUL NOT AND SWAP1 SSTORE PUSH1 0x1 DUP3 ADD PUSH1 0x0 PUSH2 0x1999 SWAP2 SWAP1 PUSH2 0x1782 JUMP JUMPDEST PUSH1 0x2 DUP3 ADD PUSH1 0x0 SWAP1 SSTORE POP PUSH1 0x3 ADD PUSH2 0x1959 JUMP JUMPDEST POP SWAP1 JUMP JUMPDEST SWAP1 JUMP JUMPDEST PUSH2 0x1A64 SWAP2 SWAP1 JUMPDEST DUP1 DUP3 GT ISZERO PUSH2 0x1A60 JUMPI PUSH1 0x0 DUP1 DUP3 ADD PUSH1 0x0 PUSH2 0x100 EXP DUP2 SLOAD SWAP1 PUSH20 0xFFFFFFFFFFFFFFFFFFFFFFFFFFFFFFFFFFFFFFFF MUL NOT AND SWAP1 SSTORE PUSH1 0x1 DUP3 ADD PUSH1 0x0 SWAP1 SSTORE PUSH1 0x2 DUP3 ADD PUSH1 0x0 PUSH2 0x19FF SWAP2 SWAP1 PUSH2 0x1782 JUMP JUMPDEST PUSH1 0x3 DUP3 ADD PUSH1 0x0 SWAP1 SSTORE PUSH1 0x4 DUP3 ADD PUSH1 0x0 PUSH2 0x100 EXP DUP2 SLOAD SWAP1 PUSH1 0xFF MUL NOT AND SWAP1 SSTORE PUSH1 0x4 DUP3 ADD PUSH1 0x1 PUSH2 0x100 EXP DUP2 SLOAD SWAP1 PUSH1 0xFF MUL NOT AND SWAP1 SSTORE PUSH1 0x5 DUP3 ADD PUSH1 0x0 SWAP1 SSTORE PUSH1 0x6 DUP3 ADD PUSH1 0x0 SWAP1 SSTORE PUSH1 0x7 DUP3 ADD PUSH1 0x0 SWAP1 SSTORE PUSH1 0x8 DUP3 ADD PUSH1 0x0 PUSH2 0x1A57 SWAP2 SWAP1 PUSH2 0x1A67 JUMP JUMPDEST POP PUSH1 0xA ADD PUSH2 0x19B7 JUMP JUMPDEST POP SWAP1 JUMP JUMPDEST SWAP1 JUMP JUMPDEST POP DUP1 SLOAD PUSH1 0x0 DUP3 SSTORE PUSH1 0x3 MUL SWAP1 PUSH1 0x0 MSTORE PUSH1 0x20 PUSH1 0x0 KECCAK256 SWAP1 DUP2 ADD SWAP1 PUSH2 0x1A88 SWAP2 SWAP1 PUSH2 0x1A8B JUMP JUMPDEST POP JUMP JUMPDEST PUSH2 0x1AD3 SWAP2 SWAP1 JUMPDEST DUP1 DUP3 GT ISZERO PUSH2 0x1ACF JUMPI PUSH1 0x0 DUP1 DUP3 ADD PUSH1 0x0 PUSH2 0x100 EXP DUP2 SLOAD SWAP1 PUSH1 0xFF MUL NOT AND SWAP1 SSTORE PUSH1 0x1 DUP3 ADD PUSH1 0x0 PUSH2 0x1ABE SWAP2 SWAP1 PUSH2 0x1782 JUMP JUMPDEST PUSH1 0x2 DUP3 ADD PUSH1 0x0 SWAP1 SSTORE POP PUSH1 0x3 ADD PUSH2 0x1A91 JUMP JUMPDEST POP SWAP1 JUMP JUMPDEST SWAP1 JUMP STOP LOG1 PUSH6 0x627A7A723058 KECCAK256 0xc0 0xc0 0xf PUSH19 0xFD5478401A0850D6A65B599E2221758BC43523 DELEGATECALL PUSH19 0xBAE96C31B0AB6F002900000000000000000000 "
				},
				"gasEstimates": {
					"creation": {
						"codeDepositCost": "1382800",
						"executionCost": "infinite",
						"totalCost": "infinite"
					},
					"external": {
						"": "415",
						"addMember(address,string)": "infinite",
						"admin()": "772",
						"changeVotingRules(uint256,uint256,int256)": "60768",
						"checkProposalCode(uint256,address,uint256,bytes)": "infinite",
						"debatingPreriodInMinutes()": "614",
						"executeProposal(uint256,bytes)": "infinite",
						"majorityMargin()": "548",
						"memberId(address)": "598",
						"members(uint256)": "infinite",
						"minimumQuorum()": "526",
						"newProposal(address,uint256,string,bytes)": "infinite",
						"numProposals()": "482",
						"proposals(uint256)": "infinite",
						"removeMember(address)": "infinite",
						"transerAdminship(address)": "20750",
						"vote(uint256,bool,string)": "infinite"
					}
				},
				"methodIdentifiers": {
					"addMember(address,string)": "c127c247",
					"admin()": "f851a440",
					"changeVotingRules(uint256,uint256,int256)": "bcca1fd3",
					"checkProposalCode(uint256,address,uint256,bytes)": "eceb2945",
					"debatingPreriodInMinutes()": "bfee24c2",
					"executeProposal(uint256,bytes)": "237e9492",
					"majorityMargin()": "aa02a90f",
					"memberId(address)": "39106821",
					"members(uint256)": "5daf08ca",
					"minimumQuorum()": "8160f0b5",
					"newProposal(address,uint256,string,bytes)": "b1050da5",
					"numProposals()": "400e3949",
					"proposals(uint256)": "013cf08b",
					"removeMember(address)": "0b1ca49a",
					"transerAdminship(address)": "db529e4e",
					"vote(uint256,bool,string)": "d3c0715b"
				}
			},
			"userdoc": {
				"methods": {}
			}
		}
	}
}