{
	"contracts/Congress.sol": {
		"Congress": {
			"abi": [
				{
					"constant": true,
					"inputs": [
						{
							"name": "",
							"type": "uint256"
						}
					],
					"name": "proposals",
					"outputs": [
						{
							"name": "recipient",
							"type": "address"
						},
						{
							"name": "amount",
							"type": "uint256"
						},
						{
							"name": "description",
							"type": "string"
						},
						{
							"name": "votingDeadline",
							"type": "uint256"
						},
						{
							"name": "executed",
							"type": "bool"
						},
						{
							"name": "proposalPassed",
							"type": "bool"
						},
						{
							"name": "numberOfVotes",
							"type": "uint256"
						},
						{
							"name": "currentResult",
							"type": "int256"
						},
						{
							"name": "proposalHash",
							"type": "bytes32"
						}
					],
					"payable": false,
					"stateMutability": "view",
					"type": "function"
				},
				{
					"constant": false,
					"inputs": [
						{
							"name": "targetMember",
							"type": "address"
						}
					],
					"name": "removeMember",
					"outputs": [],
					"payable": false,
					"stateMutability": "nonpayable",
					"type": "function"
				},
				{
					"constant": false,
					"inputs": [
						{
							"name": "proposalNumber",
							"type": "uint256"
						},
						{
							"name": "transactionBytecode",
							"type": "bytes"
						}
					],
					"name": "executeProposal",
					"outputs": [],
					"payable": false,
					"stateMutability": "nonpayable",
					"type": "function"
				},
				{
					"constant": true,
					"inputs": [
						{
							"name": "",
							"type": "address"
						}
					],
					"name": "memberId",
					"outputs": [
						{
							"name": "",
							"type": "uint256"
						}
					],
					"payable": false,
					"stateMutability": "view",
					"type": "function"
				},
				{
					"constant": false,
					"inputs": [],
					"name": "checkProposalCode",
					"outputs": [],
					"payable": false,
					"stateMutability": "nonpayable",
					"type": "function"
				},
				{
					"constant": true,
					"inputs": [],
					"name": "numProposals",
					"outputs": [
						{
							"name": "",
							"type": "uint256"
						}
					],
					"payable": false,
					"stateMutability": "view",
					"type": "function"
				},
				{
					"constant": true,
					"inputs": [
						{
							"name": "",
							"type": "uint256"
						}
					],
					"name": "members",
					"outputs": [
						{
							"name": "member",
							"type": "address"
						},
						{
							"name": "name",
							"type": "string"
						},
						{
							"name": "memberSince",
							"type": "uint256"
						}
					],
					"payable": false,
					"stateMutability": "view",
					"type": "function"
				},
				{
					"constant": false,
					"inputs": [],
					"name": "vote",
					"outputs": [],
					"payable": false,
					"stateMutability": "nonpayable",
					"type": "function"
				},
				{
					"constant": false,
					"inputs": [],
					"name": "newProposal",
					"outputs": [],
					"payable": false,
					"stateMutability": "nonpayable",
					"type": "function"
				},
				{
					"constant": true,
					"inputs": [],
					"name": "minimumQuorum",
					"outputs": [
						{
							"name": "",
							"type": "uint256"
						}
					],
					"payable": false,
					"stateMutability": "view",
					"type": "function"
				},
				{
					"constant": true,
					"inputs": [],
					"name": "majorityMargin",
					"outputs": [
						{
							"name": "",
							"type": "int256"
						}
					],
					"payable": false,
					"stateMutability": "view",
					"type": "function"
				},
				{
					"constant": false,
					"inputs": [
						{
							"name": "minimumQuorumProposal",
							"type": "uint256"
						},
						{
							"name": "minutesForDebate",
							"type": "uint256"
						},
						{
							"name": "marginOfVotesForMajority",
							"type": "int256"
						}
					],
					"name": "changeVotingRules",
					"outputs": [],
					"payable": false,
					"stateMutability": "nonpayable",
					"type": "function"
				},
				{
					"constant": true,
					"inputs": [],
					"name": "debatingPreriodInMinutes",
					"outputs": [
						{
							"name": "",
							"type": "uint256"
						}
					],
					"payable": false,
					"stateMutability": "view",
					"type": "function"
				},
				{
					"constant": false,
					"inputs": [
						{
							"name": "targetMember",
							"type": "address"
						},
						{
							"name": "memberName",
							"type": "string"
						}
					],
					"name": "addMember",
					"outputs": [],
					"payable": false,
					"stateMutability": "nonpayable",
					"type": "function"
				},
				{
					"constant": false,
					"inputs": [
						{
							"name": "newAdmin",
							"type": "address"
						}
					],
					"name": "transerAdminship",
					"outputs": [],
					"payable": false,
					"stateMutability": "nonpayable",
					"type": "function"
				},
				{
					"constant": true,
					"inputs": [],
					"name": "admin",
					"outputs": [
						{
							"name": "",
							"type": "address"
						}
					],
					"payable": false,
					"stateMutability": "view",
					"type": "function"
				},
				{
					"inputs": [
						{
							"name": "minimumQuorumProposal",
							"type": "uint256"
						},
						{
							"name": "minutesForDebate",
							"type": "uint256"
						},
						{
							"name": "marginOfVotesForMajority",
							"type": "int256"
						},
						{
							"name": "congressLeader",
							"type": "address"
						}
					],
					"payable": true,
					"stateMutability": "payable",
					"type": "constructor"
				},
				{
					"payable": true,
					"stateMutability": "payable",
					"type": "fallback"
				}
			],
			"devdoc": {
				"methods": {}
			},
			"evm": {
				"assembly": "    /* \"contracts/Congress.sol\":302:3184  contract Congress is admined {... */\n  mstore(0x40, 0x80)\n    /* \"contracts/Congress.sol\":1229:1658  function Congress(... */\n  mload(0x40)\n  0x80\n  dup1\n  bytecodeSize\n  dup4\n  codecopy\n  dup2\n  add\n  dup1\n  0x40\n  mstore\n  dup2\n  add\n  swap1\n  dup1\n  dup1\n  mload\n  swap1\n  0x20\n  add\n  swap1\n  swap3\n  swap2\n  swap1\n  dup1\n  mload\n  swap1\n  0x20\n  add\n  swap1\n  swap3\n  swap2\n  swap1\n  dup1\n  mload\n  swap1\n  0x20\n  add\n  swap1\n  swap3\n  swap2\n  swap1\n  dup1\n  mload\n  swap1\n  0x20\n  add\n  swap1\n  swap3\n  swap2\n  swap1\n  pop\n  pop\n  pop\n    /* \"contracts/Congress.sol\":113:123  msg.sender */\n  caller\n    /* \"contracts/Congress.sol\":105:110  admin */\n  0x0\n  dup1\n    /* \"contracts/Congress.sol\":105:123  admin = msg.sender */\n  0x100\n  exp\n  dup2\n  sload\n  dup2\n  0xffffffffffffffffffffffffffffffffffffffff\n  mul\n  not\n  and\n  swap1\n  dup4\n  0xffffffffffffffffffffffffffffffffffffffff\n  and\n  mul\n  or\n  swap1\n  sstore\n  pop\n    /* \"contracts/Congress.sol\":1415:1499  changeVotingRules(minimumQuorumProposal, minutesForDebate, marginOfVotesForMajority) */\n  tag_5\n    /* \"contracts/Congress.sol\":1433:1454  minimumQuorumProposal */\n  dup5\n    /* \"contracts/Congress.sol\":1456:1472  minutesForDebate */\n  dup5\n    /* \"contracts/Congress.sol\":1474:1498  marginOfVotesForMajority */\n  dup5\n    /* \"contracts/Congress.sol\":1415:1432  changeVotingRules */\n  mul(0x100000000, tag_6)\n    /* \"contracts/Congress.sol\":1415:1499  changeVotingRules(minimumQuorumProposal, minutesForDebate, marginOfVotesForMajority) */\n  0x100000000\n  swap1\n  div\n  jump\t// in\ntag_5:\n    /* \"contracts/Congress.sol\":1531:1532  0 */\n  0x0\n    /* \"contracts/Congress.sol\":1513:1527  congressLeader */\n  dup2\n    /* \"contracts/Congress.sol\":1513:1532  congressLeader == 0 */\n  0xffffffffffffffffffffffffffffffffffffffff\n  and\n  eq\n    /* \"contracts/Congress.sol\":1510:1589  if(congressLeader == 0) admin = msg.sender;... */\n  iszero\n  tag_7\n  jumpi\n    /* \"contracts/Congress.sol\":1542:1552  msg.sender */\n  caller\n    /* \"contracts/Congress.sol\":1534:1539  admin */\n  0x0\n  dup1\n    /* \"contracts/Congress.sol\":1534:1552  admin = msg.sender */\n  0x100\n  exp\n  dup2\n  sload\n  dup2\n  0xffffffffffffffffffffffffffffffffffffffff\n  mul\n  not\n  and\n  swap1\n  dup4\n  0xffffffffffffffffffffffffffffffffffffffff\n  and\n  mul\n  or\n  swap1\n  sstore\n  pop\n    /* \"contracts/Congress.sol\":1510:1589  if(congressLeader == 0) admin = msg.sender;... */\n  jump(tag_8)\ntag_7:\n    /* \"contracts/Congress.sol\":1575:1589  congressLeader */\n  dup1\n    /* \"contracts/Congress.sol\":1567:1572  admin */\n  0x0\n  dup1\n    /* \"contracts/Congress.sol\":1567:1589  admin = congressLeader */\n  0x100\n  exp\n  dup2\n  sload\n  dup2\n  0xffffffffffffffffffffffffffffffffffffffff\n  mul\n  not\n  and\n  swap1\n  dup4\n  0xffffffffffffffffffffffffffffffffffffffff\n  and\n  mul\n  or\n  swap1\n  sstore\n  pop\n    /* \"contracts/Congress.sol\":1510:1589  if(congressLeader == 0) admin = msg.sender;... */\ntag_8:\n    /* \"contracts/Congress.sol\":1600:1616  addMember(0, \"\") */\n  tag_9\n    /* \"contracts/Congress.sol\":1610:1611  0 */\n  0x0\n    /* \"contracts/Congress.sol\":1600:1616  addMember(0, \"\") */\n  0x20\n  mload(0x40)\n  swap1\n  dup2\n  add\n  0x40\n  mstore\n  dup1\n  0x0\n  dup2\n  mstore\n  pop\n    /* \"contracts/Congress.sol\":1600:1609  addMember */\n  mul(0x100000000, tag_10)\n    /* \"contracts/Congress.sol\":1600:1616  addMember(0, \"\") */\n  0x100000000\n  swap1\n  div\n  jump\t// in\ntag_9:\n    /* \"contracts/Congress.sol\":1626:1651  addMember(admin, \"Admin\") */\n  tag_11\n    /* \"contracts/Congress.sol\":1636:1641  admin */\n  0x0\n  dup1\n  swap1\n  sload\n  swap1\n  0x100\n  exp\n  swap1\n  div\n  0xffffffffffffffffffffffffffffffffffffffff\n  and\n    /* \"contracts/Congress.sol\":1626:1651  addMember(admin, \"Admin\") */\n  0x40\n  dup1\n  mload\n  swap1\n  dup2\n  add\n  0x40\n  mstore\n  dup1\n  0x5\n  dup2\n  mstore\n  0x20\n  add\n  0x41646d696e000000000000000000000000000000000000000000000000000000\n  dup2\n  mstore\n  pop\n    /* \"contracts/Congress.sol\":1626:1635  addMember */\n  mul(0x100000000, tag_10)\n    /* \"contracts/Congress.sol\":1626:1651  addMember(admin, \"Admin\") */\n  0x100000000\n  swap1\n  div\n  jump\t// in\ntag_11:\n    /* \"contracts/Congress.sol\":1229:1658  function Congress(... */\n  pop\n  pop\n  pop\n  pop\n    /* \"contracts/Congress.sol\":302:3184  contract Congress is admined {... */\n  jump(tag_12)\n    /* \"contracts/Congress.sol\":2475:2788  function changeVotingRules(... */\ntag_6:\n    /* \"contracts/Congress.sol\":184:189  admin */\n  0x0\n  dup1\n  swap1\n  sload\n  swap1\n  0x100\n  exp\n  swap1\n  div\n  0xffffffffffffffffffffffffffffffffffffffff\n  and\n    /* \"contracts/Congress.sol\":170:189  msg.sender != admin */\n  0xffffffffffffffffffffffffffffffffffffffff\n  and\n    /* \"contracts/Congress.sol\":170:180  msg.sender */\n  caller\n    /* \"contracts/Congress.sol\":170:189  msg.sender != admin */\n  0xffffffffffffffffffffffffffffffffffffffff\n  and\n  eq\n  iszero\n    /* \"contracts/Congress.sol\":167:196  if(msg.sender != admin) throw */\n  iszero\n  tag_14\n  jumpi\n    /* \"contracts/Congress.sol\":191:196  throw */\n  0x0\n  dup1\n  revert\n    /* \"contracts/Congress.sol\":167:196  if(msg.sender != admin) throw */\ntag_14:\n    /* \"contracts/Congress.sol\":2656:2677  minimumQuorumProposal */\n  dup3\n    /* \"contracts/Congress.sol\":2640:2653  minimumQuorum */\n  0x1\n    /* \"contracts/Congress.sol\":2640:2677  minimumQuorum = minimumQuorumProposal */\n  dup2\n  swap1\n  sstore\n  pop\n    /* \"contracts/Congress.sol\":2714:2730  minutesForDebate */\n  dup2\n    /* \"contracts/Congress.sol\":2687:2711  debatingPreriodInMinutes */\n  0x2\n    /* \"contracts/Congress.sol\":2687:2730  debatingPreriodInMinutes = minutesForDebate */\n  dup2\n  swap1\n  sstore\n  pop\n    /* \"contracts/Congress.sol\":2757:2781  marginOfVotesForMajority */\n  dup1\n    /* \"contracts/Congress.sol\":2740:2754  majorityMargin */\n  0x3\n    /* \"contracts/Congress.sol\":2740:2781  majorityMargin = marginOfVotesForMajority */\n  dup2\n  swap1\n  sstore\n  pop\n    /* \"contracts/Congress.sol\":2475:2788  function changeVotingRules(... */\n  pop\n  pop\n  pop\n  jump\t// out\n    /* \"contracts/Congress.sol\":1684:2160  function addMember(address targetMember, string memberName) onlyAdmin public {... */\ntag_10:\n    /* \"contracts/Congress.sol\":1771:1778  uint id */\n  0x0\n    /* \"contracts/Congress.sol\":2121:2129  Member m */\n  dup1\n    /* \"contracts/Congress.sol\":184:189  admin */\n  0x0\n  dup1\n  swap1\n  sload\n  swap1\n  0x100\n  exp\n  swap1\n  div\n  0xffffffffffffffffffffffffffffffffffffffff\n  and\n    /* \"contracts/Congress.sol\":170:189  msg.sender != admin */\n  0xffffffffffffffffffffffffffffffffffffffff\n  and\n    /* \"contracts/Congress.sol\":170:180  msg.sender */\n  caller\n    /* \"contracts/Congress.sol\":170:189  msg.sender != admin */\n  0xffffffffffffffffffffffffffffffffffffffff\n  and\n  eq\n  iszero\n    /* \"contracts/Congress.sol\":167:196  if(msg.sender != admin) throw */\n  iszero\n  tag_17\n  jumpi\n    /* \"contracts/Congress.sol\":191:196  throw */\n  0x0\n  dup1\n  revert\n    /* \"contracts/Congress.sol\":167:196  if(msg.sender != admin) throw */\ntag_17:\n    /* \"contracts/Congress.sol\":1817:1818  0 */\n  0x0\n    /* \"contracts/Congress.sol\":1791:1799  memberId */\n  0x6\n    /* \"contracts/Congress.sol\":1791:1813  memberId[targetMember] */\n  0x0\n    /* \"contracts/Congress.sol\":1800:1812  targetMember */\n  dup7\n    /* \"contracts/Congress.sol\":1791:1813  memberId[targetMember] */\n  0xffffffffffffffffffffffffffffffffffffffff\n  and\n  0xffffffffffffffffffffffffffffffffffffffff\n  and\n  dup2\n  mstore\n  0x20\n  add\n  swap1\n  dup2\n  mstore\n  0x20\n  add\n  0x0\n  keccak256\n  sload\n    /* \"contracts/Congress.sol\":1791:1818  memberId[targetMember] == 0 */\n  eq\n    /* \"contracts/Congress.sol\":1788:2154  if(memberId[targetMember] == 0) {... */\n  iszero\n  tag_19\n  jumpi\n    /* \"contracts/Congress.sol\":1859:1866  members */\n  0x7\n    /* \"contracts/Congress.sol\":1859:1873  members.length */\n  dup1\n  sload\n  swap1\n  pop\n    /* \"contracts/Congress.sol\":1834:1842  memberId */\n  0x6\n    /* \"contracts/Congress.sol\":1834:1856  memberId[targetMember] */\n  0x0\n    /* \"contracts/Congress.sol\":1843:1855  targetMember */\n  dup7\n    /* \"contracts/Congress.sol\":1834:1856  memberId[targetMember] */\n  0xffffffffffffffffffffffffffffffffffffffff\n  and\n  0xffffffffffffffffffffffffffffffffffffffff\n  and\n  dup2\n  mstore\n  0x20\n  add\n  swap1\n  dup2\n  mstore\n  0x20\n  add\n  0x0\n  keccak256\n    /* \"contracts/Congress.sol\":1834:1873  memberId[targetMember] = members.length */\n  dup2\n  swap1\n  sstore\n  pop\n    /* \"contracts/Congress.sol\":1892:1899  members */\n  0x7\n    /* \"contracts/Congress.sol\":1892:1906  members.length */\n  dup1\n  sload\n  swap1\n  pop\n    /* \"contracts/Congress.sol\":1887:1906  id = members.length */\n  swap2\n  pop\n    /* \"contracts/Congress.sol\":1954:1955  1 */\n  0x1\n    /* \"contracts/Congress.sol\":1937:1944  members */\n  0x7\n    /* \"contracts/Congress.sol\":1937:1951  members.length */\n  dup1\n  sload\n  swap1\n  pop\n    /* \"contracts/Congress.sol\":1937:1955  members.length + 1 */\n  add\n    /* \"contracts/Congress.sol\":1920:1927  members */\n  0x7\n    /* \"contracts/Congress.sol\":1920:1955  members.length = members.length + 1 */\n  dup2\n  tag_20\n  swap2\n  swap1\n  jump\t// in(tag_21)\ntag_20:\n  pop\n    /* \"contracts/Congress.sol\":1983:2049  Member({member: targetMember, memberSince: now, name: memberName}) */\n  0x60\n  mload(0x40)\n  swap1\n  dup2\n  add\n  0x40\n  mstore\n  dup1\n    /* \"contracts/Congress.sol\":1999:2011  targetMember */\n  dup6\n    /* \"contracts/Congress.sol\":1983:2049  Member({member: targetMember, memberSince: now, name: memberName}) */\n  0xffffffffffffffffffffffffffffffffffffffff\n  and\n  dup2\n  mstore\n  0x20\n  add\n    /* \"contracts/Congress.sol\":2037:2047  memberName */\n  dup5\n    /* \"contracts/Congress.sol\":1983:2049  Member({member: targetMember, memberSince: now, name: memberName}) */\n  dup2\n  mstore\n  0x20\n  add\n    /* \"contracts/Congress.sol\":2026:2029  now */\n  timestamp\n    /* \"contracts/Congress.sol\":1983:2049  Member({member: targetMember, memberSince: now, name: memberName}) */\n  dup2\n  mstore\n  pop\n    /* \"contracts/Congress.sol\":1969:1976  members */\n  0x7\n    /* \"contracts/Congress.sol\":1977:1979  id */\n  dup4\n    /* \"contracts/Congress.sol\":1969:1980  members[id] */\n  dup2\n  sload\n  dup2\n  lt\n  iszero\n  iszero\n  tag_22\n  jumpi\n  invalid\ntag_22:\n  swap1\n  0x0\n  mstore\n  keccak256(0x0, 0x20)\n  swap1\n  0x3\n  mul\n  add\n    /* \"contracts/Congress.sol\":1969:2049  members[id] = Member({member: targetMember, memberSince: now, name: memberName}) */\n  0x0\n  dup3\n  add\n  mload\n  dup2\n  0x0\n  add\n  exp(0x100, 0x0)\n  dup2\n  sload\n  dup2\n  0xffffffffffffffffffffffffffffffffffffffff\n  mul\n  not\n  and\n  swap1\n  dup4\n  0xffffffffffffffffffffffffffffffffffffffff\n  and\n  mul\n  or\n  swap1\n  sstore\n  pop\n  0x20\n  dup3\n  add\n  mload\n  dup2\n  0x1\n  add\n  swap1\n  dup1\n  mload\n  swap1\n  0x20\n  add\n  swap1\n  tag_24\n  swap3\n  swap2\n  swap1\n  jump\t// in(tag_25)\ntag_24:\n  pop\n  0x40\n  dup3\n  add\n  mload\n  dup2\n  0x2\n  add\n  sstore\n  swap1\n  pop\n  pop\n    /* \"contracts/Congress.sol\":1788:2154  if(memberId[targetMember] == 0) {... */\n  jump(tag_26)\ntag_19:\n    /* \"contracts/Congress.sol\":2085:2093  memberId */\n  0x6\n    /* \"contracts/Congress.sol\":2085:2107  memberId[targetMember] */\n  0x0\n    /* \"contracts/Congress.sol\":2094:2106  targetMember */\n  dup6\n    /* \"contracts/Congress.sol\":2085:2107  memberId[targetMember] */\n  0xffffffffffffffffffffffffffffffffffffffff\n  and\n  0xffffffffffffffffffffffffffffffffffffffff\n  and\n  dup2\n  mstore\n  0x20\n  add\n  swap1\n  dup2\n  mstore\n  0x20\n  add\n  0x0\n  keccak256\n  sload\n    /* \"contracts/Congress.sol\":2080:2107  id = memberId[targetMember] */\n  swap2\n  pop\n    /* \"contracts/Congress.sol\":2132:2139  members */\n  0x7\n    /* \"contracts/Congress.sol\":2140:2142  id */\n  dup3\n    /* \"contracts/Congress.sol\":2132:2143  members[id] */\n  dup2\n  sload\n  dup2\n  lt\n  iszero\n  iszero\n  tag_27\n  jumpi\n  invalid\ntag_27:\n  swap1\n  0x0\n  mstore\n  keccak256(0x0, 0x20)\n  swap1\n  0x3\n  mul\n  add\n    /* \"contracts/Congress.sol\":2121:2143  Member m = members[id] */\n  swap1\n  pop\n    /* \"contracts/Congress.sol\":1788:2154  if(memberId[targetMember] == 0) {... */\ntag_26:\n    /* \"contracts/Congress.sol\":1684:2160  function addMember(address targetMember, string memberName) onlyAdmin public {... */\n  pop\n  pop\n  pop\n  pop\n  jump\t// out\n    /* \"contracts/Congress.sol\":302:3184  contract Congress is admined {... */\ntag_21:\n  dup2\n  sload\n  dup2\n  dup4\n  sstore\n  dup2\n  dup2\n  gt\n  iszero\n  tag_29\n  jumpi\n  0x3\n  mul\n  dup2\n  0x3\n  mul\n  dup4\n  0x0\n  mstore\n  keccak256(0x0, 0x20)\n  swap2\n  dup3\n  add\n  swap2\n  add\n  tag_30\n  swap2\n  swap1\n  jump\t// in(tag_31)\ntag_30:\ntag_29:\n  pop\n  pop\n  pop\n  jump\t// out\ntag_25:\n  dup3\n  dup1\n  sload\n  0x1\n  dup2\n  0x1\n  and\n  iszero\n  0x100\n  mul\n  sub\n  and\n  0x2\n  swap1\n  div\n  swap1\n  0x0\n  mstore\n  keccak256(0x0, 0x20)\n  swap1\n  0x1f\n  add\n  0x20\n  swap1\n  div\n  dup2\n  add\n  swap3\n  dup3\n  0x1f\n  lt\n  tag_33\n  jumpi\n  dup1\n  mload\n  not(0xff)\n  and\n  dup4\n  dup1\n  add\n  or\n  dup6\n  sstore\n  jump(tag_32)\ntag_33:\n  dup3\n  dup1\n  add\n  0x1\n  add\n  dup6\n  sstore\n  dup3\n  iszero\n  tag_32\n  jumpi\n  swap2\n  dup3\n  add\ntag_34:\n  dup3\n  dup2\n  gt\n  iszero\n  tag_35\n  jumpi\n  dup3\n  mload\n  dup3\n  sstore\n  swap2\n  0x20\n  add\n  swap2\n  swap1\n  0x1\n  add\n  swap1\n  jump(tag_34)\ntag_35:\ntag_32:\n  pop\n  swap1\n  pop\n  tag_36\n  swap2\n  swap1\n  jump\t// in(tag_37)\ntag_36:\n  pop\n  swap1\n  jump\t// out\ntag_31:\n  tag_38\n  swap2\n  swap1\ntag_39:\n  dup1\n  dup3\n  gt\n  iszero\n  tag_40\n  jumpi\n  0x0\n  dup1\n  dup3\n  add\n  exp(0x100, 0x0)\n  dup2\n  sload\n  swap1\n  0xffffffffffffffffffffffffffffffffffffffff\n  mul\n  not\n  and\n  swap1\n  sstore\n  0x1\n  dup3\n  add\n  0x0\n  tag_41\n  swap2\n  swap1\n  jump\t// in(tag_42)\ntag_41:\n  0x2\n  dup3\n  add\n  0x0\n  swap1\n  sstore\n  pop\n  0x3\n  add\n  jump(tag_39)\ntag_40:\n  pop\n  swap1\n  jump\ntag_38:\n  swap1\n  jump\t// out\ntag_37:\n  tag_43\n  swap2\n  swap1\ntag_44:\n  dup1\n  dup3\n  gt\n  iszero\n  tag_45\n  jumpi\n  0x0\n  dup2\n  0x0\n  swap1\n  sstore\n  pop\n  0x1\n  add\n  jump(tag_44)\ntag_45:\n  pop\n  swap1\n  jump\ntag_43:\n  swap1\n  jump\t// out\ntag_42:\n  pop\n  dup1\n  sload\n  0x1\n  dup2\n  0x1\n  and\n  iszero\n  0x100\n  mul\n  sub\n  and\n  0x2\n  swap1\n  div\n  0x0\n  dup3\n  sstore\n  dup1\n  0x1f\n  lt\n  tag_47\n  jumpi\n  pop\n  jump(tag_46)\ntag_47:\n  0x1f\n  add\n  0x20\n  swap1\n  div\n  swap1\n  0x0\n  mstore\n  keccak256(0x0, 0x20)\n  swap1\n  dup2\n  add\n  swap1\n  tag_48\n  swap2\n  swap1\n  jump\t// in(tag_37)\ntag_48:\ntag_46:\n  pop\n  jump\t// out\ntag_12:\n  dataSize(sub_0)\n  dup1\n  dataOffset(sub_0)\n  0x0\n  codecopy\n  0x0\n  return\nstop\n\nsub_0: assembly {\n        /* \"contracts/Congress.sol\":302:3184  contract Congress is admined {... */\n      mstore(0x40, 0x80)\n      jumpi(tag_1, lt(calldatasize, 0x4))\n      calldataload(0x0)\n      0x100000000000000000000000000000000000000000000000000000000\n      swap1\n      div\n      0xffffffff\n      and\n      dup1\n      0x13cf08b\n      eq\n      tag_2\n      jumpi\n      dup1\n      0xb1ca49a\n      eq\n      tag_3\n      jumpi\n      dup1\n      0x237e9492\n      eq\n      tag_4\n      jumpi\n      dup1\n      0x39106821\n      eq\n      tag_5\n      jumpi\n      dup1\n      0x3fb2d655\n      eq\n      tag_6\n      jumpi\n      dup1\n      0x400e3949\n      eq\n      tag_7\n      jumpi\n      dup1\n      0x5daf08ca\n      eq\n      tag_8\n      jumpi\n      dup1\n      0x632a9a52\n      eq\n      tag_9\n      jumpi\n      dup1\n      0x68744564\n      eq\n      tag_10\n      jumpi\n      dup1\n      0x8160f0b5\n      eq\n      tag_11\n      jumpi\n      dup1\n      0xaa02a90f\n      eq\n      tag_12\n      jumpi\n      dup1\n      0xbcca1fd3\n      eq\n      tag_13\n      jumpi\n      dup1\n      0xbfee24c2\n      eq\n      tag_14\n      jumpi\n      dup1\n      0xc127c247\n      eq\n      tag_15\n      jumpi\n      dup1\n      0xdb529e4e\n      eq\n      tag_16\n      jumpi\n      dup1\n      0xf851a440\n      eq\n      tag_17\n      jumpi\n    tag_1:\n      stop\n        /* \"contracts/Congress.sol\":442:469  Proposal[] public proposals */\n    tag_2:\n      callvalue\n        /* \"--CODEGEN--\":8:17   */\n      dup1\n        /* \"--CODEGEN--\":5:7   */\n      iszero\n      tag_20\n      jumpi\n        /* \"--CODEGEN--\":30:31   */\n      0x0\n        /* \"--CODEGEN--\":27:28   */\n      dup1\n        /* \"--CODEGEN--\":20:32   */\n      revert\n        /* \"--CODEGEN--\":5:7   */\n    tag_20:\n        /* \"contracts/Congress.sol\":442:469  Proposal[] public proposals */\n      pop\n      tag_21\n      0x4\n      dup1\n      calldatasize\n      sub\n      dup2\n      add\n      swap1\n      dup1\n      dup1\n      calldataload\n      swap1\n      0x20\n      add\n      swap1\n      swap3\n      swap2\n      swap1\n      pop\n      pop\n      pop\n      jump(tag_22)\n    tag_21:\n      mload(0x40)\n      dup1\n      dup11\n      0xffffffffffffffffffffffffffffffffffffffff\n      and\n      0xffffffffffffffffffffffffffffffffffffffff\n      and\n      dup2\n      mstore\n      0x20\n      add\n      dup10\n      dup2\n      mstore\n      0x20\n      add\n      dup1\n      0x20\n      add\n      dup9\n      dup2\n      mstore\n      0x20\n      add\n      dup8\n      iszero\n      iszero\n      iszero\n      iszero\n      dup2\n      mstore\n      0x20\n      add\n      dup7\n      iszero\n      iszero\n      iszero\n      iszero\n      dup2\n      mstore\n      0x20\n      add\n      dup6\n      dup2\n      mstore\n      0x20\n      add\n      dup5\n      dup2\n      mstore\n      0x20\n      add\n      dup4\n      not(0x0)\n      and\n      not(0x0)\n      and\n      dup2\n      mstore\n      0x20\n      add\n      dup3\n      dup2\n      sub\n      dup3\n      mstore\n      dup10\n      dup2\n      dup2\n      mload\n      dup2\n      mstore\n      0x20\n      add\n      swap2\n      pop\n      dup1\n      mload\n      swap1\n      0x20\n      add\n      swap1\n      dup1\n      dup4\n      dup4\n        /* \"--CODEGEN--\":23:24   */\n      0x0\n        /* \"--CODEGEN--\":8:108   */\n    tag_23:\n        /* \"--CODEGEN--\":33:36   */\n      dup4\n        /* \"--CODEGEN--\":30:31   */\n      dup2\n        /* \"--CODEGEN--\":27:37   */\n      lt\n        /* \"--CODEGEN--\":8:108   */\n      iszero\n      tag_24\n      jumpi\n        /* \"--CODEGEN--\":99:100   */\n      dup1\n        /* \"--CODEGEN--\":94:97   */\n      dup3\n        /* \"--CODEGEN--\":90:101   */\n      add\n        /* \"--CODEGEN--\":84:102   */\n      mload\n        /* \"--CODEGEN--\":80:81   */\n      dup2\n        /* \"--CODEGEN--\":75:78   */\n      dup5\n        /* \"--CODEGEN--\":71:82   */\n      add\n        /* \"--CODEGEN--\":64:103   */\n      mstore\n        /* \"--CODEGEN--\":52:54   */\n      0x20\n        /* \"--CODEGEN--\":49:50   */\n      dup2\n        /* \"--CODEGEN--\":45:55   */\n      add\n        /* \"--CODEGEN--\":40:55   */\n      swap1\n      pop\n        /* \"--CODEGEN--\":8:108   */\n      jump(tag_23)\n    tag_24:\n        /* \"--CODEGEN--\":12:26   */\n      pop\n        /* \"contracts/Congress.sol\":442:469  Proposal[] public proposals */\n      pop\n      pop\n      pop\n      swap1\n      pop\n      swap1\n      dup2\n      add\n      swap1\n      0x1f\n      and\n      dup1\n      iszero\n      tag_26\n      jumpi\n      dup1\n      dup3\n      sub\n      dup1\n      mload\n      0x1\n      dup4\n      0x20\n      sub\n      0x100\n      exp\n      sub\n      not\n      and\n      dup2\n      mstore\n      0x20\n      add\n      swap2\n      pop\n    tag_26:\n      pop\n      swap11\n      pop\n      pop\n      pop\n      pop\n      pop\n      pop\n      pop\n      pop\n      pop\n      pop\n      pop\n      mload(0x40)\n      dup1\n      swap2\n      sub\n      swap1\n      return\n        /* \"contracts/Congress.sol\":2166:2448  function removeMember(address targetMember) onlyAdmin public {... */\n    tag_3:\n      callvalue\n        /* \"--CODEGEN--\":8:17   */\n      dup1\n        /* \"--CODEGEN--\":5:7   */\n      iszero\n      tag_27\n      jumpi\n        /* \"--CODEGEN--\":30:31   */\n      0x0\n        /* \"--CODEGEN--\":27:28   */\n      dup1\n        /* \"--CODEGEN--\":20:32   */\n      revert\n        /* \"--CODEGEN--\":5:7   */\n    tag_27:\n        /* \"contracts/Congress.sol\":2166:2448  function removeMember(address targetMember) onlyAdmin public {... */\n      pop\n      tag_28\n      0x4\n      dup1\n      calldatasize\n      sub\n      dup2\n      add\n      swap1\n      dup1\n      dup1\n      calldataload\n      0xffffffffffffffffffffffffffffffffffffffff\n      and\n      swap1\n      0x20\n      add\n      swap1\n      swap3\n      swap2\n      swap1\n      pop\n      pop\n      pop\n      jump(tag_29)\n    tag_28:\n      stop\n        /* \"contracts/Congress.sol\":3044:3140  function executeProposal(uint proposalNumber, bytes transactionBytecode) public {... */\n    tag_4:\n      callvalue\n        /* \"--CODEGEN--\":8:17   */\n      dup1\n        /* \"--CODEGEN--\":5:7   */\n      iszero\n      tag_30\n      jumpi\n        /* \"--CODEGEN--\":30:31   */\n      0x0\n        /* \"--CODEGEN--\":27:28   */\n      dup1\n        /* \"--CODEGEN--\":20:32   */\n      revert\n        /* \"--CODEGEN--\":5:7   */\n    tag_30:\n        /* \"contracts/Congress.sol\":3044:3140  function executeProposal(uint proposalNumber, bytes transactionBytecode) public {... */\n      pop\n      tag_31\n      0x4\n      dup1\n      calldatasize\n      sub\n      dup2\n      add\n      swap1\n      dup1\n      dup1\n      calldataload\n      swap1\n      0x20\n      add\n      swap1\n      swap3\n      swap2\n      swap1\n      dup1\n      calldataload\n      swap1\n      0x20\n      add\n      swap1\n      dup3\n      add\n      dup1\n      calldataload\n      swap1\n      0x20\n      add\n      swap1\n      dup1\n      dup1\n      0x1f\n      add\n      0x20\n      dup1\n      swap2\n      div\n      mul\n      0x20\n      add\n      mload(0x40)\n      swap1\n      dup2\n      add\n      0x40\n      mstore\n      dup1\n      swap4\n      swap3\n      swap2\n      swap1\n      dup2\n      dup2\n      mstore\n      0x20\n      add\n      dup4\n      dup4\n      dup1\n      dup3\n      dup5\n      calldatacopy\n      dup3\n      add\n      swap2\n      pop\n      pop\n      pop\n      pop\n      pop\n      pop\n      swap2\n      swap3\n      swap2\n      swap3\n      swap1\n      pop\n      pop\n      pop\n      jump(tag_32)\n    tag_31:\n      stop\n        /* \"contracts/Congress.sol\":505:546  mapping (address => uint) public memberId */\n    tag_5:\n      callvalue\n        /* \"--CODEGEN--\":8:17   */\n      dup1\n        /* \"--CODEGEN--\":5:7   */\n      iszero\n      tag_33\n      jumpi\n        /* \"--CODEGEN--\":30:31   */\n      0x0\n        /* \"--CODEGEN--\":27:28   */\n      dup1\n        /* \"--CODEGEN--\":20:32   */\n      revert\n        /* \"--CODEGEN--\":5:7   */\n    tag_33:\n        /* \"contracts/Congress.sol\":505:546  mapping (address => uint) public memberId */\n      pop\n      tag_34\n      0x4\n      dup1\n      calldatasize\n      sub\n      dup2\n      add\n      swap1\n      dup1\n      dup1\n      calldataload\n      0xffffffffffffffffffffffffffffffffffffffff\n      and\n      swap1\n      0x20\n      add\n      swap1\n      swap3\n      swap2\n      swap1\n      pop\n      pop\n      pop\n      jump(tag_35)\n    tag_34:\n      mload(0x40)\n      dup1\n      dup3\n      dup2\n      mstore\n      0x20\n      add\n      swap2\n      pop\n      pop\n      mload(0x40)\n      dup1\n      swap2\n      sub\n      swap1\n      return\n        /* \"contracts/Congress.sol\":2941:2993  function checkProposalCode() public {... */\n    tag_6:\n      callvalue\n        /* \"--CODEGEN--\":8:17   */\n      dup1\n        /* \"--CODEGEN--\":5:7   */\n      iszero\n      tag_36\n      jumpi\n        /* \"--CODEGEN--\":30:31   */\n      0x0\n        /* \"--CODEGEN--\":27:28   */\n      dup1\n        /* \"--CODEGEN--\":20:32   */\n      revert\n        /* \"--CODEGEN--\":5:7   */\n    tag_36:\n        /* \"contracts/Congress.sol\":2941:2993  function checkProposalCode() public {... */\n      pop\n      tag_37\n      jump(tag_38)\n    tag_37:\n      stop\n        /* \"contracts/Congress.sol\":475:499  uint public numProposals */\n    tag_7:\n      callvalue\n        /* \"--CODEGEN--\":8:17   */\n      dup1\n        /* \"--CODEGEN--\":5:7   */\n      iszero\n      tag_39\n      jumpi\n        /* \"--CODEGEN--\":30:31   */\n      0x0\n        /* \"--CODEGEN--\":27:28   */\n      dup1\n        /* \"--CODEGEN--\":20:32   */\n      revert\n        /* \"--CODEGEN--\":5:7   */\n    tag_39:\n        /* \"contracts/Congress.sol\":475:499  uint public numProposals */\n      pop\n      tag_40\n      jump(tag_41)\n    tag_40:\n      mload(0x40)\n      dup1\n      dup3\n      dup2\n      mstore\n      0x20\n      add\n      swap2\n      pop\n      pop\n      mload(0x40)\n      dup1\n      swap2\n      sub\n      swap1\n      return\n        /* \"contracts/Congress.sol\":552:575  Member[] public members */\n    tag_8:\n      callvalue\n        /* \"--CODEGEN--\":8:17   */\n      dup1\n        /* \"--CODEGEN--\":5:7   */\n      iszero\n      tag_42\n      jumpi\n        /* \"--CODEGEN--\":30:31   */\n      0x0\n        /* \"--CODEGEN--\":27:28   */\n      dup1\n        /* \"--CODEGEN--\":20:32   */\n      revert\n        /* \"--CODEGEN--\":5:7   */\n    tag_42:\n        /* \"contracts/Congress.sol\":552:575  Member[] public members */\n      pop\n      tag_43\n      0x4\n      dup1\n      calldatasize\n      sub\n      dup2\n      add\n      swap1\n      dup1\n      dup1\n      calldataload\n      swap1\n      0x20\n      add\n      swap1\n      swap3\n      swap2\n      swap1\n      pop\n      pop\n      pop\n      jump(tag_44)\n    tag_43:\n      mload(0x40)\n      dup1\n      dup5\n      0xffffffffffffffffffffffffffffffffffffffff\n      and\n      0xffffffffffffffffffffffffffffffffffffffff\n      and\n      dup2\n      mstore\n      0x20\n      add\n      dup1\n      0x20\n      add\n      dup4\n      dup2\n      mstore\n      0x20\n      add\n      dup3\n      dup2\n      sub\n      dup3\n      mstore\n      dup5\n      dup2\n      dup2\n      mload\n      dup2\n      mstore\n      0x20\n      add\n      swap2\n      pop\n      dup1\n      mload\n      swap1\n      0x20\n      add\n      swap1\n      dup1\n      dup4\n      dup4\n        /* \"--CODEGEN--\":23:24   */\n      0x0\n        /* \"--CODEGEN--\":8:108   */\n    tag_45:\n        /* \"--CODEGEN--\":33:36   */\n      dup4\n        /* \"--CODEGEN--\":30:31   */\n      dup2\n        /* \"--CODEGEN--\":27:37   */\n      lt\n        /* \"--CODEGEN--\":8:108   */\n      iszero\n      tag_46\n      jumpi\n        /* \"--CODEGEN--\":99:100   */\n      dup1\n        /* \"--CODEGEN--\":94:97   */\n      dup3\n        /* \"--CODEGEN--\":90:101   */\n      add\n        /* \"--CODEGEN--\":84:102   */\n      mload\n        /* \"--CODEGEN--\":80:81   */\n      dup2\n        /* \"--CODEGEN--\":75:78   */\n      dup5\n        /* \"--CODEGEN--\":71:82   */\n      add\n        /* \"--CODEGEN--\":64:103   */\n      mstore\n        /* \"--CODEGEN--\":52:54   */\n      0x20\n        /* \"--CODEGEN--\":49:50   */\n      dup2\n        /* \"--CODEGEN--\":45:55   */\n      add\n        /* \"--CODEGEN--\":40:55   */\n      swap1\n      pop\n        /* \"--CODEGEN--\":8:108   */\n      jump(tag_45)\n    tag_46:\n        /* \"--CODEGEN--\":12:26   */\n      pop\n        /* \"contracts/Congress.sol\":552:575  Member[] public members */\n      pop\n      pop\n      pop\n      swap1\n      pop\n      swap1\n      dup2\n      add\n      swap1\n      0x1f\n      and\n      dup1\n      iszero\n      tag_48\n      jumpi\n      dup1\n      dup3\n      sub\n      dup1\n      mload\n      0x1\n      dup4\n      0x20\n      sub\n      0x100\n      exp\n      sub\n      not\n      and\n      dup2\n      mstore\n      0x20\n      add\n      swap2\n      pop\n    tag_48:\n      pop\n      swap5\n      pop\n      pop\n      pop\n      pop\n      pop\n      mload(0x40)\n      dup1\n      swap2\n      sub\n      swap1\n      return\n        /* \"contracts/Congress.sol\":2999:3038  function vote() public {... */\n    tag_9:\n      callvalue\n        /* \"--CODEGEN--\":8:17   */\n      dup1\n        /* \"--CODEGEN--\":5:7   */\n      iszero\n      tag_49\n      jumpi\n        /* \"--CODEGEN--\":30:31   */\n      0x0\n        /* \"--CODEGEN--\":27:28   */\n      dup1\n        /* \"--CODEGEN--\":20:32   */\n      revert\n        /* \"--CODEGEN--\":5:7   */\n    tag_49:\n        /* \"contracts/Congress.sol\":2999:3038  function vote() public {... */\n      pop\n      tag_50\n      jump(tag_51)\n    tag_50:\n      stop\n        /* \"contracts/Congress.sol\":2838:2880  function newProposal() public {... */\n    tag_10:\n      callvalue\n        /* \"--CODEGEN--\":8:17   */\n      dup1\n        /* \"--CODEGEN--\":5:7   */\n      iszero\n      tag_52\n      jumpi\n        /* \"--CODEGEN--\":30:31   */\n      0x0\n        /* \"--CODEGEN--\":27:28   */\n      dup1\n        /* \"--CODEGEN--\":20:32   */\n      revert\n        /* \"--CODEGEN--\":5:7   */\n    tag_52:\n        /* \"contracts/Congress.sol\":2838:2880  function newProposal() public {... */\n      pop\n      tag_53\n      jump(tag_54)\n    tag_53:\n      stop\n        /* \"contracts/Congress.sol\":338:363  uint public minimumQuorum */\n    tag_11:\n      callvalue\n        /* \"--CODEGEN--\":8:17   */\n      dup1\n        /* \"--CODEGEN--\":5:7   */\n      iszero\n      tag_55\n      jumpi\n        /* \"--CODEGEN--\":30:31   */\n      0x0\n        /* \"--CODEGEN--\":27:28   */\n      dup1\n        /* \"--CODEGEN--\":20:32   */\n      revert\n        /* \"--CODEGEN--\":5:7   */\n    tag_55:\n        /* \"contracts/Congress.sol\":338:363  uint public minimumQuorum */\n      pop\n      tag_56\n      jump(tag_57)\n    tag_56:\n      mload(0x40)\n      dup1\n      dup3\n      dup2\n      mstore\n      0x20\n      add\n      swap2\n      pop\n      pop\n      mload(0x40)\n      dup1\n      swap2\n      sub\n      swap1\n      return\n        /* \"contracts/Congress.sol\":411:436  int public majorityMargin */\n    tag_12:\n      callvalue\n        /* \"--CODEGEN--\":8:17   */\n      dup1\n        /* \"--CODEGEN--\":5:7   */\n      iszero\n      tag_58\n      jumpi\n        /* \"--CODEGEN--\":30:31   */\n      0x0\n        /* \"--CODEGEN--\":27:28   */\n      dup1\n        /* \"--CODEGEN--\":20:32   */\n      revert\n        /* \"--CODEGEN--\":5:7   */\n    tag_58:\n        /* \"contracts/Congress.sol\":411:436  int public majorityMargin */\n      pop\n      tag_59\n      jump(tag_60)\n    tag_59:\n      mload(0x40)\n      dup1\n      dup3\n      dup2\n      mstore\n      0x20\n      add\n      swap2\n      pop\n      pop\n      mload(0x40)\n      dup1\n      swap2\n      sub\n      swap1\n      return\n        /* \"contracts/Congress.sol\":2475:2788  function changeVotingRules(... */\n    tag_13:\n      callvalue\n        /* \"--CODEGEN--\":8:17   */\n      dup1\n        /* \"--CODEGEN--\":5:7   */\n      iszero\n      tag_61\n      jumpi\n        /* \"--CODEGEN--\":30:31   */\n      0x0\n        /* \"--CODEGEN--\":27:28   */\n      dup1\n        /* \"--CODEGEN--\":20:32   */\n      revert\n        /* \"--CODEGEN--\":5:7   */\n    tag_61:\n        /* \"contracts/Congress.sol\":2475:2788  function changeVotingRules(... */\n      pop\n      tag_62\n      0x4\n      dup1\n      calldatasize\n      sub\n      dup2\n      add\n      swap1\n      dup1\n      dup1\n      calldataload\n      swap1\n      0x20\n      add\n      swap1\n      swap3\n      swap2\n      swap1\n      dup1\n      calldataload\n      swap1\n      0x20\n      add\n      swap1\n      swap3\n      swap2\n      swap1\n      dup1\n      calldataload\n      swap1\n      0x20\n      add\n      swap1\n      swap3\n      swap2\n      swap1\n      pop\n      pop\n      pop\n      jump(tag_63)\n    tag_62:\n      stop\n        /* \"contracts/Congress.sol\":369:405  uint public debatingPreriodInMinutes */\n    tag_14:\n      callvalue\n        /* \"--CODEGEN--\":8:17   */\n      dup1\n        /* \"--CODEGEN--\":5:7   */\n      iszero\n      tag_64\n      jumpi\n        /* \"--CODEGEN--\":30:31   */\n      0x0\n        /* \"--CODEGEN--\":27:28   */\n      dup1\n        /* \"--CODEGEN--\":20:32   */\n      revert\n        /* \"--CODEGEN--\":5:7   */\n    tag_64:\n        /* \"contracts/Congress.sol\":369:405  uint public debatingPreriodInMinutes */\n      pop\n      tag_65\n      jump(tag_66)\n    tag_65:\n      mload(0x40)\n      dup1\n      dup3\n      dup2\n      mstore\n      0x20\n      add\n      swap2\n      pop\n      pop\n      mload(0x40)\n      dup1\n      swap2\n      sub\n      swap1\n      return\n        /* \"contracts/Congress.sol\":1684:2160  function addMember(address targetMember, string memberName) onlyAdmin public {... */\n    tag_15:\n      callvalue\n        /* \"--CODEGEN--\":8:17   */\n      dup1\n        /* \"--CODEGEN--\":5:7   */\n      iszero\n      tag_67\n      jumpi\n        /* \"--CODEGEN--\":30:31   */\n      0x0\n        /* \"--CODEGEN--\":27:28   */\n      dup1\n        /* \"--CODEGEN--\":20:32   */\n      revert\n        /* \"--CODEGEN--\":5:7   */\n    tag_67:\n        /* \"contracts/Congress.sol\":1684:2160  function addMember(address targetMember, string memberName) onlyAdmin public {... */\n      pop\n      tag_68\n      0x4\n      dup1\n      calldatasize\n      sub\n      dup2\n      add\n      swap1\n      dup1\n      dup1\n      calldataload\n      0xffffffffffffffffffffffffffffffffffffffff\n      and\n      swap1\n      0x20\n      add\n      swap1\n      swap3\n      swap2\n      swap1\n      dup1\n      calldataload\n      swap1\n      0x20\n      add\n      swap1\n      dup3\n      add\n      dup1\n      calldataload\n      swap1\n      0x20\n      add\n      swap1\n      dup1\n      dup1\n      0x1f\n      add\n      0x20\n      dup1\n      swap2\n      div\n      mul\n      0x20\n      add\n      mload(0x40)\n      swap1\n      dup2\n      add\n      0x40\n      mstore\n      dup1\n      swap4\n      swap3\n      swap2\n      swap1\n      dup2\n      dup2\n      mstore\n      0x20\n      add\n      dup4\n      dup4\n      dup1\n      dup3\n      dup5\n      calldatacopy\n      dup3\n      add\n      swap2\n      pop\n      pop\n      pop\n      pop\n      pop\n      pop\n      swap2\n      swap3\n      swap2\n      swap3\n      swap1\n      pop\n      pop\n      pop\n      jump(tag_69)\n    tag_68:\n      stop\n        /* \"contracts/Congress.sol\":220:297  function transerAdminship(address newAdmin) {... */\n    tag_16:\n      callvalue\n        /* \"--CODEGEN--\":8:17   */\n      dup1\n        /* \"--CODEGEN--\":5:7   */\n      iszero\n      tag_70\n      jumpi\n        /* \"--CODEGEN--\":30:31   */\n      0x0\n        /* \"--CODEGEN--\":27:28   */\n      dup1\n        /* \"--CODEGEN--\":20:32   */\n      revert\n        /* \"--CODEGEN--\":5:7   */\n    tag_70:\n        /* \"contracts/Congress.sol\":220:297  function transerAdminship(address newAdmin) {... */\n      pop\n      tag_71\n      0x4\n      dup1\n      calldatasize\n      sub\n      dup2\n      add\n      swap1\n      dup1\n      dup1\n      calldataload\n      0xffffffffffffffffffffffffffffffffffffffff\n      and\n      swap1\n      0x20\n      add\n      swap1\n      swap3\n      swap2\n      swap1\n      pop\n      pop\n      pop\n      jump(tag_72)\n    tag_71:\n      stop\n        /* \"contracts/Congress.sol\":49:69  address public admin */\n    tag_17:\n      callvalue\n        /* \"--CODEGEN--\":8:17   */\n      dup1\n        /* \"--CODEGEN--\":5:7   */\n      iszero\n      tag_73\n      jumpi\n        /* \"--CODEGEN--\":30:31   */\n      0x0\n        /* \"--CODEGEN--\":27:28   */\n      dup1\n        /* \"--CODEGEN--\":20:32   */\n      revert\n        /* \"--CODEGEN--\":5:7   */\n    tag_73:\n        /* \"contracts/Congress.sol\":49:69  address public admin */\n      pop\n      tag_74\n      jump(tag_75)\n    tag_74:\n      mload(0x40)\n      dup1\n      dup3\n      0xffffffffffffffffffffffffffffffffffffffff\n      and\n      0xffffffffffffffffffffffffffffffffffffffff\n      and\n      dup2\n      mstore\n      0x20\n      add\n      swap2\n      pop\n      pop\n      mload(0x40)\n      dup1\n      swap2\n      sub\n      swap1\n      return\n        /* \"contracts/Congress.sol\":442:469  Proposal[] public proposals */\n    tag_22:\n      0x4\n      dup2\n      dup2\n      sload\n      dup2\n      lt\n      iszero\n      iszero\n      tag_76\n      jumpi\n      invalid\n    tag_76:\n      swap1\n      0x0\n      mstore\n      keccak256(0x0, 0x20)\n      swap1\n      0xa\n      mul\n      add\n      0x0\n      swap2\n      pop\n      swap1\n      pop\n      dup1\n      0x0\n      add\n      0x0\n      swap1\n      sload\n      swap1\n      0x100\n      exp\n      swap1\n      div\n      0xffffffffffffffffffffffffffffffffffffffff\n      and\n      swap1\n      dup1\n      0x1\n      add\n      sload\n      swap1\n      dup1\n      0x2\n      add\n      dup1\n      sload\n      0x1\n      dup2\n      0x1\n      and\n      iszero\n      0x100\n      mul\n      sub\n      and\n      0x2\n      swap1\n      div\n      dup1\n      0x1f\n      add\n      0x20\n      dup1\n      swap2\n      div\n      mul\n      0x20\n      add\n      mload(0x40)\n      swap1\n      dup2\n      add\n      0x40\n      mstore\n      dup1\n      swap3\n      swap2\n      swap1\n      dup2\n      dup2\n      mstore\n      0x20\n      add\n      dup3\n      dup1\n      sload\n      0x1\n      dup2\n      0x1\n      and\n      iszero\n      0x100\n      mul\n      sub\n      and\n      0x2\n      swap1\n      div\n      dup1\n      iszero\n      tag_78\n      jumpi\n      dup1\n      0x1f\n      lt\n      tag_79\n      jumpi\n      0x100\n      dup1\n      dup4\n      sload\n      div\n      mul\n      dup4\n      mstore\n      swap2\n      0x20\n      add\n      swap2\n      jump(tag_78)\n    tag_79:\n      dup3\n      add\n      swap2\n      swap1\n      0x0\n      mstore\n      keccak256(0x0, 0x20)\n      swap1\n    tag_80:\n      dup2\n      sload\n      dup2\n      mstore\n      swap1\n      0x1\n      add\n      swap1\n      0x20\n      add\n      dup1\n      dup4\n      gt\n      tag_80\n      jumpi\n      dup3\n      swap1\n      sub\n      0x1f\n      and\n      dup3\n      add\n      swap2\n    tag_78:\n      pop\n      pop\n      pop\n      pop\n      pop\n      swap1\n      dup1\n      0x3\n      add\n      sload\n      swap1\n      dup1\n      0x4\n      add\n      0x0\n      swap1\n      sload\n      swap1\n      0x100\n      exp\n      swap1\n      div\n      0xff\n      and\n      swap1\n      dup1\n      0x4\n      add\n      0x1\n      swap1\n      sload\n      swap1\n      0x100\n      exp\n      swap1\n      div\n      0xff\n      and\n      swap1\n      dup1\n      0x5\n      add\n      sload\n      swap1\n      dup1\n      0x6\n      add\n      sload\n      swap1\n      dup1\n      0x7\n      add\n      sload\n      swap1\n      pop\n      dup10\n      jump\t// out\n        /* \"contracts/Congress.sol\":2166:2448  function removeMember(address targetMember) onlyAdmin public {... */\n    tag_29:\n        /* \"contracts/Congress.sol\":2288:2294  uint i */\n      0x0\n        /* \"contracts/Congress.sol\":184:189  admin */\n      dup1\n      0x0\n      swap1\n      sload\n      swap1\n      0x100\n      exp\n      swap1\n      div\n      0xffffffffffffffffffffffffffffffffffffffff\n      and\n        /* \"contracts/Congress.sol\":170:189  msg.sender != admin */\n      0xffffffffffffffffffffffffffffffffffffffff\n      and\n        /* \"contracts/Congress.sol\":170:180  msg.sender */\n      caller\n        /* \"contracts/Congress.sol\":170:189  msg.sender != admin */\n      0xffffffffffffffffffffffffffffffffffffffff\n      and\n      eq\n      iszero\n        /* \"contracts/Congress.sol\":167:196  if(msg.sender != admin) throw */\n      iszero\n      tag_82\n      jumpi\n        /* \"contracts/Congress.sol\":191:196  throw */\n      0x0\n      dup1\n      revert\n        /* \"contracts/Congress.sol\":167:196  if(msg.sender != admin) throw */\n    tag_82:\n        /* \"contracts/Congress.sol\":2266:2267  0 */\n      0x0\n        /* \"contracts/Congress.sol\":2240:2248  memberId */\n      0x6\n        /* \"contracts/Congress.sol\":2240:2262  memberId[targetMember] */\n      0x0\n        /* \"contracts/Congress.sol\":2249:2261  targetMember */\n      dup5\n        /* \"contracts/Congress.sol\":2240:2262  memberId[targetMember] */\n      0xffffffffffffffffffffffffffffffffffffffff\n      and\n      0xffffffffffffffffffffffffffffffffffffffff\n      and\n      dup2\n      mstore\n      0x20\n      add\n      swap1\n      dup2\n      mstore\n      0x20\n      add\n      0x0\n      keccak256\n      sload\n        /* \"contracts/Congress.sol\":2240:2267  memberId[targetMember] == 0 */\n      eq\n        /* \"contracts/Congress.sol\":2237:2274  if(memberId[targetMember] == 0) throw */\n      iszero\n      tag_84\n      jumpi\n        /* \"contracts/Congress.sol\":2269:2274  throw */\n      0x0\n      dup1\n      revert\n        /* \"contracts/Congress.sol\":2237:2274  if(memberId[targetMember] == 0) throw */\n    tag_84:\n        /* \"contracts/Congress.sol\":2297:2305  memberId */\n      0x6\n        /* \"contracts/Congress.sol\":2297:2319  memberId[targetMember] */\n      0x0\n        /* \"contracts/Congress.sol\":2306:2318  targetMember */\n      dup4\n        /* \"contracts/Congress.sol\":2297:2319  memberId[targetMember] */\n      0xffffffffffffffffffffffffffffffffffffffff\n      and\n      0xffffffffffffffffffffffffffffffffffffffff\n      and\n      dup2\n      mstore\n      0x20\n      add\n      swap1\n      dup2\n      mstore\n      0x20\n      add\n      0x0\n      keccak256\n      sload\n        /* \"contracts/Congress.sol\":2288:2319  uint i = memberId[targetMember] */\n      swap1\n      pop\n        /* \"contracts/Congress.sol\":2284:2400  for(uint i = memberId[targetMember]; i < members.length-1; i++) {... */\n    tag_85:\n        /* \"contracts/Congress.sol\":2340:2341  1 */\n      0x1\n        /* \"contracts/Congress.sol\":2325:2332  members */\n      0x7\n        /* \"contracts/Congress.sol\":2325:2339  members.length */\n      dup1\n      sload\n      swap1\n      pop\n        /* \"contracts/Congress.sol\":2325:2341  members.length-1 */\n      sub\n        /* \"contracts/Congress.sol\":2321:2322  i */\n      dup2\n        /* \"contracts/Congress.sol\":2321:2341  i < members.length-1 */\n      lt\n        /* \"contracts/Congress.sol\":2284:2400  for(uint i = memberId[targetMember]; i < members.length-1; i++) {... */\n      iszero\n      tag_86\n      jumpi\n        /* \"contracts/Congress.sol\":2375:2382  members */\n      0x7\n        /* \"contracts/Congress.sol\":2387:2388  1 */\n      0x1\n        /* \"contracts/Congress.sol\":2383:2384  i */\n      dup3\n        /* \"contracts/Congress.sol\":2383:2388  i + 1 */\n      add\n        /* \"contracts/Congress.sol\":2375:2389  members[i + 1] */\n      dup2\n      sload\n      dup2\n      lt\n      iszero\n      iszero\n      tag_88\n      jumpi\n      invalid\n    tag_88:\n      swap1\n      0x0\n      mstore\n      keccak256(0x0, 0x20)\n      swap1\n      0x3\n      mul\n      add\n        /* \"contracts/Congress.sol\":2362:2369  members */\n      0x7\n        /* \"contracts/Congress.sol\":2370:2371  i */\n      dup3\n        /* \"contracts/Congress.sol\":2362:2372  members[i] */\n      dup2\n      sload\n      dup2\n      lt\n      iszero\n      iszero\n      tag_90\n      jumpi\n      invalid\n    tag_90:\n      swap1\n      0x0\n      mstore\n      keccak256(0x0, 0x20)\n      swap1\n      0x3\n      mul\n      add\n        /* \"contracts/Congress.sol\":2362:2389  members[i] = members[i + 1] */\n      0x0\n      dup3\n      add\n      0x0\n      swap1\n      sload\n      swap1\n      0x100\n      exp\n      swap1\n      div\n      0xffffffffffffffffffffffffffffffffffffffff\n      and\n      dup2\n      0x0\n      add\n      exp(0x100, 0x0)\n      dup2\n      sload\n      dup2\n      0xffffffffffffffffffffffffffffffffffffffff\n      mul\n      not\n      and\n      swap1\n      dup4\n      0xffffffffffffffffffffffffffffffffffffffff\n      and\n      mul\n      or\n      swap1\n      sstore\n      pop\n      0x1\n      dup3\n      add\n      dup2\n      0x1\n      add\n      swap1\n      dup1\n      sload\n      0x1\n      dup2\n      0x1\n      and\n      iszero\n      0x100\n      mul\n      sub\n      and\n      0x2\n      swap1\n      div\n      tag_92\n      swap3\n      swap2\n      swap1\n      jump\t// in(tag_93)\n    tag_92:\n      pop\n      0x2\n      dup3\n      add\n      sload\n      dup2\n      0x2\n      add\n      sstore\n      swap1\n      pop\n      pop\n        /* \"contracts/Congress.sol\":2343:2346  i++ */\n      dup1\n      dup1\n      0x1\n      add\n      swap2\n      pop\n      pop\n        /* \"contracts/Congress.sol\":2284:2400  for(uint i = memberId[targetMember]; i < members.length-1; i++) {... */\n      jump(tag_85)\n    tag_86:\n        /* \"contracts/Congress.sol\":2416:2423  members */\n      0x7\n        /* \"contracts/Congress.sol\":2439:2440  1 */\n      0x1\n        /* \"contracts/Congress.sol\":2424:2431  members */\n      0x7\n        /* \"contracts/Congress.sol\":2424:2438  members.length */\n      dup1\n      sload\n      swap1\n      pop\n        /* \"contracts/Congress.sol\":2424:2440  members.length-1 */\n      sub\n        /* \"contracts/Congress.sol\":2416:2441  members[members.length-1] */\n      dup2\n      sload\n      dup2\n      lt\n      iszero\n      iszero\n      tag_94\n      jumpi\n      invalid\n    tag_94:\n      swap1\n      0x0\n      mstore\n      keccak256(0x0, 0x20)\n      swap1\n      0x3\n      mul\n      add\n      0x0\n        /* \"contracts/Congress.sol\":2409:2441  delete members[members.length-1] */\n      dup1\n      dup3\n      add\n      exp(0x100, 0x0)\n      dup2\n      sload\n      swap1\n      0xffffffffffffffffffffffffffffffffffffffff\n      mul\n      not\n      and\n      swap1\n      sstore\n      0x1\n      dup3\n      add\n      0x0\n      tag_96\n      swap2\n      swap1\n      jump\t// in(tag_97)\n    tag_96:\n      0x2\n      dup3\n      add\n      0x0\n      swap1\n      sstore\n      pop\n      pop\n        /* \"contracts/Congress.sol\":2166:2448  function removeMember(address targetMember) onlyAdmin public {... */\n      pop\n      pop\n      jump\t// out\n        /* \"contracts/Congress.sol\":3044:3140  function executeProposal(uint proposalNumber, bytes transactionBytecode) public {... */\n    tag_32:\n      pop\n      pop\n      jump\t// out\n        /* \"contracts/Congress.sol\":505:546  mapping (address => uint) public memberId */\n    tag_35:\n      mstore(0x20, 0x6)\n      dup1\n      0x0\n      mstore\n      keccak256(0x0, 0x40)\n      0x0\n      swap2\n      pop\n      swap1\n      pop\n      sload\n      dup2\n      jump\t// out\n        /* \"contracts/Congress.sol\":2941:2993  function checkProposalCode() public {... */\n    tag_38:\n      jump\t// out\n        /* \"contracts/Congress.sol\":475:499  uint public numProposals */\n    tag_41:\n      sload(0x5)\n      dup2\n      jump\t// out\n        /* \"contracts/Congress.sol\":552:575  Member[] public members */\n    tag_44:\n      0x7\n      dup2\n      dup2\n      sload\n      dup2\n      lt\n      iszero\n      iszero\n      tag_100\n      jumpi\n      invalid\n    tag_100:\n      swap1\n      0x0\n      mstore\n      keccak256(0x0, 0x20)\n      swap1\n      0x3\n      mul\n      add\n      0x0\n      swap2\n      pop\n      swap1\n      pop\n      dup1\n      0x0\n      add\n      0x0\n      swap1\n      sload\n      swap1\n      0x100\n      exp\n      swap1\n      div\n      0xffffffffffffffffffffffffffffffffffffffff\n      and\n      swap1\n      dup1\n      0x1\n      add\n      dup1\n      sload\n      0x1\n      dup2\n      0x1\n      and\n      iszero\n      0x100\n      mul\n      sub\n      and\n      0x2\n      swap1\n      div\n      dup1\n      0x1f\n      add\n      0x20\n      dup1\n      swap2\n      div\n      mul\n      0x20\n      add\n      mload(0x40)\n      swap1\n      dup2\n      add\n      0x40\n      mstore\n      dup1\n      swap3\n      swap2\n      swap1\n      dup2\n      dup2\n      mstore\n      0x20\n      add\n      dup3\n      dup1\n      sload\n      0x1\n      dup2\n      0x1\n      and\n      iszero\n      0x100\n      mul\n      sub\n      and\n      0x2\n      swap1\n      div\n      dup1\n      iszero\n      tag_102\n      jumpi\n      dup1\n      0x1f\n      lt\n      tag_103\n      jumpi\n      0x100\n      dup1\n      dup4\n      sload\n      div\n      mul\n      dup4\n      mstore\n      swap2\n      0x20\n      add\n      swap2\n      jump(tag_102)\n    tag_103:\n      dup3\n      add\n      swap2\n      swap1\n      0x0\n      mstore\n      keccak256(0x0, 0x20)\n      swap1\n    tag_104:\n      dup2\n      sload\n      dup2\n      mstore\n      swap1\n      0x1\n      add\n      swap1\n      0x20\n      add\n      dup1\n      dup4\n      gt\n      tag_104\n      jumpi\n      dup3\n      swap1\n      sub\n      0x1f\n      and\n      dup3\n      add\n      swap2\n    tag_102:\n      pop\n      pop\n      pop\n      pop\n      pop\n      swap1\n      dup1\n      0x2\n      add\n      sload\n      swap1\n      pop\n      dup4\n      jump\t// out\n        /* \"contracts/Congress.sol\":2999:3038  function vote() public {... */\n    tag_51:\n      jump\t// out\n        /* \"contracts/Congress.sol\":2838:2880  function newProposal() public {... */\n    tag_54:\n      jump\t// out\n        /* \"contracts/Congress.sol\":338:363  uint public minimumQuorum */\n    tag_57:\n      sload(0x1)\n      dup2\n      jump\t// out\n        /* \"contracts/Congress.sol\":411:436  int public majorityMargin */\n    tag_60:\n      sload(0x3)\n      dup2\n      jump\t// out\n        /* \"contracts/Congress.sol\":2475:2788  function changeVotingRules(... */\n    tag_63:\n        /* \"contracts/Congress.sol\":184:189  admin */\n      0x0\n      dup1\n      swap1\n      sload\n      swap1\n      0x100\n      exp\n      swap1\n      div\n      0xffffffffffffffffffffffffffffffffffffffff\n      and\n        /* \"contracts/Congress.sol\":170:189  msg.sender != admin */\n      0xffffffffffffffffffffffffffffffffffffffff\n      and\n        /* \"contracts/Congress.sol\":170:180  msg.sender */\n      caller\n        /* \"contracts/Congress.sol\":170:189  msg.sender != admin */\n      0xffffffffffffffffffffffffffffffffffffffff\n      and\n      eq\n      iszero\n        /* \"contracts/Congress.sol\":167:196  if(msg.sender != admin) throw */\n      iszero\n      tag_108\n      jumpi\n        /* \"contracts/Congress.sol\":191:196  throw */\n      0x0\n      dup1\n      revert\n        /* \"contracts/Congress.sol\":167:196  if(msg.sender != admin) throw */\n    tag_108:\n        /* \"contracts/Congress.sol\":2656:2677  minimumQuorumProposal */\n      dup3\n        /* \"contracts/Congress.sol\":2640:2653  minimumQuorum */\n      0x1\n        /* \"contracts/Congress.sol\":2640:2677  minimumQuorum = minimumQuorumProposal */\n      dup2\n      swap1\n      sstore\n      pop\n        /* \"contracts/Congress.sol\":2714:2730  minutesForDebate */\n      dup2\n        /* \"contracts/Congress.sol\":2687:2711  debatingPreriodInMinutes */\n      0x2\n        /* \"contracts/Congress.sol\":2687:2730  debatingPreriodInMinutes = minutesForDebate */\n      dup2\n      swap1\n      sstore\n      pop\n        /* \"contracts/Congress.sol\":2757:2781  marginOfVotesForMajority */\n      dup1\n        /* \"contracts/Congress.sol\":2740:2754  majorityMargin */\n      0x3\n        /* \"contracts/Congress.sol\":2740:2781  majorityMargin = marginOfVotesForMajority */\n      dup2\n      swap1\n      sstore\n      pop\n        /* \"contracts/Congress.sol\":2475:2788  function changeVotingRules(... */\n      pop\n      pop\n      pop\n      jump\t// out\n        /* \"contracts/Congress.sol\":369:405  uint public debatingPreriodInMinutes */\n    tag_66:\n      sload(0x2)\n      dup2\n      jump\t// out\n        /* \"contracts/Congress.sol\":1684:2160  function addMember(address targetMember, string memberName) onlyAdmin public {... */\n    tag_69:\n        /* \"contracts/Congress.sol\":1771:1778  uint id */\n      0x0\n        /* \"contracts/Congress.sol\":2121:2129  Member m */\n      dup1\n        /* \"contracts/Congress.sol\":184:189  admin */\n      0x0\n      dup1\n      swap1\n      sload\n      swap1\n      0x100\n      exp\n      swap1\n      div\n      0xffffffffffffffffffffffffffffffffffffffff\n      and\n        /* \"contracts/Congress.sol\":170:189  msg.sender != admin */\n      0xffffffffffffffffffffffffffffffffffffffff\n      and\n        /* \"contracts/Congress.sol\":170:180  msg.sender */\n      caller\n        /* \"contracts/Congress.sol\":170:189  msg.sender != admin */\n      0xffffffffffffffffffffffffffffffffffffffff\n      and\n      eq\n      iszero\n        /* \"contracts/Congress.sol\":167:196  if(msg.sender != admin) throw */\n      iszero\n      tag_111\n      jumpi\n        /* \"contracts/Congress.sol\":191:196  throw */\n      0x0\n      dup1\n      revert\n        /* \"contracts/Congress.sol\":167:196  if(msg.sender != admin) throw */\n    tag_111:\n        /* \"contracts/Congress.sol\":1817:1818  0 */\n      0x0\n        /* \"contracts/Congress.sol\":1791:1799  memberId */\n      0x6\n        /* \"contracts/Congress.sol\":1791:1813  memberId[targetMember] */\n      0x0\n        /* \"contracts/Congress.sol\":1800:1812  targetMember */\n      dup7\n        /* \"contracts/Congress.sol\":1791:1813  memberId[targetMember] */\n      0xffffffffffffffffffffffffffffffffffffffff\n      and\n      0xffffffffffffffffffffffffffffffffffffffff\n      and\n      dup2\n      mstore\n      0x20\n      add\n      swap1\n      dup2\n      mstore\n      0x20\n      add\n      0x0\n      keccak256\n      sload\n        /* \"contracts/Congress.sol\":1791:1818  memberId[targetMember] == 0 */\n      eq\n        /* \"contracts/Congress.sol\":1788:2154  if(memberId[targetMember] == 0) {... */\n      iszero\n      tag_113\n      jumpi\n        /* \"contracts/Congress.sol\":1859:1866  members */\n      0x7\n        /* \"contracts/Congress.sol\":1859:1873  members.length */\n      dup1\n      sload\n      swap1\n      pop\n        /* \"contracts/Congress.sol\":1834:1842  memberId */\n      0x6\n        /* \"contracts/Congress.sol\":1834:1856  memberId[targetMember] */\n      0x0\n        /* \"contracts/Congress.sol\":1843:1855  targetMember */\n      dup7\n        /* \"contracts/Congress.sol\":1834:1856  memberId[targetMember] */\n      0xffffffffffffffffffffffffffffffffffffffff\n      and\n      0xffffffffffffffffffffffffffffffffffffffff\n      and\n      dup2\n      mstore\n      0x20\n      add\n      swap1\n      dup2\n      mstore\n      0x20\n      add\n      0x0\n      keccak256\n        /* \"contracts/Congress.sol\":1834:1873  memberId[targetMember] = members.length */\n      dup2\n      swap1\n      sstore\n      pop\n        /* \"contracts/Congress.sol\":1892:1899  members */\n      0x7\n        /* \"contracts/Congress.sol\":1892:1906  members.length */\n      dup1\n      sload\n      swap1\n      pop\n        /* \"contracts/Congress.sol\":1887:1906  id = members.length */\n      swap2\n      pop\n        /* \"contracts/Congress.sol\":1954:1955  1 */\n      0x1\n        /* \"contracts/Congress.sol\":1937:1944  members */\n      0x7\n        /* \"contracts/Congress.sol\":1937:1951  members.length */\n      dup1\n      sload\n      swap1\n      pop\n        /* \"contracts/Congress.sol\":1937:1955  members.length + 1 */\n      add\n        /* \"contracts/Congress.sol\":1920:1927  members */\n      0x7\n        /* \"contracts/Congress.sol\":1920:1955  members.length = members.length + 1 */\n      dup2\n      tag_114\n      swap2\n      swap1\n      jump\t// in(tag_115)\n    tag_114:\n      pop\n        /* \"contracts/Congress.sol\":1983:2049  Member({member: targetMember, memberSince: now, name: memberName}) */\n      0x60\n      mload(0x40)\n      swap1\n      dup2\n      add\n      0x40\n      mstore\n      dup1\n        /* \"contracts/Congress.sol\":1999:2011  targetMember */\n      dup6\n        /* \"contracts/Congress.sol\":1983:2049  Member({member: targetMember, memberSince: now, name: memberName}) */\n      0xffffffffffffffffffffffffffffffffffffffff\n      and\n      dup2\n      mstore\n      0x20\n      add\n        /* \"contracts/Congress.sol\":2037:2047  memberName */\n      dup5\n        /* \"contracts/Congress.sol\":1983:2049  Member({member: targetMember, memberSince: now, name: memberName}) */\n      dup2\n      mstore\n      0x20\n      add\n        /* \"contracts/Congress.sol\":2026:2029  now */\n      timestamp\n        /* \"contracts/Congress.sol\":1983:2049  Member({member: targetMember, memberSince: now, name: memberName}) */\n      dup2\n      mstore\n      pop\n        /* \"contracts/Congress.sol\":1969:1976  members */\n      0x7\n        /* \"contracts/Congress.sol\":1977:1979  id */\n      dup4\n        /* \"contracts/Congress.sol\":1969:1980  members[id] */\n      dup2\n      sload\n      dup2\n      lt\n      iszero\n      iszero\n      tag_116\n      jumpi\n      invalid\n    tag_116:\n      swap1\n      0x0\n      mstore\n      keccak256(0x0, 0x20)\n      swap1\n      0x3\n      mul\n      add\n        /* \"contracts/Congress.sol\":1969:2049  members[id] = Member({member: targetMember, memberSince: now, name: memberName}) */\n      0x0\n      dup3\n      add\n      mload\n      dup2\n      0x0\n      add\n      exp(0x100, 0x0)\n      dup2\n      sload\n      dup2\n      0xffffffffffffffffffffffffffffffffffffffff\n      mul\n      not\n      and\n      swap1\n      dup4\n      0xffffffffffffffffffffffffffffffffffffffff\n      and\n      mul\n      or\n      swap1\n      sstore\n      pop\n      0x20\n      dup3\n      add\n      mload\n      dup2\n      0x1\n      add\n      swap1\n      dup1\n      mload\n      swap1\n      0x20\n      add\n      swap1\n      tag_118\n      swap3\n      swap2\n      swap1\n      jump\t// in(tag_119)\n    tag_118:\n      pop\n      0x40\n      dup3\n      add\n      mload\n      dup2\n      0x2\n      add\n      sstore\n      swap1\n      pop\n      pop\n        /* \"contracts/Congress.sol\":1788:2154  if(memberId[targetMember] == 0) {... */\n      jump(tag_120)\n    tag_113:\n        /* \"contracts/Congress.sol\":2085:2093  memberId */\n      0x6\n        /* \"contracts/Congress.sol\":2085:2107  memberId[targetMember] */\n      0x0\n        /* \"contracts/Congress.sol\":2094:2106  targetMember */\n      dup6\n        /* \"contracts/Congress.sol\":2085:2107  memberId[targetMember] */\n      0xffffffffffffffffffffffffffffffffffffffff\n      and\n      0xffffffffffffffffffffffffffffffffffffffff\n      and\n      dup2\n      mstore\n      0x20\n      add\n      swap1\n      dup2\n      mstore\n      0x20\n      add\n      0x0\n      keccak256\n      sload\n        /* \"contracts/Congress.sol\":2080:2107  id = memberId[targetMember] */\n      swap2\n      pop\n        /* \"contracts/Congress.sol\":2132:2139  members */\n      0x7\n        /* \"contracts/Congress.sol\":2140:2142  id */\n      dup3\n        /* \"contracts/Congress.sol\":2132:2143  members[id] */\n      dup2\n      sload\n      dup2\n      lt\n      iszero\n      iszero\n      tag_121\n      jumpi\n      invalid\n    tag_121:\n      swap1\n      0x0\n      mstore\n      keccak256(0x0, 0x20)\n      swap1\n      0x3\n      mul\n      add\n        /* \"contracts/Congress.sol\":2121:2143  Member m = members[id] */\n      swap1\n      pop\n        /* \"contracts/Congress.sol\":1788:2154  if(memberId[targetMember] == 0) {... */\n    tag_120:\n        /* \"contracts/Congress.sol\":1684:2160  function addMember(address targetMember, string memberName) onlyAdmin public {... */\n      pop\n      pop\n      pop\n      pop\n      jump\t// out\n        /* \"contracts/Congress.sol\":220:297  function transerAdminship(address newAdmin) {... */\n    tag_72:\n        /* \"contracts/Congress.sol\":282:290  newAdmin */\n      dup1\n        /* \"contracts/Congress.sol\":274:279  admin */\n      0x0\n      dup1\n        /* \"contracts/Congress.sol\":274:290  admin = newAdmin */\n      0x100\n      exp\n      dup2\n      sload\n      dup2\n      0xffffffffffffffffffffffffffffffffffffffff\n      mul\n      not\n      and\n      swap1\n      dup4\n      0xffffffffffffffffffffffffffffffffffffffff\n      and\n      mul\n      or\n      swap1\n      sstore\n      pop\n        /* \"contracts/Congress.sol\":220:297  function transerAdminship(address newAdmin) {... */\n      pop\n      jump\t// out\n        /* \"contracts/Congress.sol\":49:69  address public admin */\n    tag_75:\n      0x0\n      dup1\n      swap1\n      sload\n      swap1\n      0x100\n      exp\n      swap1\n      div\n      0xffffffffffffffffffffffffffffffffffffffff\n      and\n      dup2\n      jump\t// out\n        /* \"contracts/Congress.sol\":302:3184  contract Congress is admined {... */\n    tag_93:\n      dup3\n      dup1\n      sload\n      0x1\n      dup2\n      0x1\n      and\n      iszero\n      0x100\n      mul\n      sub\n      and\n      0x2\n      swap1\n      div\n      swap1\n      0x0\n      mstore\n      keccak256(0x0, 0x20)\n      swap1\n      0x1f\n      add\n      0x20\n      swap1\n      div\n      dup2\n      add\n      swap3\n      dup3\n      0x1f\n      lt\n      tag_125\n      jumpi\n      dup1\n      sload\n      dup6\n      sstore\n      jump(tag_124)\n    tag_125:\n      dup3\n      dup1\n      add\n      0x1\n      add\n      dup6\n      sstore\n      dup3\n      iszero\n      tag_124\n      jumpi\n      0x0\n      mstore\n      keccak256(0x0, 0x20)\n      swap2\n      0x1f\n      add\n      0x20\n      swap1\n      div\n      dup3\n      add\n    tag_126:\n      dup3\n      dup2\n      gt\n      iszero\n      tag_127\n      jumpi\n      dup3\n      sload\n      dup3\n      sstore\n      swap2\n      0x1\n      add\n      swap2\n      swap1\n      0x1\n      add\n      swap1\n      jump(tag_126)\n    tag_127:\n    tag_124:\n      pop\n      swap1\n      pop\n      tag_128\n      swap2\n      swap1\n      jump\t// in(tag_129)\n    tag_128:\n      pop\n      swap1\n      jump\t// out\n    tag_97:\n      pop\n      dup1\n      sload\n      0x1\n      dup2\n      0x1\n      and\n      iszero\n      0x100\n      mul\n      sub\n      and\n      0x2\n      swap1\n      div\n      0x0\n      dup3\n      sstore\n      dup1\n      0x1f\n      lt\n      tag_131\n      jumpi\n      pop\n      jump(tag_130)\n    tag_131:\n      0x1f\n      add\n      0x20\n      swap1\n      div\n      swap1\n      0x0\n      mstore\n      keccak256(0x0, 0x20)\n      swap1\n      dup2\n      add\n      swap1\n      tag_132\n      swap2\n      swap1\n      jump\t// in(tag_129)\n    tag_132:\n    tag_130:\n      pop\n      jump\t// out\n    tag_115:\n      dup2\n      sload\n      dup2\n      dup4\n      sstore\n      dup2\n      dup2\n      gt\n      iszero\n      tag_133\n      jumpi\n      0x3\n      mul\n      dup2\n      0x3\n      mul\n      dup4\n      0x0\n      mstore\n      keccak256(0x0, 0x20)\n      swap2\n      dup3\n      add\n      swap2\n      add\n      tag_134\n      swap2\n      swap1\n      jump\t// in(tag_135)\n    tag_134:\n    tag_133:\n      pop\n      pop\n      pop\n      jump\t// out\n    tag_119:\n      dup3\n      dup1\n      sload\n      0x1\n      dup2\n      0x1\n      and\n      iszero\n      0x100\n      mul\n      sub\n      and\n      0x2\n      swap1\n      div\n      swap1\n      0x0\n      mstore\n      keccak256(0x0, 0x20)\n      swap1\n      0x1f\n      add\n      0x20\n      swap1\n      div\n      dup2\n      add\n      swap3\n      dup3\n      0x1f\n      lt\n      tag_137\n      jumpi\n      dup1\n      mload\n      not(0xff)\n      and\n      dup4\n      dup1\n      add\n      or\n      dup6\n      sstore\n      jump(tag_136)\n    tag_137:\n      dup3\n      dup1\n      add\n      0x1\n      add\n      dup6\n      sstore\n      dup3\n      iszero\n      tag_136\n      jumpi\n      swap2\n      dup3\n      add\n    tag_138:\n      dup3\n      dup2\n      gt\n      iszero\n      tag_139\n      jumpi\n      dup3\n      mload\n      dup3\n      sstore\n      swap2\n      0x20\n      add\n      swap2\n      swap1\n      0x1\n      add\n      swap1\n      jump(tag_138)\n    tag_139:\n    tag_136:\n      pop\n      swap1\n      pop\n      tag_140\n      swap2\n      swap1\n      jump\t// in(tag_129)\n    tag_140:\n      pop\n      swap1\n      jump\t// out\n    tag_129:\n      tag_141\n      swap2\n      swap1\n    tag_142:\n      dup1\n      dup3\n      gt\n      iszero\n      tag_143\n      jumpi\n      0x0\n      dup2\n      0x0\n      swap1\n      sstore\n      pop\n      0x1\n      add\n      jump(tag_142)\n    tag_143:\n      pop\n      swap1\n      jump\n    tag_141:\n      swap1\n      jump\t// out\n    tag_135:\n      tag_144\n      swap2\n      swap1\n    tag_145:\n      dup1\n      dup3\n      gt\n      iszero\n      tag_146\n      jumpi\n      0x0\n      dup1\n      dup3\n      add\n      exp(0x100, 0x0)\n      dup2\n      sload\n      swap1\n      0xffffffffffffffffffffffffffffffffffffffff\n      mul\n      not\n      and\n      swap1\n      sstore\n      0x1\n      dup3\n      add\n      0x0\n      tag_147\n      swap2\n      swap1\n      jump\t// in(tag_97)\n    tag_147:\n      0x2\n      dup3\n      add\n      0x0\n      swap1\n      sstore\n      pop\n      0x3\n      add\n      jump(tag_145)\n    tag_146:\n      pop\n      swap1\n      jump\n    tag_144:\n      swap1\n      jump\t// out\n\n    auxdata: 0xa165627a7a723058204c1347531e838a0c03498857dfaf3e11999bf15b953d56a3c26e4df56aba29690029\n}\n",
				"bytecode": {
					"linkReferences": {},
					"object": "60806040526040516080806200168083398101806040528101908080519060200190929190805190602001909291908051906020019092919080519060200190929190505050336000806101000a81548173ffffffffffffffffffffffffffffffffffffffff021916908373ffffffffffffffffffffffffffffffffffffffff160217905550620000a1848484620001ef640100000000026401000000009004565b60008173ffffffffffffffffffffffffffffffffffffffff1614156200010757336000806101000a81548173ffffffffffffffffffffffffffffffffffffffff021916908373ffffffffffffffffffffffffffffffffffffffff16021790555062000148565b806000806101000a81548173ffffffffffffffffffffffffffffffffffffffff021916908373ffffffffffffffffffffffffffffffffffffffff1602179055505b620001746000602060405190810160405280600081525062000265640100000000026401000000009004565b620001e56000809054906101000a900473ffffffffffffffffffffffffffffffffffffffff166040805190810160405280600581526020017f41646d696e00000000000000000000000000000000000000000000000000000081525062000265640100000000026401000000009004565b505050506200063c565b6000809054906101000a900473ffffffffffffffffffffffffffffffffffffffff1673ffffffffffffffffffffffffffffffffffffffff163373ffffffffffffffffffffffffffffffffffffffff161415156200024b57600080fd5b826001819055508160028190555080600381905550505050565b6000806000809054906101000a900473ffffffffffffffffffffffffffffffffffffffff1673ffffffffffffffffffffffffffffffffffffffff163373ffffffffffffffffffffffffffffffffffffffff16141515620002c457600080fd5b6000600660008673ffffffffffffffffffffffffffffffffffffffff1673ffffffffffffffffffffffffffffffffffffffff1681526020019081526020016000205414156200044057600780549050600660008673ffffffffffffffffffffffffffffffffffffffff1673ffffffffffffffffffffffffffffffffffffffff168152602001908152602001600020819055506007805490509150600160078054905001600781620003769190620004a9565b506060604051908101604052808573ffffffffffffffffffffffffffffffffffffffff16815260200184815260200142815250600783815481101515620003b957fe5b906000526020600020906003020160008201518160000160006101000a81548173ffffffffffffffffffffffffffffffffffffffff021916908373ffffffffffffffffffffffffffffffffffffffff16021790555060208201518160010190805190602001906200042c929190620004de565b5060408201518160020155905050620004a3565b600660008573ffffffffffffffffffffffffffffffffffffffff1673ffffffffffffffffffffffffffffffffffffffff1681526020019081526020016000205491506007828154811015156200049257fe5b906000526020600020906003020190505b50505050565b815481835581811115620004d957600302816003028360005260206000209182019101620004d8919062000565565b5b505050565b828054600181600116156101000203166002900490600052602060002090601f016020900481019282601f106200052157805160ff191683800117855562000552565b8280016001018555821562000552579182015b828111156200055157825182559160200191906001019062000534565b5b509050620005619190620005c8565b5090565b620005c591905b80821115620005c157600080820160006101000a81549073ffffffffffffffffffffffffffffffffffffffff0219169055600182016000620005af9190620005f0565b6002820160009055506003016200056c565b5090565b90565b620005ed91905b80821115620005e9576000816000905550600101620005cf565b5090565b90565b50805460018160011615610100020316600290046000825580601f1062000618575062000639565b601f016020900490600052602060002090810190620006389190620005c8565b5b50565b611034806200064c6000396000f3006080604052600436106100e6576000357c0100000000000000000000000000000000000000000000000000000000900463ffffffff168063013cf08b146100e85780630b1ca49a14610202578063237e94921461024557806339106821146102b85780633fb2d6551461030f578063400e3949146103265780635daf08ca14610351578063632a9a521461043157806368744564146104485780638160f0b51461045f578063aa02a90f1461048a578063bcca1fd3146104b5578063bfee24c2146104f6578063c127c24714610521578063db529e4e146105aa578063f851a440146105ed575b005b3480156100f457600080fd5b5061011360048036038101908080359060200190929190505050610644565b604051808a73ffffffffffffffffffffffffffffffffffffffff1673ffffffffffffffffffffffffffffffffffffffff1681526020018981526020018060200188815260200187151515158152602001861515151581526020018581526020018481526020018360001916600019168152602001828103825289818151815260200191508051906020019080838360005b838110156101bf5780820151818401526020810190506101a4565b50505050905090810190601f1680156101ec5780820380516001836020036101000a031916815260200191505b509a505050505050505050505060405180910390f35b34801561020e57600080fd5b50610243600480360381019080803573ffffffffffffffffffffffffffffffffffffffff169060200190929190505050610773565b005b34801561025157600080fd5b506102b660048036038101908080359060200190929190803590602001908201803590602001908080601f01602080910402602001604051908101604052809392919081815260200183838082843782019150505050505091929192905050506109c1565b005b3480156102c457600080fd5b506102f9600480360381019080803573ffffffffffffffffffffffffffffffffffffffff1690602001909291905050506109c5565b6040518082815260200191505060405180910390f35b34801561031b57600080fd5b506103246109dd565b005b34801561033257600080fd5b5061033b6109df565b6040518082815260200191505060405180910390f35b34801561035d57600080fd5b5061037c600480360381019080803590602001909291905050506109e5565b604051808473ffffffffffffffffffffffffffffffffffffffff1673ffffffffffffffffffffffffffffffffffffffff16815260200180602001838152602001828103825284818151815260200191508051906020019080838360005b838110156103f45780820151818401526020810190506103d9565b50505050905090810190601f1680156104215780820380516001836020036101000a031916815260200191505b5094505050505060405180910390f35b34801561043d57600080fd5b50610446610ad6565b005b34801561045457600080fd5b5061045d610ad8565b005b34801561046b57600080fd5b50610474610ada565b6040518082815260200191505060405180910390f35b34801561049657600080fd5b5061049f610ae0565b6040518082815260200191505060405180910390f35b3480156104c157600080fd5b506104f4600480360381019080803590602001909291908035906020019092919080359060200190929190505050610ae6565b005b34801561050257600080fd5b5061050b610b5b565b6040518082815260200191505060405180910390f35b34801561052d57600080fd5b506105a8600480360381019080803573ffffffffffffffffffffffffffffffffffffffff169060200190929190803590602001908201803590602001908080601f0160208091040260200160405190810160405280939291908181526020018383808284378201915050505050509192919290505050610b61565b005b3480156105b657600080fd5b506105eb600480360381019080803573ffffffffffffffffffffffffffffffffffffffff169060200190929190505050610d9c565b005b3480156105f957600080fd5b50610602610ddf565b604051808273ffffffffffffffffffffffffffffffffffffffff1673ffffffffffffffffffffffffffffffffffffffff16815260200191505060405180910390f35b60048181548110151561065357fe5b90600052602060002090600a02016000915090508060000160009054906101000a900473ffffffffffffffffffffffffffffffffffffffff1690806001015490806002018054600181600116156101000203166002900480601f01602080910402602001604051908101604052809291908181526020018280546001816001161561010002031660029004801561072b5780601f106107005761010080835404028352916020019161072b565b820191906000526020600020905b81548152906001019060200180831161070e57829003601f168201915b5050505050908060030154908060040160009054906101000a900460ff16908060040160019054906101000a900460ff16908060050154908060060154908060070154905089565b60008060009054906101000a900473ffffffffffffffffffffffffffffffffffffffff1673ffffffffffffffffffffffffffffffffffffffff163373ffffffffffffffffffffffffffffffffffffffff161415156107d057600080fd5b6000600660008473ffffffffffffffffffffffffffffffffffffffff1673ffffffffffffffffffffffffffffffffffffffff16815260200190815260200160002054141561081d57600080fd5b600660008373ffffffffffffffffffffffffffffffffffffffff1673ffffffffffffffffffffffffffffffffffffffff1681526020019081526020016000205490505b6001600780549050038110156109565760076001820181548110151561088257fe5b906000526020600020906003020160078281548110151561089f57fe5b90600052602060002090600302016000820160009054906101000a900473ffffffffffffffffffffffffffffffffffffffff168160000160006101000a81548173ffffffffffffffffffffffffffffffffffffffff021916908373ffffffffffffffffffffffffffffffffffffffff1602179055506001820181600101908054600181600116156101000203166002900461093b929190610e04565b50600282015481600201559050508080600101915050610860565b600760016007805490500381548110151561096d57fe5b9060005260206000209060030201600080820160006101000a81549073ffffffffffffffffffffffffffffffffffffffff02191690556001820160006109b39190610e8b565b600282016000905550505050565b5050565b60066020528060005260406000206000915090505481565b565b60055481565b6007818154811015156109f457fe5b90600052602060002090600302016000915090508060000160009054906101000a900473ffffffffffffffffffffffffffffffffffffffff1690806001018054600181600116156101000203166002900480601f016020809104026020016040519081016040528092919081815260200182805460018160011615610100020316600290048015610ac65780601f10610a9b57610100808354040283529160200191610ac6565b820191906000526020600020905b815481529060010190602001808311610aa957829003601f168201915b5050505050908060020154905083565b565b565b60015481565b60035481565b6000809054906101000a900473ffffffffffffffffffffffffffffffffffffffff1673ffffffffffffffffffffffffffffffffffffffff163373ffffffffffffffffffffffffffffffffffffffff16141515610b4157600080fd5b826001819055508160028190555080600381905550505050565b60025481565b6000806000809054906101000a900473ffffffffffffffffffffffffffffffffffffffff1673ffffffffffffffffffffffffffffffffffffffff163373ffffffffffffffffffffffffffffffffffffffff16141515610bbf57600080fd5b6000600660008673ffffffffffffffffffffffffffffffffffffffff1673ffffffffffffffffffffffffffffffffffffffff168152602001908152602001600020541415610d3457600780549050600660008673ffffffffffffffffffffffffffffffffffffffff1673ffffffffffffffffffffffffffffffffffffffff168152602001908152602001600020819055506007805490509150600160078054905001600781610c6e9190610ed3565b506060604051908101604052808573ffffffffffffffffffffffffffffffffffffffff16815260200184815260200142815250600783815481101515610cb057fe5b906000526020600020906003020160008201518160000160006101000a81548173ffffffffffffffffffffffffffffffffffffffff021916908373ffffffffffffffffffffffffffffffffffffffff1602179055506020820151816001019080519060200190610d21929190610f05565b5060408201518160020155905050610d96565b600660008573ffffffffffffffffffffffffffffffffffffffff1673ffffffffffffffffffffffffffffffffffffffff168152602001908152602001600020549150600782815481101515610d8557fe5b906000526020600020906003020190505b50505050565b806000806101000a81548173ffffffffffffffffffffffffffffffffffffffff021916908373ffffffffffffffffffffffffffffffffffffffff16021790555050565b6000809054906101000a900473ffffffffffffffffffffffffffffffffffffffff1681565b828054600181600116156101000203166002900490600052602060002090601f016020900481019282601f10610e3d5780548555610e7a565b82800160010185558215610e7a57600052602060002091601f016020900482015b82811115610e79578254825591600101919060010190610e5e565b5b509050610e879190610f85565b5090565b50805460018160011615610100020316600290046000825580601f10610eb15750610ed0565b601f016020900490600052602060002090810190610ecf9190610f85565b5b50565b815481835581811115610f0057600302816003028360005260206000209182019101610eff9190610faa565b5b505050565b828054600181600116156101000203166002900490600052602060002090601f016020900481019282601f10610f4657805160ff1916838001178555610f74565b82800160010185558215610f74579182015b82811115610f73578251825591602001919060010190610f58565b5b509050610f819190610f85565b5090565b610fa791905b80821115610fa3576000816000905550600101610f8b565b5090565b90565b61100591905b8082111561100157600080820160006101000a81549073ffffffffffffffffffffffffffffffffffffffff0219169055600182016000610ff09190610e8b565b600282016000905550600301610fb0565b5090565b905600a165627a7a723058204c1347531e838a0c03498857dfaf3e11999bf15b953d56a3c26e4df56aba29690029",
					"opcodes": "PUSH1 0x80 PUSH1 0x40 MSTORE PUSH1 0x40 MLOAD PUSH1 0x80 DUP1 PUSH3 0x1680 DUP4 CODECOPY DUP2 ADD DUP1 PUSH1 0x40 MSTORE DUP2 ADD SWAP1 DUP1 DUP1 MLOAD SWAP1 PUSH1 0x20 ADD SWAP1 SWAP3 SWAP2 SWAP1 DUP1 MLOAD SWAP1 PUSH1 0x20 ADD SWAP1 SWAP3 SWAP2 SWAP1 DUP1 MLOAD SWAP1 PUSH1 0x20 ADD SWAP1 SWAP3 SWAP2 SWAP1 DUP1 MLOAD SWAP1 PUSH1 0x20 ADD SWAP1 SWAP3 SWAP2 SWAP1 POP POP POP CALLER PUSH1 0x0 DUP1 PUSH2 0x100 EXP DUP2 SLOAD DUP2 PUSH20 0xFFFFFFFFFFFFFFFFFFFFFFFFFFFFFFFFFFFFFFFF MUL NOT AND SWAP1 DUP4 PUSH20 0xFFFFFFFFFFFFFFFFFFFFFFFFFFFFFFFFFFFFFFFF AND MUL OR SWAP1 SSTORE POP PUSH3 0xA1 DUP5 DUP5 DUP5 PUSH3 0x1EF PUSH5 0x100000000 MUL PUSH5 0x100000000 SWAP1 DIV JUMP JUMPDEST PUSH1 0x0 DUP2 PUSH20 0xFFFFFFFFFFFFFFFFFFFFFFFFFFFFFFFFFFFFFFFF AND EQ ISZERO PUSH3 0x107 JUMPI CALLER PUSH1 0x0 DUP1 PUSH2 0x100 EXP DUP2 SLOAD DUP2 PUSH20 0xFFFFFFFFFFFFFFFFFFFFFFFFFFFFFFFFFFFFFFFF MUL NOT AND SWAP1 DUP4 PUSH20 0xFFFFFFFFFFFFFFFFFFFFFFFFFFFFFFFFFFFFFFFF AND MUL OR SWAP1 SSTORE POP PUSH3 0x148 JUMP JUMPDEST DUP1 PUSH1 0x0 DUP1 PUSH2 0x100 EXP DUP2 SLOAD DUP2 PUSH20 0xFFFFFFFFFFFFFFFFFFFFFFFFFFFFFFFFFFFFFFFF MUL NOT AND SWAP1 DUP4 PUSH20 0xFFFFFFFFFFFFFFFFFFFFFFFFFFFFFFFFFFFFFFFF AND MUL OR SWAP1 SSTORE POP JUMPDEST PUSH3 0x174 PUSH1 0x0 PUSH1 0x20 PUSH1 0x40 MLOAD SWAP1 DUP2 ADD PUSH1 0x40 MSTORE DUP1 PUSH1 0x0 DUP2 MSTORE POP PUSH3 0x265 PUSH5 0x100000000 MUL PUSH5 0x100000000 SWAP1 DIV JUMP JUMPDEST PUSH3 0x1E5 PUSH1 0x0 DUP1 SWAP1 SLOAD SWAP1 PUSH2 0x100 EXP SWAP1 DIV PUSH20 0xFFFFFFFFFFFFFFFFFFFFFFFFFFFFFFFFFFFFFFFF AND PUSH1 0x40 DUP1 MLOAD SWAP1 DUP2 ADD PUSH1 0x40 MSTORE DUP1 PUSH1 0x5 DUP2 MSTORE PUSH1 0x20 ADD PUSH32 0x41646D696E000000000000000000000000000000000000000000000000000000 DUP2 MSTORE POP PUSH3 0x265 PUSH5 0x100000000 MUL PUSH5 0x100000000 SWAP1 DIV JUMP JUMPDEST POP POP POP POP PUSH3 0x63C JUMP JUMPDEST PUSH1 0x0 DUP1 SWAP1 SLOAD SWAP1 PUSH2 0x100 EXP SWAP1 DIV PUSH20 0xFFFFFFFFFFFFFFFFFFFFFFFFFFFFFFFFFFFFFFFF AND PUSH20 0xFFFFFFFFFFFFFFFFFFFFFFFFFFFFFFFFFFFFFFFF AND CALLER PUSH20 0xFFFFFFFFFFFFFFFFFFFFFFFFFFFFFFFFFFFFFFFF AND EQ ISZERO ISZERO PUSH3 0x24B JUMPI PUSH1 0x0 DUP1 REVERT JUMPDEST DUP3 PUSH1 0x1 DUP2 SWAP1 SSTORE POP DUP2 PUSH1 0x2 DUP2 SWAP1 SSTORE POP DUP1 PUSH1 0x3 DUP2 SWAP1 SSTORE POP POP POP POP JUMP JUMPDEST PUSH1 0x0 DUP1 PUSH1 0x0 DUP1 SWAP1 SLOAD SWAP1 PUSH2 0x100 EXP SWAP1 DIV PUSH20 0xFFFFFFFFFFFFFFFFFFFFFFFFFFFFFFFFFFFFFFFF AND PUSH20 0xFFFFFFFFFFFFFFFFFFFFFFFFFFFFFFFFFFFFFFFF AND CALLER PUSH20 0xFFFFFFFFFFFFFFFFFFFFFFFFFFFFFFFFFFFFFFFF AND EQ ISZERO ISZERO PUSH3 0x2C4 JUMPI PUSH1 0x0 DUP1 REVERT JUMPDEST PUSH1 0x0 PUSH1 0x6 PUSH1 0x0 DUP7 PUSH20 0xFFFFFFFFFFFFFFFFFFFFFFFFFFFFFFFFFFFFFFFF AND PUSH20 0xFFFFFFFFFFFFFFFFFFFFFFFFFFFFFFFFFFFFFFFF AND DUP2 MSTORE PUSH1 0x20 ADD SWAP1 DUP2 MSTORE PUSH1 0x20 ADD PUSH1 0x0 KECCAK256 SLOAD EQ ISZERO PUSH3 0x440 JUMPI PUSH1 0x7 DUP1 SLOAD SWAP1 POP PUSH1 0x6 PUSH1 0x0 DUP7 PUSH20 0xFFFFFFFFFFFFFFFFFFFFFFFFFFFFFFFFFFFFFFFF AND PUSH20 0xFFFFFFFFFFFFFFFFFFFFFFFFFFFFFFFFFFFFFFFF AND DUP2 MSTORE PUSH1 0x20 ADD SWAP1 DUP2 MSTORE PUSH1 0x20 ADD PUSH1 0x0 KECCAK256 DUP2 SWAP1 SSTORE POP PUSH1 0x7 DUP1 SLOAD SWAP1 POP SWAP2 POP PUSH1 0x1 PUSH1 0x7 DUP1 SLOAD SWAP1 POP ADD PUSH1 0x7 DUP2 PUSH3 0x376 SWAP2 SWAP1 PUSH3 0x4A9 JUMP JUMPDEST POP PUSH1 0x60 PUSH1 0x40 MLOAD SWAP1 DUP2 ADD PUSH1 0x40 MSTORE DUP1 DUP6 PUSH20 0xFFFFFFFFFFFFFFFFFFFFFFFFFFFFFFFFFFFFFFFF AND DUP2 MSTORE PUSH1 0x20 ADD DUP5 DUP2 MSTORE PUSH1 0x20 ADD TIMESTAMP DUP2 MSTORE POP PUSH1 0x7 DUP4 DUP2 SLOAD DUP2 LT ISZERO ISZERO PUSH3 0x3B9 JUMPI INVALID JUMPDEST SWAP1 PUSH1 0x0 MSTORE PUSH1 0x20 PUSH1 0x0 KECCAK256 SWAP1 PUSH1 0x3 MUL ADD PUSH1 0x0 DUP3 ADD MLOAD DUP2 PUSH1 0x0 ADD PUSH1 0x0 PUSH2 0x100 EXP DUP2 SLOAD DUP2 PUSH20 0xFFFFFFFFFFFFFFFFFFFFFFFFFFFFFFFFFFFFFFFF MUL NOT AND SWAP1 DUP4 PUSH20 0xFFFFFFFFFFFFFFFFFFFFFFFFFFFFFFFFFFFFFFFF AND MUL OR SWAP1 SSTORE POP PUSH1 0x20 DUP3 ADD MLOAD DUP2 PUSH1 0x1 ADD SWAP1 DUP1 MLOAD SWAP1 PUSH1 0x20 ADD SWAP1 PUSH3 0x42C SWAP3 SWAP2 SWAP1 PUSH3 0x4DE JUMP JUMPDEST POP PUSH1 0x40 DUP3 ADD MLOAD DUP2 PUSH1 0x2 ADD SSTORE SWAP1 POP POP PUSH3 0x4A3 JUMP JUMPDEST PUSH1 0x6 PUSH1 0x0 DUP6 PUSH20 0xFFFFFFFFFFFFFFFFFFFFFFFFFFFFFFFFFFFFFFFF AND PUSH20 0xFFFFFFFFFFFFFFFFFFFFFFFFFFFFFFFFFFFFFFFF AND DUP2 MSTORE PUSH1 0x20 ADD SWAP1 DUP2 MSTORE PUSH1 0x20 ADD PUSH1 0x0 KECCAK256 SLOAD SWAP2 POP PUSH1 0x7 DUP3 DUP2 SLOAD DUP2 LT ISZERO ISZERO PUSH3 0x492 JUMPI INVALID JUMPDEST SWAP1 PUSH1 0x0 MSTORE PUSH1 0x20 PUSH1 0x0 KECCAK256 SWAP1 PUSH1 0x3 MUL ADD SWAP1 POP JUMPDEST POP POP POP POP JUMP JUMPDEST DUP2 SLOAD DUP2 DUP4 SSTORE DUP2 DUP2 GT ISZERO PUSH3 0x4D9 JUMPI PUSH1 0x3 MUL DUP2 PUSH1 0x3 MUL DUP4 PUSH1 0x0 MSTORE PUSH1 0x20 PUSH1 0x0 KECCAK256 SWAP2 DUP3 ADD SWAP2 ADD PUSH3 0x4D8 SWAP2 SWAP1 PUSH3 0x565 JUMP JUMPDEST JUMPDEST POP POP POP JUMP JUMPDEST DUP3 DUP1 SLOAD PUSH1 0x1 DUP2 PUSH1 0x1 AND ISZERO PUSH2 0x100 MUL SUB AND PUSH1 0x2 SWAP1 DIV SWAP1 PUSH1 0x0 MSTORE PUSH1 0x20 PUSH1 0x0 KECCAK256 SWAP1 PUSH1 0x1F ADD PUSH1 0x20 SWAP1 DIV DUP2 ADD SWAP3 DUP3 PUSH1 0x1F LT PUSH3 0x521 JUMPI DUP1 MLOAD PUSH1 0xFF NOT AND DUP4 DUP1 ADD OR DUP6 SSTORE PUSH3 0x552 JUMP JUMPDEST DUP3 DUP1 ADD PUSH1 0x1 ADD DUP6 SSTORE DUP3 ISZERO PUSH3 0x552 JUMPI SWAP2 DUP3 ADD JUMPDEST DUP3 DUP2 GT ISZERO PUSH3 0x551 JUMPI DUP3 MLOAD DUP3 SSTORE SWAP2 PUSH1 0x20 ADD SWAP2 SWAP1 PUSH1 0x1 ADD SWAP1 PUSH3 0x534 JUMP JUMPDEST JUMPDEST POP SWAP1 POP PUSH3 0x561 SWAP2 SWAP1 PUSH3 0x5C8 JUMP JUMPDEST POP SWAP1 JUMP JUMPDEST PUSH3 0x5C5 SWAP2 SWAP1 JUMPDEST DUP1 DUP3 GT ISZERO PUSH3 0x5C1 JUMPI PUSH1 0x0 DUP1 DUP3 ADD PUSH1 0x0 PUSH2 0x100 EXP DUP2 SLOAD SWAP1 PUSH20 0xFFFFFFFFFFFFFFFFFFFFFFFFFFFFFFFFFFFFFFFF MUL NOT AND SWAP1 SSTORE PUSH1 0x1 DUP3 ADD PUSH1 0x0 PUSH3 0x5AF SWAP2 SWAP1 PUSH3 0x5F0 JUMP JUMPDEST PUSH1 0x2 DUP3 ADD PUSH1 0x0 SWAP1 SSTORE POP PUSH1 0x3 ADD PUSH3 0x56C JUMP JUMPDEST POP SWAP1 JUMP JUMPDEST SWAP1 JUMP JUMPDEST PUSH3 0x5ED SWAP2 SWAP1 JUMPDEST DUP1 DUP3 GT ISZERO PUSH3 0x5E9 JUMPI PUSH1 0x0 DUP2 PUSH1 0x0 SWAP1 SSTORE POP PUSH1 0x1 ADD PUSH3 0x5CF JUMP JUMPDEST POP SWAP1 JUMP JUMPDEST SWAP1 JUMP JUMPDEST POP DUP1 SLOAD PUSH1 0x1 DUP2 PUSH1 0x1 AND ISZERO PUSH2 0x100 MUL SUB AND PUSH1 0x2 SWAP1 DIV PUSH1 0x0 DUP3 SSTORE DUP1 PUSH1 0x1F LT PUSH3 0x618 JUMPI POP PUSH3 0x639 JUMP JUMPDEST PUSH1 0x1F ADD PUSH1 0x20 SWAP1 DIV SWAP1 PUSH1 0x0 MSTORE PUSH1 0x20 PUSH1 0x0 KECCAK256 SWAP1 DUP2 ADD SWAP1 PUSH3 0x638 SWAP2 SWAP1 PUSH3 0x5C8 JUMP JUMPDEST JUMPDEST POP JUMP JUMPDEST PUSH2 0x1034 DUP1 PUSH3 0x64C PUSH1 0x0 CODECOPY PUSH1 0x0 RETURN STOP PUSH1 0x80 PUSH1 0x40 MSTORE PUSH1 0x4 CALLDATASIZE LT PUSH2 0xE6 JUMPI PUSH1 0x0 CALLDATALOAD PUSH29 0x100000000000000000000000000000000000000000000000000000000 SWAP1 DIV PUSH4 0xFFFFFFFF AND DUP1 PUSH4 0x13CF08B EQ PUSH2 0xE8 JUMPI DUP1 PUSH4 0xB1CA49A EQ PUSH2 0x202 JUMPI DUP1 PUSH4 0x237E9492 EQ PUSH2 0x245 JUMPI DUP1 PUSH4 0x39106821 EQ PUSH2 0x2B8 JUMPI DUP1 PUSH4 0x3FB2D655 EQ PUSH2 0x30F JUMPI DUP1 PUSH4 0x400E3949 EQ PUSH2 0x326 JUMPI DUP1 PUSH4 0x5DAF08CA EQ PUSH2 0x351 JUMPI DUP1 PUSH4 0x632A9A52 EQ PUSH2 0x431 JUMPI DUP1 PUSH4 0x68744564 EQ PUSH2 0x448 JUMPI DUP1 PUSH4 0x8160F0B5 EQ PUSH2 0x45F JUMPI DUP1 PUSH4 0xAA02A90F EQ PUSH2 0x48A JUMPI DUP1 PUSH4 0xBCCA1FD3 EQ PUSH2 0x4B5 JUMPI DUP1 PUSH4 0xBFEE24C2 EQ PUSH2 0x4F6 JUMPI DUP1 PUSH4 0xC127C247 EQ PUSH2 0x521 JUMPI DUP1 PUSH4 0xDB529E4E EQ PUSH2 0x5AA JUMPI DUP1 PUSH4 0xF851A440 EQ PUSH2 0x5ED JUMPI JUMPDEST STOP JUMPDEST CALLVALUE DUP1 ISZERO PUSH2 0xF4 JUMPI PUSH1 0x0 DUP1 REVERT JUMPDEST POP PUSH2 0x113 PUSH1 0x4 DUP1 CALLDATASIZE SUB DUP2 ADD SWAP1 DUP1 DUP1 CALLDATALOAD SWAP1 PUSH1 0x20 ADD SWAP1 SWAP3 SWAP2 SWAP1 POP POP POP PUSH2 0x644 JUMP JUMPDEST PUSH1 0x40 MLOAD DUP1 DUP11 PUSH20 0xFFFFFFFFFFFFFFFFFFFFFFFFFFFFFFFFFFFFFFFF AND PUSH20 0xFFFFFFFFFFFFFFFFFFFFFFFFFFFFFFFFFFFFFFFF AND DUP2 MSTORE PUSH1 0x20 ADD DUP10 DUP2 MSTORE PUSH1 0x20 ADD DUP1 PUSH1 0x20 ADD DUP9 DUP2 MSTORE PUSH1 0x20 ADD DUP8 ISZERO ISZERO ISZERO ISZERO DUP2 MSTORE PUSH1 0x20 ADD DUP7 ISZERO ISZERO ISZERO ISZERO DUP2 MSTORE PUSH1 0x20 ADD DUP6 DUP2 MSTORE PUSH1 0x20 ADD DUP5 DUP2 MSTORE PUSH1 0x20 ADD DUP4 PUSH1 0x0 NOT AND PUSH1 0x0 NOT AND DUP2 MSTORE PUSH1 0x20 ADD DUP3 DUP2 SUB DUP3 MSTORE DUP10 DUP2 DUP2 MLOAD DUP2 MSTORE PUSH1 0x20 ADD SWAP2 POP DUP1 MLOAD SWAP1 PUSH1 0x20 ADD SWAP1 DUP1 DUP4 DUP4 PUSH1 0x0 JUMPDEST DUP4 DUP2 LT ISZERO PUSH2 0x1BF JUMPI DUP1 DUP3 ADD MLOAD DUP2 DUP5 ADD MSTORE PUSH1 0x20 DUP2 ADD SWAP1 POP PUSH2 0x1A4 JUMP JUMPDEST POP POP POP POP SWAP1 POP SWAP1 DUP2 ADD SWAP1 PUSH1 0x1F AND DUP1 ISZERO PUSH2 0x1EC JUMPI DUP1 DUP3 SUB DUP1 MLOAD PUSH1 0x1 DUP4 PUSH1 0x20 SUB PUSH2 0x100 EXP SUB NOT AND DUP2 MSTORE PUSH1 0x20 ADD SWAP2 POP JUMPDEST POP SWAP11 POP POP POP POP POP POP POP POP POP POP POP PUSH1 0x40 MLOAD DUP1 SWAP2 SUB SWAP1 RETURN JUMPDEST CALLVALUE DUP1 ISZERO PUSH2 0x20E JUMPI PUSH1 0x0 DUP1 REVERT JUMPDEST POP PUSH2 0x243 PUSH1 0x4 DUP1 CALLDATASIZE SUB DUP2 ADD SWAP1 DUP1 DUP1 CALLDATALOAD PUSH20 0xFFFFFFFFFFFFFFFFFFFFFFFFFFFFFFFFFFFFFFFF AND SWAP1 PUSH1 0x20 ADD SWAP1 SWAP3 SWAP2 SWAP1 POP POP POP PUSH2 0x773 JUMP JUMPDEST STOP JUMPDEST CALLVALUE DUP1 ISZERO PUSH2 0x251 JUMPI PUSH1 0x0 DUP1 REVERT JUMPDEST POP PUSH2 0x2B6 PUSH1 0x4 DUP1 CALLDATASIZE SUB DUP2 ADD SWAP1 DUP1 DUP1 CALLDATALOAD SWAP1 PUSH1 0x20 ADD SWAP1 SWAP3 SWAP2 SWAP1 DUP1 CALLDATALOAD SWAP1 PUSH1 0x20 ADD SWAP1 DUP3 ADD DUP1 CALLDATALOAD SWAP1 PUSH1 0x20 ADD SWAP1 DUP1 DUP1 PUSH1 0x1F ADD PUSH1 0x20 DUP1 SWAP2 DIV MUL PUSH1 0x20 ADD PUSH1 0x40 MLOAD SWAP1 DUP2 ADD PUSH1 0x40 MSTORE DUP1 SWAP4 SWAP3 SWAP2 SWAP1 DUP2 DUP2 MSTORE PUSH1 0x20 ADD DUP4 DUP4 DUP1 DUP3 DUP5 CALLDATACOPY DUP3 ADD SWAP2 POP POP POP POP POP POP SWAP2 SWAP3 SWAP2 SWAP3 SWAP1 POP POP POP PUSH2 0x9C1 JUMP JUMPDEST STOP JUMPDEST CALLVALUE DUP1 ISZERO PUSH2 0x2C4 JUMPI PUSH1 0x0 DUP1 REVERT JUMPDEST POP PUSH2 0x2F9 PUSH1 0x4 DUP1 CALLDATASIZE SUB DUP2 ADD SWAP1 DUP1 DUP1 CALLDATALOAD PUSH20 0xFFFFFFFFFFFFFFFFFFFFFFFFFFFFFFFFFFFFFFFF AND SWAP1 PUSH1 0x20 ADD SWAP1 SWAP3 SWAP2 SWAP1 POP POP POP PUSH2 0x9C5 JUMP JUMPDEST PUSH1 0x40 MLOAD DUP1 DUP3 DUP2 MSTORE PUSH1 0x20 ADD SWAP2 POP POP PUSH1 0x40 MLOAD DUP1 SWAP2 SUB SWAP1 RETURN JUMPDEST CALLVALUE DUP1 ISZERO PUSH2 0x31B JUMPI PUSH1 0x0 DUP1 REVERT JUMPDEST POP PUSH2 0x324 PUSH2 0x9DD JUMP JUMPDEST STOP JUMPDEST CALLVALUE DUP1 ISZERO PUSH2 0x332 JUMPI PUSH1 0x0 DUP1 REVERT JUMPDEST POP PUSH2 0x33B PUSH2 0x9DF JUMP JUMPDEST PUSH1 0x40 MLOAD DUP1 DUP3 DUP2 MSTORE PUSH1 0x20 ADD SWAP2 POP POP PUSH1 0x40 MLOAD DUP1 SWAP2 SUB SWAP1 RETURN JUMPDEST CALLVALUE DUP1 ISZERO PUSH2 0x35D JUMPI PUSH1 0x0 DUP1 REVERT JUMPDEST POP PUSH2 0x37C PUSH1 0x4 DUP1 CALLDATASIZE SUB DUP2 ADD SWAP1 DUP1 DUP1 CALLDATALOAD SWAP1 PUSH1 0x20 ADD SWAP1 SWAP3 SWAP2 SWAP1 POP POP POP PUSH2 0x9E5 JUMP JUMPDEST PUSH1 0x40 MLOAD DUP1 DUP5 PUSH20 0xFFFFFFFFFFFFFFFFFFFFFFFFFFFFFFFFFFFFFFFF AND PUSH20 0xFFFFFFFFFFFFFFFFFFFFFFFFFFFFFFFFFFFFFFFF AND DUP2 MSTORE PUSH1 0x20 ADD DUP1 PUSH1 0x20 ADD DUP4 DUP2 MSTORE PUSH1 0x20 ADD DUP3 DUP2 SUB DUP3 MSTORE DUP5 DUP2 DUP2 MLOAD DUP2 MSTORE PUSH1 0x20 ADD SWAP2 POP DUP1 MLOAD SWAP1 PUSH1 0x20 ADD SWAP1 DUP1 DUP4 DUP4 PUSH1 0x0 JUMPDEST DUP4 DUP2 LT ISZERO PUSH2 0x3F4 JUMPI DUP1 DUP3 ADD MLOAD DUP2 DUP5 ADD MSTORE PUSH1 0x20 DUP2 ADD SWAP1 POP PUSH2 0x3D9 JUMP JUMPDEST POP POP POP POP SWAP1 POP SWAP1 DUP2 ADD SWAP1 PUSH1 0x1F AND DUP1 ISZERO PUSH2 0x421 JUMPI DUP1 DUP3 SUB DUP1 MLOAD PUSH1 0x1 DUP4 PUSH1 0x20 SUB PUSH2 0x100 EXP SUB NOT AND DUP2 MSTORE PUSH1 0x20 ADD SWAP2 POP JUMPDEST POP SWAP5 POP POP POP POP POP PUSH1 0x40 MLOAD DUP1 SWAP2 SUB SWAP1 RETURN JUMPDEST CALLVALUE DUP1 ISZERO PUSH2 0x43D JUMPI PUSH1 0x0 DUP1 REVERT JUMPDEST POP PUSH2 0x446 PUSH2 0xAD6 JUMP JUMPDEST STOP JUMPDEST CALLVALUE DUP1 ISZERO PUSH2 0x454 JUMPI PUSH1 0x0 DUP1 REVERT JUMPDEST POP PUSH2 0x45D PUSH2 0xAD8 JUMP JUMPDEST STOP JUMPDEST CALLVALUE DUP1 ISZERO PUSH2 0x46B JUMPI PUSH1 0x0 DUP1 REVERT JUMPDEST POP PUSH2 0x474 PUSH2 0xADA JUMP JUMPDEST PUSH1 0x40 MLOAD DUP1 DUP3 DUP2 MSTORE PUSH1 0x20 ADD SWAP2 POP POP PUSH1 0x40 MLOAD DUP1 SWAP2 SUB SWAP1 RETURN JUMPDEST CALLVALUE DUP1 ISZERO PUSH2 0x496 JUMPI PUSH1 0x0 DUP1 REVERT JUMPDEST POP PUSH2 0x49F PUSH2 0xAE0 JUMP JUMPDEST PUSH1 0x40 MLOAD DUP1 DUP3 DUP2 MSTORE PUSH1 0x20 ADD SWAP2 POP POP PUSH1 0x40 MLOAD DUP1 SWAP2 SUB SWAP1 RETURN JUMPDEST CALLVALUE DUP1 ISZERO PUSH2 0x4C1 JUMPI PUSH1 0x0 DUP1 REVERT JUMPDEST POP PUSH2 0x4F4 PUSH1 0x4 DUP1 CALLDATASIZE SUB DUP2 ADD SWAP1 DUP1 DUP1 CALLDATALOAD SWAP1 PUSH1 0x20 ADD SWAP1 SWAP3 SWAP2 SWAP1 DUP1 CALLDATALOAD SWAP1 PUSH1 0x20 ADD SWAP1 SWAP3 SWAP2 SWAP1 DUP1 CALLDATALOAD SWAP1 PUSH1 0x20 ADD SWAP1 SWAP3 SWAP2 SWAP1 POP POP POP PUSH2 0xAE6 JUMP JUMPDEST STOP JUMPDEST CALLVALUE DUP1 ISZERO PUSH2 0x502 JUMPI PUSH1 0x0 DUP1 REVERT JUMPDEST POP PUSH2 0x50B PUSH2 0xB5B JUMP JUMPDEST PUSH1 0x40 MLOAD DUP1 DUP3 DUP2 MSTORE PUSH1 0x20 ADD SWAP2 POP POP PUSH1 0x40 MLOAD DUP1 SWAP2 SUB SWAP1 RETURN JUMPDEST CALLVALUE DUP1 ISZERO PUSH2 0x52D JUMPI PUSH1 0x0 DUP1 REVERT JUMPDEST POP PUSH2 0x5A8 PUSH1 0x4 DUP1 CALLDATASIZE SUB DUP2 ADD SWAP1 DUP1 DUP1 CALLDATALOAD PUSH20 0xFFFFFFFFFFFFFFFFFFFFFFFFFFFFFFFFFFFFFFFF AND SWAP1 PUSH1 0x20 ADD SWAP1 SWAP3 SWAP2 SWAP1 DUP1 CALLDATALOAD SWAP1 PUSH1 0x20 ADD SWAP1 DUP3 ADD DUP1 CALLDATALOAD SWAP1 PUSH1 0x20 ADD SWAP1 DUP1 DUP1 PUSH1 0x1F ADD PUSH1 0x20 DUP1 SWAP2 DIV MUL PUSH1 0x20 ADD PUSH1 0x40 MLOAD SWAP1 DUP2 ADD PUSH1 0x40 MSTORE DUP1 SWAP4 SWAP3 SWAP2 SWAP1 DUP2 DUP2 MSTORE PUSH1 0x20 ADD DUP4 DUP4 DUP1 DUP3 DUP5 CALLDATACOPY DUP3 ADD SWAP2 POP POP POP POP POP POP SWAP2 SWAP3 SWAP2 SWAP3 SWAP1 POP POP POP PUSH2 0xB61 JUMP JUMPDEST STOP JUMPDEST CALLVALUE DUP1 ISZERO PUSH2 0x5B6 JUMPI PUSH1 0x0 DUP1 REVERT JUMPDEST POP PUSH2 0x5EB PUSH1 0x4 DUP1 CALLDATASIZE SUB DUP2 ADD SWAP1 DUP1 DUP1 CALLDATALOAD PUSH20 0xFFFFFFFFFFFFFFFFFFFFFFFFFFFFFFFFFFFFFFFF AND SWAP1 PUSH1 0x20 ADD SWAP1 SWAP3 SWAP2 SWAP1 POP POP POP PUSH2 0xD9C JUMP JUMPDEST STOP JUMPDEST CALLVALUE DUP1 ISZERO PUSH2 0x5F9 JUMPI PUSH1 0x0 DUP1 REVERT JUMPDEST POP PUSH2 0x602 PUSH2 0xDDF JUMP JUMPDEST PUSH1 0x40 MLOAD DUP1 DUP3 PUSH20 0xFFFFFFFFFFFFFFFFFFFFFFFFFFFFFFFFFFFFFFFF AND PUSH20 0xFFFFFFFFFFFFFFFFFFFFFFFFFFFFFFFFFFFFFFFF AND DUP2 MSTORE PUSH1 0x20 ADD SWAP2 POP POP PUSH1 0x40 MLOAD DUP1 SWAP2 SUB SWAP1 RETURN JUMPDEST PUSH1 0x4 DUP2 DUP2 SLOAD DUP2 LT ISZERO ISZERO PUSH2 0x653 JUMPI INVALID JUMPDEST SWAP1 PUSH1 0x0 MSTORE PUSH1 0x20 PUSH1 0x0 KECCAK256 SWAP1 PUSH1 0xA MUL ADD PUSH1 0x0 SWAP2 POP SWAP1 POP DUP1 PUSH1 0x0 ADD PUSH1 0x0 SWAP1 SLOAD SWAP1 PUSH2 0x100 EXP SWAP1 DIV PUSH20 0xFFFFFFFFFFFFFFFFFFFFFFFFFFFFFFFFFFFFFFFF AND SWAP1 DUP1 PUSH1 0x1 ADD SLOAD SWAP1 DUP1 PUSH1 0x2 ADD DUP1 SLOAD PUSH1 0x1 DUP2 PUSH1 0x1 AND ISZERO PUSH2 0x100 MUL SUB AND PUSH1 0x2 SWAP1 DIV DUP1 PUSH1 0x1F ADD PUSH1 0x20 DUP1 SWAP2 DIV MUL PUSH1 0x20 ADD PUSH1 0x40 MLOAD SWAP1 DUP2 ADD PUSH1 0x40 MSTORE DUP1 SWAP3 SWAP2 SWAP1 DUP2 DUP2 MSTORE PUSH1 0x20 ADD DUP3 DUP1 SLOAD PUSH1 0x1 DUP2 PUSH1 0x1 AND ISZERO PUSH2 0x100 MUL SUB AND PUSH1 0x2 SWAP1 DIV DUP1 ISZERO PUSH2 0x72B JUMPI DUP1 PUSH1 0x1F LT PUSH2 0x700 JUMPI PUSH2 0x100 DUP1 DUP4 SLOAD DIV MUL DUP4 MSTORE SWAP2 PUSH1 0x20 ADD SWAP2 PUSH2 0x72B JUMP JUMPDEST DUP3 ADD SWAP2 SWAP1 PUSH1 0x0 MSTORE PUSH1 0x20 PUSH1 0x0 KECCAK256 SWAP1 JUMPDEST DUP2 SLOAD DUP2 MSTORE SWAP1 PUSH1 0x1 ADD SWAP1 PUSH1 0x20 ADD DUP1 DUP4 GT PUSH2 0x70E JUMPI DUP3 SWAP1 SUB PUSH1 0x1F AND DUP3 ADD SWAP2 JUMPDEST POP POP POP POP POP SWAP1 DUP1 PUSH1 0x3 ADD SLOAD SWAP1 DUP1 PUSH1 0x4 ADD PUSH1 0x0 SWAP1 SLOAD SWAP1 PUSH2 0x100 EXP SWAP1 DIV PUSH1 0xFF AND SWAP1 DUP1 PUSH1 0x4 ADD PUSH1 0x1 SWAP1 SLOAD SWAP1 PUSH2 0x100 EXP SWAP1 DIV PUSH1 0xFF AND SWAP1 DUP1 PUSH1 0x5 ADD SLOAD SWAP1 DUP1 PUSH1 0x6 ADD SLOAD SWAP1 DUP1 PUSH1 0x7 ADD SLOAD SWAP1 POP DUP10 JUMP JUMPDEST PUSH1 0x0 DUP1 PUSH1 0x0 SWAP1 SLOAD SWAP1 PUSH2 0x100 EXP SWAP1 DIV PUSH20 0xFFFFFFFFFFFFFFFFFFFFFFFFFFFFFFFFFFFFFFFF AND PUSH20 0xFFFFFFFFFFFFFFFFFFFFFFFFFFFFFFFFFFFFFFFF AND CALLER PUSH20 0xFFFFFFFFFFFFFFFFFFFFFFFFFFFFFFFFFFFFFFFF AND EQ ISZERO ISZERO PUSH2 0x7D0 JUMPI PUSH1 0x0 DUP1 REVERT JUMPDEST PUSH1 0x0 PUSH1 0x6 PUSH1 0x0 DUP5 PUSH20 0xFFFFFFFFFFFFFFFFFFFFFFFFFFFFFFFFFFFFFFFF AND PUSH20 0xFFFFFFFFFFFFFFFFFFFFFFFFFFFFFFFFFFFFFFFF AND DUP2 MSTORE PUSH1 0x20 ADD SWAP1 DUP2 MSTORE PUSH1 0x20 ADD PUSH1 0x0 KECCAK256 SLOAD EQ ISZERO PUSH2 0x81D JUMPI PUSH1 0x0 DUP1 REVERT JUMPDEST PUSH1 0x6 PUSH1 0x0 DUP4 PUSH20 0xFFFFFFFFFFFFFFFFFFFFFFFFFFFFFFFFFFFFFFFF AND PUSH20 0xFFFFFFFFFFFFFFFFFFFFFFFFFFFFFFFFFFFFFFFF AND DUP2 MSTORE PUSH1 0x20 ADD SWAP1 DUP2 MSTORE PUSH1 0x20 ADD PUSH1 0x0 KECCAK256 SLOAD SWAP1 POP JUMPDEST PUSH1 0x1 PUSH1 0x7 DUP1 SLOAD SWAP1 POP SUB DUP2 LT ISZERO PUSH2 0x956 JUMPI PUSH1 0x7 PUSH1 0x1 DUP3 ADD DUP2 SLOAD DUP2 LT ISZERO ISZERO PUSH2 0x882 JUMPI INVALID JUMPDEST SWAP1 PUSH1 0x0 MSTORE PUSH1 0x20 PUSH1 0x0 KECCAK256 SWAP1 PUSH1 0x3 MUL ADD PUSH1 0x7 DUP3 DUP2 SLOAD DUP2 LT ISZERO ISZERO PUSH2 0x89F JUMPI INVALID JUMPDEST SWAP1 PUSH1 0x0 MSTORE PUSH1 0x20 PUSH1 0x0 KECCAK256 SWAP1 PUSH1 0x3 MUL ADD PUSH1 0x0 DUP3 ADD PUSH1 0x0 SWAP1 SLOAD SWAP1 PUSH2 0x100 EXP SWAP1 DIV PUSH20 0xFFFFFFFFFFFFFFFFFFFFFFFFFFFFFFFFFFFFFFFF AND DUP2 PUSH1 0x0 ADD PUSH1 0x0 PUSH2 0x100 EXP DUP2 SLOAD DUP2 PUSH20 0xFFFFFFFFFFFFFFFFFFFFFFFFFFFFFFFFFFFFFFFF MUL NOT AND SWAP1 DUP4 PUSH20 0xFFFFFFFFFFFFFFFFFFFFFFFFFFFFFFFFFFFFFFFF AND MUL OR SWAP1 SSTORE POP PUSH1 0x1 DUP3 ADD DUP2 PUSH1 0x1 ADD SWAP1 DUP1 SLOAD PUSH1 0x1 DUP2 PUSH1 0x1 AND ISZERO PUSH2 0x100 MUL SUB AND PUSH1 0x2 SWAP1 DIV PUSH2 0x93B SWAP3 SWAP2 SWAP1 PUSH2 0xE04 JUMP JUMPDEST POP PUSH1 0x2 DUP3 ADD SLOAD DUP2 PUSH1 0x2 ADD SSTORE SWAP1 POP POP DUP1 DUP1 PUSH1 0x1 ADD SWAP2 POP POP PUSH2 0x860 JUMP JUMPDEST PUSH1 0x7 PUSH1 0x1 PUSH1 0x7 DUP1 SLOAD SWAP1 POP SUB DUP2 SLOAD DUP2 LT ISZERO ISZERO PUSH2 0x96D JUMPI INVALID JUMPDEST SWAP1 PUSH1 0x0 MSTORE PUSH1 0x20 PUSH1 0x0 KECCAK256 SWAP1 PUSH1 0x3 MUL ADD PUSH1 0x0 DUP1 DUP3 ADD PUSH1 0x0 PUSH2 0x100 EXP DUP2 SLOAD SWAP1 PUSH20 0xFFFFFFFFFFFFFFFFFFFFFFFFFFFFFFFFFFFFFFFF MUL NOT AND SWAP1 SSTORE PUSH1 0x1 DUP3 ADD PUSH1 0x0 PUSH2 0x9B3 SWAP2 SWAP1 PUSH2 0xE8B JUMP JUMPDEST PUSH1 0x2 DUP3 ADD PUSH1 0x0 SWAP1 SSTORE POP POP POP POP JUMP JUMPDEST POP POP JUMP JUMPDEST PUSH1 0x6 PUSH1 0x20 MSTORE DUP1 PUSH1 0x0 MSTORE PUSH1 0x40 PUSH1 0x0 KECCAK256 PUSH1 0x0 SWAP2 POP SWAP1 POP SLOAD DUP2 JUMP JUMPDEST JUMP JUMPDEST PUSH1 0x5 SLOAD DUP2 JUMP JUMPDEST PUSH1 0x7 DUP2 DUP2 SLOAD DUP2 LT ISZERO ISZERO PUSH2 0x9F4 JUMPI INVALID JUMPDEST SWAP1 PUSH1 0x0 MSTORE PUSH1 0x20 PUSH1 0x0 KECCAK256 SWAP1 PUSH1 0x3 MUL ADD PUSH1 0x0 SWAP2 POP SWAP1 POP DUP1 PUSH1 0x0 ADD PUSH1 0x0 SWAP1 SLOAD SWAP1 PUSH2 0x100 EXP SWAP1 DIV PUSH20 0xFFFFFFFFFFFFFFFFFFFFFFFFFFFFFFFFFFFFFFFF AND SWAP1 DUP1 PUSH1 0x1 ADD DUP1 SLOAD PUSH1 0x1 DUP2 PUSH1 0x1 AND ISZERO PUSH2 0x100 MUL SUB AND PUSH1 0x2 SWAP1 DIV DUP1 PUSH1 0x1F ADD PUSH1 0x20 DUP1 SWAP2 DIV MUL PUSH1 0x20 ADD PUSH1 0x40 MLOAD SWAP1 DUP2 ADD PUSH1 0x40 MSTORE DUP1 SWAP3 SWAP2 SWAP1 DUP2 DUP2 MSTORE PUSH1 0x20 ADD DUP3 DUP1 SLOAD PUSH1 0x1 DUP2 PUSH1 0x1 AND ISZERO PUSH2 0x100 MUL SUB AND PUSH1 0x2 SWAP1 DIV DUP1 ISZERO PUSH2 0xAC6 JUMPI DUP1 PUSH1 0x1F LT PUSH2 0xA9B JUMPI PUSH2 0x100 DUP1 DUP4 SLOAD DIV MUL DUP4 MSTORE SWAP2 PUSH1 0x20 ADD SWAP2 PUSH2 0xAC6 JUMP JUMPDEST DUP3 ADD SWAP2 SWAP1 PUSH1 0x0 MSTORE PUSH1 0x20 PUSH1 0x0 KECCAK256 SWAP1 JUMPDEST DUP2 SLOAD DUP2 MSTORE SWAP1 PUSH1 0x1 ADD SWAP1 PUSH1 0x20 ADD DUP1 DUP4 GT PUSH2 0xAA9 JUMPI DUP3 SWAP1 SUB PUSH1 0x1F AND DUP3 ADD SWAP2 JUMPDEST POP POP POP POP POP SWAP1 DUP1 PUSH1 0x2 ADD SLOAD SWAP1 POP DUP4 JUMP JUMPDEST JUMP JUMPDEST JUMP JUMPDEST PUSH1 0x1 SLOAD DUP2 JUMP JUMPDEST PUSH1 0x3 SLOAD DUP2 JUMP JUMPDEST PUSH1 0x0 DUP1 SWAP1 SLOAD SWAP1 PUSH2 0x100 EXP SWAP1 DIV PUSH20 0xFFFFFFFFFFFFFFFFFFFFFFFFFFFFFFFFFFFFFFFF AND PUSH20 0xFFFFFFFFFFFFFFFFFFFFFFFFFFFFFFFFFFFFFFFF AND CALLER PUSH20 0xFFFFFFFFFFFFFFFFFFFFFFFFFFFFFFFFFFFFFFFF AND EQ ISZERO ISZERO PUSH2 0xB41 JUMPI PUSH1 0x0 DUP1 REVERT JUMPDEST DUP3 PUSH1 0x1 DUP2 SWAP1 SSTORE POP DUP2 PUSH1 0x2 DUP2 SWAP1 SSTORE POP DUP1 PUSH1 0x3 DUP2 SWAP1 SSTORE POP POP POP POP JUMP JUMPDEST PUSH1 0x2 SLOAD DUP2 JUMP JUMPDEST PUSH1 0x0 DUP1 PUSH1 0x0 DUP1 SWAP1 SLOAD SWAP1 PUSH2 0x100 EXP SWAP1 DIV PUSH20 0xFFFFFFFFFFFFFFFFFFFFFFFFFFFFFFFFFFFFFFFF AND PUSH20 0xFFFFFFFFFFFFFFFFFFFFFFFFFFFFFFFFFFFFFFFF AND CALLER PUSH20 0xFFFFFFFFFFFFFFFFFFFFFFFFFFFFFFFFFFFFFFFF AND EQ ISZERO ISZERO PUSH2 0xBBF JUMPI PUSH1 0x0 DUP1 REVERT JUMPDEST PUSH1 0x0 PUSH1 0x6 PUSH1 0x0 DUP7 PUSH20 0xFFFFFFFFFFFFFFFFFFFFFFFFFFFFFFFFFFFFFFFF AND PUSH20 0xFFFFFFFFFFFFFFFFFFFFFFFFFFFFFFFFFFFFFFFF AND DUP2 MSTORE PUSH1 0x20 ADD SWAP1 DUP2 MSTORE PUSH1 0x20 ADD PUSH1 0x0 KECCAK256 SLOAD EQ ISZERO PUSH2 0xD34 JUMPI PUSH1 0x7 DUP1 SLOAD SWAP1 POP PUSH1 0x6 PUSH1 0x0 DUP7 PUSH20 0xFFFFFFFFFFFFFFFFFFFFFFFFFFFFFFFFFFFFFFFF AND PUSH20 0xFFFFFFFFFFFFFFFFFFFFFFFFFFFFFFFFFFFFFFFF AND DUP2 MSTORE PUSH1 0x20 ADD SWAP1 DUP2 MSTORE PUSH1 0x20 ADD PUSH1 0x0 KECCAK256 DUP2 SWAP1 SSTORE POP PUSH1 0x7 DUP1 SLOAD SWAP1 POP SWAP2 POP PUSH1 0x1 PUSH1 0x7 DUP1 SLOAD SWAP1 POP ADD PUSH1 0x7 DUP2 PUSH2 0xC6E SWAP2 SWAP1 PUSH2 0xED3 JUMP JUMPDEST POP PUSH1 0x60 PUSH1 0x40 MLOAD SWAP1 DUP2 ADD PUSH1 0x40 MSTORE DUP1 DUP6 PUSH20 0xFFFFFFFFFFFFFFFFFFFFFFFFFFFFFFFFFFFFFFFF AND DUP2 MSTORE PUSH1 0x20 ADD DUP5 DUP2 MSTORE PUSH1 0x20 ADD TIMESTAMP DUP2 MSTORE POP PUSH1 0x7 DUP4 DUP2 SLOAD DUP2 LT ISZERO ISZERO PUSH2 0xCB0 JUMPI INVALID JUMPDEST SWAP1 PUSH1 0x0 MSTORE PUSH1 0x20 PUSH1 0x0 KECCAK256 SWAP1 PUSH1 0x3 MUL ADD PUSH1 0x0 DUP3 ADD MLOAD DUP2 PUSH1 0x0 ADD PUSH1 0x0 PUSH2 0x100 EXP DUP2 SLOAD DUP2 PUSH20 0xFFFFFFFFFFFFFFFFFFFFFFFFFFFFFFFFFFFFFFFF MUL NOT AND SWAP1 DUP4 PUSH20 0xFFFFFFFFFFFFFFFFFFFFFFFFFFFFFFFFFFFFFFFF AND MUL OR SWAP1 SSTORE POP PUSH1 0x20 DUP3 ADD MLOAD DUP2 PUSH1 0x1 ADD SWAP1 DUP1 MLOAD SWAP1 PUSH1 0x20 ADD SWAP1 PUSH2 0xD21 SWAP3 SWAP2 SWAP1 PUSH2 0xF05 JUMP JUMPDEST POP PUSH1 0x40 DUP3 ADD MLOAD DUP2 PUSH1 0x2 ADD SSTORE SWAP1 POP POP PUSH2 0xD96 JUMP JUMPDEST PUSH1 0x6 PUSH1 0x0 DUP6 PUSH20 0xFFFFFFFFFFFFFFFFFFFFFFFFFFFFFFFFFFFFFFFF AND PUSH20 0xFFFFFFFFFFFFFFFFFFFFFFFFFFFFFFFFFFFFFFFF AND DUP2 MSTORE PUSH1 0x20 ADD SWAP1 DUP2 MSTORE PUSH1 0x20 ADD PUSH1 0x0 KECCAK256 SLOAD SWAP2 POP PUSH1 0x7 DUP3 DUP2 SLOAD DUP2 LT ISZERO ISZERO PUSH2 0xD85 JUMPI INVALID JUMPDEST SWAP1 PUSH1 0x0 MSTORE PUSH1 0x20 PUSH1 0x0 KECCAK256 SWAP1 PUSH1 0x3 MUL ADD SWAP1 POP JUMPDEST POP POP POP POP JUMP JUMPDEST DUP1 PUSH1 0x0 DUP1 PUSH2 0x100 EXP DUP2 SLOAD DUP2 PUSH20 0xFFFFFFFFFFFFFFFFFFFFFFFFFFFFFFFFFFFFFFFF MUL NOT AND SWAP1 DUP4 PUSH20 0xFFFFFFFFFFFFFFFFFFFFFFFFFFFFFFFFFFFFFFFF AND MUL OR SWAP1 SSTORE POP POP JUMP JUMPDEST PUSH1 0x0 DUP1 SWAP1 SLOAD SWAP1 PUSH2 0x100 EXP SWAP1 DIV PUSH20 0xFFFFFFFFFFFFFFFFFFFFFFFFFFFFFFFFFFFFFFFF AND DUP2 JUMP JUMPDEST DUP3 DUP1 SLOAD PUSH1 0x1 DUP2 PUSH1 0x1 AND ISZERO PUSH2 0x100 MUL SUB AND PUSH1 0x2 SWAP1 DIV SWAP1 PUSH1 0x0 MSTORE PUSH1 0x20 PUSH1 0x0 KECCAK256 SWAP1 PUSH1 0x1F ADD PUSH1 0x20 SWAP1 DIV DUP2 ADD SWAP3 DUP3 PUSH1 0x1F LT PUSH2 0xE3D JUMPI DUP1 SLOAD DUP6 SSTORE PUSH2 0xE7A JUMP JUMPDEST DUP3 DUP1 ADD PUSH1 0x1 ADD DUP6 SSTORE DUP3 ISZERO PUSH2 0xE7A JUMPI PUSH1 0x0 MSTORE PUSH1 0x20 PUSH1 0x0 KECCAK256 SWAP2 PUSH1 0x1F ADD PUSH1 0x20 SWAP1 DIV DUP3 ADD JUMPDEST DUP3 DUP2 GT ISZERO PUSH2 0xE79 JUMPI DUP3 SLOAD DUP3 SSTORE SWAP2 PUSH1 0x1 ADD SWAP2 SWAP1 PUSH1 0x1 ADD SWAP1 PUSH2 0xE5E JUMP JUMPDEST JUMPDEST POP SWAP1 POP PUSH2 0xE87 SWAP2 SWAP1 PUSH2 0xF85 JUMP JUMPDEST POP SWAP1 JUMP JUMPDEST POP DUP1 SLOAD PUSH1 0x1 DUP2 PUSH1 0x1 AND ISZERO PUSH2 0x100 MUL SUB AND PUSH1 0x2 SWAP1 DIV PUSH1 0x0 DUP3 SSTORE DUP1 PUSH1 0x1F LT PUSH2 0xEB1 JUMPI POP PUSH2 0xED0 JUMP JUMPDEST PUSH1 0x1F ADD PUSH1 0x20 SWAP1 DIV SWAP1 PUSH1 0x0 MSTORE PUSH1 0x20 PUSH1 0x0 KECCAK256 SWAP1 DUP2 ADD SWAP1 PUSH2 0xECF SWAP2 SWAP1 PUSH2 0xF85 JUMP JUMPDEST JUMPDEST POP JUMP JUMPDEST DUP2 SLOAD DUP2 DUP4 SSTORE DUP2 DUP2 GT ISZERO PUSH2 0xF00 JUMPI PUSH1 0x3 MUL DUP2 PUSH1 0x3 MUL DUP4 PUSH1 0x0 MSTORE PUSH1 0x20 PUSH1 0x0 KECCAK256 SWAP2 DUP3 ADD SWAP2 ADD PUSH2 0xEFF SWAP2 SWAP1 PUSH2 0xFAA JUMP JUMPDEST JUMPDEST POP POP POP JUMP JUMPDEST DUP3 DUP1 SLOAD PUSH1 0x1 DUP2 PUSH1 0x1 AND ISZERO PUSH2 0x100 MUL SUB AND PUSH1 0x2 SWAP1 DIV SWAP1 PUSH1 0x0 MSTORE PUSH1 0x20 PUSH1 0x0 KECCAK256 SWAP1 PUSH1 0x1F ADD PUSH1 0x20 SWAP1 DIV DUP2 ADD SWAP3 DUP3 PUSH1 0x1F LT PUSH2 0xF46 JUMPI DUP1 MLOAD PUSH1 0xFF NOT AND DUP4 DUP1 ADD OR DUP6 SSTORE PUSH2 0xF74 JUMP JUMPDEST DUP3 DUP1 ADD PUSH1 0x1 ADD DUP6 SSTORE DUP3 ISZERO PUSH2 0xF74 JUMPI SWAP2 DUP3 ADD JUMPDEST DUP3 DUP2 GT ISZERO PUSH2 0xF73 JUMPI DUP3 MLOAD DUP3 SSTORE SWAP2 PUSH1 0x20 ADD SWAP2 SWAP1 PUSH1 0x1 ADD SWAP1 PUSH2 0xF58 JUMP JUMPDEST JUMPDEST POP SWAP1 POP PUSH2 0xF81 SWAP2 SWAP1 PUSH2 0xF85 JUMP JUMPDEST POP SWAP1 JUMP JUMPDEST PUSH2 0xFA7 SWAP2 SWAP1 JUMPDEST DUP1 DUP3 GT ISZERO PUSH2 0xFA3 JUMPI PUSH1 0x0 DUP2 PUSH1 0x0 SWAP1 SSTORE POP PUSH1 0x1 ADD PUSH2 0xF8B JUMP JUMPDEST POP SWAP1 JUMP JUMPDEST SWAP1 JUMP JUMPDEST PUSH2 0x1005 SWAP2 SWAP1 JUMPDEST DUP1 DUP3 GT ISZERO PUSH2 0x1001 JUMPI PUSH1 0x0 DUP1 DUP3 ADD PUSH1 0x0 PUSH2 0x100 EXP DUP2 SLOAD SWAP1 PUSH20 0xFFFFFFFFFFFFFFFFFFFFFFFFFFFFFFFFFFFFFFFF MUL NOT AND SWAP1 SSTORE PUSH1 0x1 DUP3 ADD PUSH1 0x0 PUSH2 0xFF0 SWAP2 SWAP1 PUSH2 0xE8B JUMP JUMPDEST PUSH1 0x2 DUP3 ADD PUSH1 0x0 SWAP1 SSTORE POP PUSH1 0x3 ADD PUSH2 0xFB0 JUMP JUMPDEST POP SWAP1 JUMP JUMPDEST SWAP1 JUMP STOP LOG1 PUSH6 0x627A7A723058 KECCAK256 0x4c SGT 0x47 MSTORE8 0x1e DUP4 DUP11 0xc SUB 0x49 DUP9 JUMPI 0xdf 0xaf RETURNDATACOPY GT SWAP10 SWAP12 CALL JUMPDEST SWAP6 RETURNDATASIZE JUMP LOG3 0xc2 PUSH15 0x4DF56ABA2969002900000000000000 "
				},
				"gasEstimates": {
					"creation": {
						"codeDepositCost": "829600",
						"executionCost": "infinite",
						"totalCost": "infinite"
					},
					"external": {
						"": "415",
						"addMember(address,string)": "infinite",
						"admin()": "772",
						"changeVotingRules(uint256,uint256,int256)": "60809",
						"checkProposalCode()": "221",
						"debatingPreriodInMinutes()": "658",
						"executeProposal(uint256,bytes)": "infinite",
						"majorityMargin()": "614",
						"memberId(address)": "598",
						"members(uint256)": "infinite",
						"minimumQuorum()": "592",
						"newProposal()": "309",
						"numProposals()": "504",
						"proposals(uint256)": "infinite",
						"removeMember(address)": "infinite",
						"transerAdminship(address)": "20772",
						"vote()": "287"
					}
				},
				"methodIdentifiers": {
					"addMember(address,string)": "c127c247",
					"admin()": "f851a440",
					"changeVotingRules(uint256,uint256,int256)": "bcca1fd3",
					"checkProposalCode()": "3fb2d655",
					"debatingPreriodInMinutes()": "bfee24c2",
					"executeProposal(uint256,bytes)": "237e9492",
					"majorityMargin()": "aa02a90f",
					"memberId(address)": "39106821",
					"members(uint256)": "5daf08ca",
					"minimumQuorum()": "8160f0b5",
					"newProposal()": "68744564",
					"numProposals()": "400e3949",
					"proposals(uint256)": "013cf08b",
					"removeMember(address)": "0b1ca49a",
					"transerAdminship(address)": "db529e4e",
					"vote()": "632a9a52"
				}
			},
			"userdoc": {
				"methods": {}
			}
		}
	}
}